:020000040800F2
:1000000000000220ED2F0008552F00085D2F00088A
:10001000652F00086D2F0008752F000800000000F4
:100020000000000000000000000000007D2F00081C
:100030008B2F000800000000992F0008A72F000850
:100040003D3000083D3000083D3000083D300008DC
:100050003D3000083D3000083D3000083D300008CC
:100060003D3000083D3000083D3000083D300008BC
:100070003D3000083D3000083D3000083D300008AC
:100080003D3000083D3000083D3000083D3000089C
:100090003D3000083D3000083D3000083D3000088C
:1000A0003D3000083D3000083D3000083D3000087C
:1000B0003D3000083D3000083D3000083D3000086C
:1000C0003D3000083D3000083D3000083D3000085C
:1000D0003D3000083D3000083D3000083D3000084C
:1000E0003D3000083D3000083D3000083D3000083C
:1000F0003D3000083D3000083D3000083D3000082C
:100100003D3000083D3000083D3000083D3000081B
:100110003D3000083D3000083D3000083D3000080B
:100120003D3000083D3000083D3000083D300008FB
:100130003D3000083D3000083D3000083D300008EB
:100140003D3000083D3000083D300008B52F000864
:100150003D3000083D3000083D3000083D300008CB
:100160003D3000083D3000083D3000083D300008BB
:100170003D3000083D3000083D3000080000000020
:080180003D3000083D3000088D
:1001880010B5054C237833B9044B13B10448AFF3C9
:1001980000800123237010BD0C0100200000000026
:1001A800E09A000808B5034B1BB103490348AFF3B5
:1001B800008008BD0000000010010020E09A00083F
:1001C80081F0004102E000BF83F0004330B54FEA00
:1001D80041044FEA430594EA050F08BF90EA020F6D
:1001E8001FBF54EA000C55EA020C7FEA645C7FEA00
:1001F800655C00F0E2804FEA5454D4EB5555B8BF23
:100208006D420CDD2C4480EA020281EA030382EA93
:10021800000083EA010180EA020281EA0303362D25
:1002280088BF30BD11F0004F4FEA01314FF4801CF8
:100238004CEA113102D0404261EB410113F0004F0A
:100248004FEA03334CEA133302D0524263EB4303C1
:1002580094EA050F00F0A780A4F10104D5F1200E5F
:100268000DDB02FA0EFC22FA05F2801841F10001BA
:1002780003FA0EF2801843FA05F359410EE0A5F18E
:1002880020050EF1200E012A03FA0EFC28BF4CF0BF
:10029800020C43FA05F3C01851EBE37101F0004575
:1002A80007D54FF0000EDCF1000C7EEB00006EEB82
:1002B8000101B1F5801F1BD3B1F5001F0CD349080C
:1002C8005FEA30004FEA3C0C04F101044FEA445263
:1002D80012F5800F80F09A80BCF1004F08BF5FEAEA
:1002E800500C50F1000041EB045141EA050130BDCA
:1002F8005FEA4C0C404141EB0101013C28BFB1F5DC
:10030800801FE9D291F0000F04BF01460020B1FA26
:1003180081F308BF2033A3F10B03B3F120020CDAF9
:100328000C3208DD02F1140CC2F10C0201FA0CF0D7
:1003380021FA02F10CE002F11402D8BFC2F1200C3C
:1003480001FA02F120FA0CFCDCBF41EA0C019040F2
:10035800E41AA2BF01EB0451294330BD6FEA04043B
:100368001F3C1CDA0C340EDC04F11404C4F1200226
:1003780020FA04F001FA02F340EA030021FA04F338
:1003880045EA030130BDC4F10C04C4F1200220FA8F
:1003980002F001FA04F340EA0300294630BD21FACD
:1003A80004F0294630BD94F0000F83F4801306BF93
:1003B80081F480110134013D4EE77FEA645C18BF87
:1003C8007FEA655C29D094EA050F08BF90EA020F1E
:1003D80005D054EA000C04BF1946104630BD91EA16
:1003E800030F1EBF0021002030BD5FEA545C05D119
:1003F8004000494128BF41F0004130BD14F5800458
:100408003CBF01F5801130BD01F0004545F0FE41CB
:1004180041F470014FF0000030BD7FEA645C1ABF00
:10042800194610467FEA655C1CBF0B46024650EA37
:10043800013406BF52EA033591EA030F41F4002163
:1004480030BD00BF90F0000F04BF0021704730B5E9
:100458004FF4806404F132044FF000054FF00001BE
:1004680050E700BF90F0000F04BF0021704730B57F
:100478004FF4806404F1320410F0004548BF404254
:100488004FF000013EE700BF42004FEAE2014FEAA9
:1004980031014FEA02701FBF12F07F4393F07F4F84
:1004A80081F06051704732F07F4208BF704793F087
:1004B8007F4F04BF41F40021704730B54FF460749A
:1004C80001F0004521F000411CE700BF50EA01029D
:1004D80008BF704730B54FF000050AE050EA010246
:1004E80008BF704730B511F0004502D5404261EBB6
:1004F80041014FF4806404F132045FEA915C3FF4F7
:10050800D8AE4FF003025FEADC0C18BF03325FEA93
:10051800DC0C18BF033202EBDC02C2F1200300FA44
:1005280003FC20FA02F001FA03FE40EA0E0021FA69
:1005380002F11444BDE600BF70B54FF0FF0C4CF457
:10054800E06C1CEA11541DBF1CEA135594EA0C0F09
:1005580095EA0C0F00F0DEF82C4481EA030621EA44
:100568004C5123EA4C5350EA013518BF52EA03357F
:1005780041F4801143F4801338D0A0FB02CE4FF031
:100588000005E1FB02E506F00042E0FB03E54FF061
:100598000006E1FB03569CF0000F18BF4EF0010E59
:1005A800A4F1FF04B6F5007F64F5407404D25FEA55
:1005B8004E0E6D4146EB060642EAC62141EA555108
:1005C8004FEAC52040EA5E504FEACE2EB4F1FD0C4A
:1005D80088BFBCF5E06F1ED8BEF1004F08BF5FEAC8
:1005E800500E50F1000041EB045170BD06F000467A
:1005F80046EA010140EA020081EA0301B4EB5C0427
:10060800C2BFD4EB0C0541EA045170BD41F480111E
:100618004FF0000E013C00F3AB8014F1360FDEBF43
:10062800002001F0004170BDC4F10004203C35DA1F
:100638000C341BDC04F11404C4F1200500FA05F3A2
:1006480020FA04F001FA05F240EA020001F0004243
:1006580021F0004110EBD37021FA04F642EB0601B9
:100668005EEA430E08BF20EAD37070BDC4F10C04E3
:10067800C4F1200500FA04F320FA05F001FA04F2A7
:1006880040EA020001F0004110EBD37041F1000193
:100698005EEA430E08BF20EAD37070BDC4F120059E
:1006A80000FA05F24EEA020E20FA04F301FA05F206
:1006B80043EA020321FA04F001F0004121FA04F2AE
:1006C80020EA020000EBD3705EEA430E08BF20EA7E
:1006D800D37070BD94F0000F0FD101F000464000B8
:1006E80041EB010111F4801F08BF013CF7D041EA3A
:1006F800060195F0000F18BF704703F0004652003E
:1007080043EB030313F4801F08BF013DF7D043EA0E
:100718000603704794EA0C0F0CEA135518BF95EAC4
:100728000C0F0CD050EA410618BF52EA4306D1D14B
:1007380081EA030101F000414FF0000070BD50EA6A
:10074800410606BF1046194652EA430619D094EAF4
:100758000C0F02D150EA013613D195EA0C0F05D1DE
:1007680052EA03361CBF104619460AD181EA030132
:1007780001F0004141F0FE4141F470014FF00000EA
:1007880070BD41F0FE4141F4780170BD70B54FF085
:10079800FF0C4CF4E06C1CEA11541DBF1CEA135505
:1007A80094EA0C0F95EA0C0F00F0A7F8A4EB0504E7
:1007B80081EA030E52EA03354FEA013100F08880DE
:1007C8004FEA03334FF0805545EA131343EA1263A7
:1007D8004FEA022245EA111545EA10654FEA00265C
:1007E8000EF000419D4208BF964244F1FD0404F515
:1007F800407402D25B084FEA3202B61A65EB030571
:100808005B084FEA32024FF480104FF4002CB6EB2D
:10081800020E75EB030E22BFB61A754640EA0C00AD
:100828005B084FEA3202B6EB020E75EB030E22BFED
:10083800B61A754640EA5C005B084FEA3202B6EB2E
:10084800020E75EB030E22BFB61A754640EA9C00ED
:100858005B084FEA3202B6EB020E75EB030E22BFBD
:10086800B61A754640EADC0055EA060E18D04FEA7B
:10087800051545EA16754FEA06164FEAC30343EA1B
:1008880052734FEAC2025FEA1C1CC0D111F4801FE8
:100898000BD141EA00014FF000004FF0004CB6E7E1
:1008A80011F4801F04BF01430020B4F1FD0C88BF80
:1008B800BCF5E06F3FF6AFAEB5EB030C04BFB6EB8B
:1008C800020C5FEA500C50F1000041EB045170BD7E
:1008D8000EF0004E4EEA113114EB5C04C2BFD4EBAB
:1008E8000C0541EA045170BD41F480114FF0000E2F
:1008F800013C90E645EA060E8DE60CEA135594EAAB
:100908000C0F08BF95EA0C0F3FF43BAF94EA0C0FAD
:100918000AD150EA01347FF434AF95EA0C0F7FF422
:1009280025AF104619462CE795EA0C0F06D152EA76
:1009380003353FF4FDAE1046194622E750EA41065A
:1009480018BF52EA43067FF4C5AE50EA41047FF46B
:100958000DAF52EA43057FF4EBAE12E74FEA4102CE
:1009680012F5001215D211D56FF47873B3EB6252F9
:1009780012D94FEAC12343F0004343EA505311F020
:10098800004F23FA02F018BF404270474FF00000B2
:10099800704750EA013005D111F0004008BF6FF0F0
:1009A800004070474FF00000704700BF53B94AB984
:1009B800002908BF00281CBF4FF0FF314FF0FF305F
:1009C80000F06AB9ADF1080C6DE904CE00F006F844
:1009D800DDF804E0DDE9022304B070472DE9F047B3
:1009E800089D0C46002B4ED194468C458646B2FA9B
:1009F80082F262D94AB1C2F12003914020FA03F38E
:100A08000CFA02FC194300FA02FE4FEA1C471FFACF
:100A18008CF6B1FBF7F44FEA1E4307FB141143EAC7
:100A2800014304FB06F199420AD91CEB030304F1C4
:100A3800FF3080F01281994240F20F81023C6344FA
:100A4800591A1FFA8EF3B1FBF7F007FB101143EAAE
:100A5800014300FB06F69E420AD91CEB030300F192
:100A6800FF3180F0FC809E4240F2F98063440238F6
:100A78009B1B40EA044000211DB1D3400022C5E978
:100A88000032BDE8F0878B4205D90DB1C5E90001F8
:100A980000210846F5E7B3FA83F1002946D1A342BD
:100AA80002D39042C0F0F080861A64EB0303012061
:100AB800002DE6D0C5E90063E3E7002A40F0908006
:100AC800A1EB0C044FEA1C481FFA8CF70121B4FB78
:100AD800F8F64FEA1E4308FB164443EA044307FBB3
:100AE80006F0984208D91CEB030306F1FF3402D242
:100AF800984200F2CD8026461C1A1FFA8EF3B4FBEA
:100B0800F8F008FB104443EA044300FB07F79F4250
:100B180008D91CEB030300F1FF3402D29F4200F214
:100B2800B0802046DB1B40EA0640A5E7C1F120065D
:100B38008B4022FA06F71F4320FA06FC04FA01F359
:100B480043EA0C03F44000FA01F8380C4FEA134961
:100B5800B4FBF0FE1FFA87FC00FB1E4449EA04447C
:100B68000EFB0CF9A14502FA01F20AD93C190EF163
:100B7800FF3A80F08480A14540F28180AEF1020EF8
:100B88003C44A4EB09041FFA83F9B4FBF0F300FB1F
:100B9800134449EA044403FB0CFCA44507D93C1957
:100BA80003F1FF3067D2A44565D9023B3C4443EAD0
:100BB8000E40A0FB0293A4EB0C049C42CE469C463C
:100BC80051D34ED055B1B8EB0E0364EB0C0404FAC4
:100BD80006F6CB401E43CC40C5E90064002150E72F
:100BE800C2F1200320FA03F10CFA02FC24FA03F301
:100BF80094400C434FEA1C4800FA02FE1FFA8CF797
:100C0800B3FBF8F008FB1031230C43EA014300FB67
:100C180007F1994208D91CEB030300F1FF362CD2E7
:100C280099422AD9023863445B1AA4B2B3FBF8F19B
:100C380008FB113344EA034401FB07F3A34208D934
:100C48001CEB040401F1FF3613D2A34211D9023977
:100C58006444E41A41EA004139E70446F0E60846EC
:100C680006E7C845AED2B9EB020E63EB070C0138B4
:100C7800A8E73146EDE7034699E73046D4E7D6467C
:100C88007FE7634402384DE70646234608460FE7E8
:100C9800023E634430E700BF704700BF80B483B0B2
:100CA80000AF78607B68002BB8BF5B4218460C37F2
:100CB800BD465DF8047B704780B58AB002AF034635
:100CC800FB7100237B6100233B76FB7903F07F03F4
:100CD800DBB23B75002210210F4802F009FD07F135
:100CE8000C0207F11401C823009305230B4804F0F4
:100CF80090FD01221021084802F0FAFCD7F80D30C7
:100D0800BB60BB68FB61FB691BBA00BFBB60BB680B
:100D180018462037BD4680BD000002402C02002046
:100D280080B586B000AF03463960FB710023FB60D5
:100D380000233B74FB7963F07F03DBB23B733B68B2
:100D48007B617B691BBA00BF3B6007F10C03013371
:100D58003A681A6000221021094802F0C9FC07F11C
:100D68000C01C8230522074804F00FFC01221021BA
:100D7800034802F0BDFC00BF1837BD4680BD00BF68
:100D8800000002402C02002080B489B000AFF86057
:100D98003B1D83E806007A68FB6813403A7AD34023
:100DA800FB61BB7A002B0FD07B683A7AD340BB61DA
:100DB800BB69DB435B08BA6913407B61FA697B69ED
:100DC8005A407B69D31AFB61FB6918462437BD4634
:100DD8005DF8047B704780B584B000AF3B4683E87C
:100DE80003007B791846FFF767FFF8603B4693E8F6
:100DF8000600F868FFF7C8FF034618461037BD46D7
:100E080080BD80B485B000AFF860381D80E806006A
:100E18003B607B68DA43FB681A403B7A19463B68BB
:100E280003FA01F17B680B40134318461437BD469B
:100E38005DF8047B704780B586B000AF07F1080302
:100E480083E803007A607B7B1846FFF735FF7861FB
:100E58007B6807F1080206CA7869FFF7D2FF786154
:100E68007B7B79691846FFF75BFF00BF1837BD46E3
:100E780080BD80B483B000AF78607B6800221A60C0
:100E88007B6800225A607B6800229A607B68002297
:100E9800DA607B6800221A617B6800221A757B6819
:100EA80018460C37BD465DF8047B704780B582B0A4
:100EB80000AF78600B46FB707B681846FFF7D9FFD8
:100EC8007B68FA781A757B6818460837BD4680BD76
:100ED80080B483B000AF78607B6800221A707B68AA
:100EE80001225A707B6801229A707B680022DA70AE
:100EF8007B6801221A717B686422DA807B68002291
:100F08001A817B6842F6AA225A817B6845F25552BB
:100F18009A817B684FF40042DA817B684AF6AA22FC
:100F28001A827B684DF255525A827B6800229A8257
:100F38007B680022DA827B6842F6AA221A837B68E1
:100F480018460C37BD465DF8047B704780B483B003
:100F580000AF78607B684FF448721A807B684FF462
:100F68002F725A807B684FF448729A807B684FF4DE
:100F78002F72DA807B6800221A817B684FF48072B6
:100F88005A817B6800229A817B688022DA817B689B
:100F980001221A747B6818460C37BD465DF8047B3D
:100FA8007047000080B483B000AF78607B6847F674
:100FB800FF721A807B6847F230525A807B6847F28A
:100FC80030529A807B686FF000429A607B686FF0BD
:100FD8000042DA607B68064A1A617B686FF000425B
:100FE8005A617B6818460C37BD465DF8047B70472C
:100FF8000100008080B483B000AF78607B684FF454
:1010080025721A807B684FF425725A807B684FF0EE
:1010180000525A607B684FF000529A607B6848F231
:1010280087229A817B6848F28722DA817B684FF4AD
:1010380080721A827B684FF480725A827B68002221
:101048001A757B6818460C37BD465DF8047B7047F7
:1010580080B483B000AF78607B6842F210721A8067
:101068007B681B889B009AB27B685A807B68042245
:101078001A717B6800225A717B6800229A717B681A
:101088000022DA717B6801221A727B6800225A7288
:101098007B6800229A727B6800229A817B68002212
:1010A800DA817B6800221A827B6800229A747B6846
:1010B8000022DA747B6800221A757B6800225A7550
:1010C8007B6800229A757B6818460C37BD465DF828
:1010D800047B704780B483B000AF78607B680022DF
:1010E8001A707B6800225A707B6800229A707B68AD
:1010F8000022DA707B6800221A717B6800225A711C
:101108007B6818460C37BD465DF8047B70470000C5
:1011180080B483B000AF78607B6800221A707B6867
:10112800064A0233106818607B68054A9A607B6833
:1011380018460C37BD465DF8047B7047F89A0008DE
:101148000000204180B582B000AF78607B68002144
:101158001846FFF7ABFE7B68183300211846FFF7E7
:10116800A5FE7B68303300211846FFF79FFE7B6899
:10117800483300211846FFF799FE7B681846083760
:10118800BD4680BD80B582B000AF78607B681846E8
:10119800FFF79EFE7B681A331846FFF7D7FE7B6879
:1011A8002C331846FFF7FEFE7B6844331846FFF7DA
:1011B80021FF7B685C331846FFF74AFF7B6874336E
:1011C8001846FFF787FF7B687C331846FFF7A0FFB8
:1011D8007B6888331846FFF7B5FF7B68032283F8DE
:1011E800E8207B68012283F8E9207B68002283F8E5
:1011F800EA207B68002283F8EB207B68012283F8D1
:10120800EC207B68002283F8ED207B6840F6FF72B3
:10121800A3F8EE207B68322283F8F0207B68322224
:1012280083F8F1207B684CF20C62A3F8F2207B680B
:101238004CF2D462A3F8F4207B6842F22832A3F877
:10124800F6207B680022C3F8F8207B680022C3F8E8
:10125800FC207B68002283F800217B681846083749
:10126800BD4680BD80B582B000AF78600B46FB708C
:10127800FB78002B09D17B68002283F8ED2000223F
:101288008021084802F034FA08E07B68012283F8DC
:10129800ED2001228021034802F02AFA00BF083716
:1012A800BD4680BD0010024080B582B000AF7860B6
:1012B8000B46FB707B68FA7883F8EB20FB780449CF
:1012C8001A4603C9FFF7B7FD00BF0837BD4680BD02
:1012D800649D000880B582B000AF7860084B93E841
:1012E8000300FFF778FD0346DAB27B6883F8EB204A
:1012F8007B6893F8EB3018460837BD4680BD00BFC1
:10130800649D000880B582B000AF7860094B93E80F
:101318000300FFF760FD0346DBB203F00703DAB210
:101328007B6883F8E9207B6893F8E930184608372A
:10133800BD4680BD1C9D000880B582B000AF7860B6
:101348005320FFF7B9FC03461BB218460837BD46C1
:1013580080BD000080B582B000AF78607B6893F8EC
:10136800EC30012B07D1184B93E80300FFF733FD4E
:1013780003461BB223E07B6893F8EC30022B04D0C1
:101388007B6893F8EC30032B07D1104B93E80300EC
:10139800FFF721FD03461BB211E07B6893F8EC30A0
:1013A800042B07D10A4B93E80300FFF714FD03460B
:1013B8001BB204E07868FFF7BFFF034600BF18467A
:1013C8000837BD4680BD00BF649C0008FC9C00082F
:1013D800DC9C000880B582B000AF78600B46FB70DB
:1013E80013463B80FB78012B01D101233B807B68AE
:1013F800FA7883F8E8203B88DAB27B6883F86020C3
:101408003B8807491A4603C9FFF715FDFB780549CC
:101418001A4603C9FFF70FFD00BF0837BD4680BD58
:10142800FC9B0008049C000880B582B000AF78607F
:101438000B46FB70FB78092B01D10123FB707B68FD
:10144800FA7883F8E920FB78002B14BF01230023E6
:10145800DBB21A46044B93E80300FFF7ECFC00BF2D
:101468000837BD4680BD00BF1C9D000880B582B00E
:1014780000AF786039607B681A223968184608F02E
:101488001DFB3B685B781A463C4B93E80300FFF76B
:10149800D2FC3B681B791A46394B93E80300FFF7E7
:1014A800CAFC3B689B781A46364B93E80300FFF763
:1014B800C2FC3B68DB781A46334B93E80300FFF71E
:1014C800BAFC3B68DB881A46304B93E80300FFF709
:1014D800B2FC3B68B3F908301A462D4B93E8030079
:1014E800FFF7A9FC3B68B3F90A301A46294B93E881
:1014F8000300FFF7A0FC3B68B3F90C301A46264BF3
:1015080093E80300FFF797FC3B68B3F90E301A46DF
:10151800224B93E80300FFF78EFC3B68B3F91030C9
:101528001A461F4B93E80300FFF785FC3B68B3F9A5
:1015380012301A461B4B93E80300FFF77CFC3B680C
:10154800B3F916301A46184B93E80300FFF773FCFB
:101558003B68B3F914301A46144B93E80300FFF7BD
:101568006AFC3B681B8B1A46114B93E80300FFF794
:1015780062FC00BF0837BD4680BD00BF6C9C0008F8
:10158800749C00087C9C0008849C00088C9C0008C3
:10159800949C00089C9C0008A49C0008AC9C000833
:1015A800B49C0008BC9C0008C49C0008CC9C0008A3
:1015B800D49C000880B582B000AF78600B46FB7001
:1015C8007B68FA7883F8EA20FB7804491A4603C94D
:1015D800FFF731FC00BF0837BD4680BDF49B00080B
:1015E80080B582B000AF7860084611461A460346B7
:1015F800FB700B463B801346BB703B8840F6FF727E
:10160800FF21184601F064FA03463B807B68FA78AC
:1016180083F8EA207B683A88A3F8EE207B68BA78DA
:1016280083F8F0207B683A7C83F8F1203B880F49E7
:101638001A4603C9FFF7FFFBFB780D491A4603C991
:10164800FFF7F9FBBB780B491A4603C9FFF7F3FB11
:101658003B7C09491A4603C9FFF7EDFB0021172017
:10166800FFF75EFB00BF0837BD4680BDDC9B000866
:10167800F49B0008E49B0008EC9B000880B582B04E
:1016880000AF786039603B689A897B68A3F850207E
:101698003B68DA897B68A3F852203B689B891A4625
:1016A800084B93E80300FFF7C6FB3B68DB891A4643
:1016B800054B93E80300FFF7BEFB00BF0837BD46A4
:1016C80080BD00BFA49B0008949B000880B582B031
:1016D80000AF786039603B681A8A7B68A3F85420A9
:1016E8003B685A8A7B68A3F856203B681B8A1A46CF
:1016F800084B93E80300FFF79EFB3B685B8A1A469A
:10170800054B93E80300FFF796FB00BF0837BD467B
:1017180080BD00BFAC9B00089C9B000880B582B0D0
:1017280000AF786039603B685A687B689A643B68A8
:101738009A687B68DA643B681A887B68A3F8442057
:101748003B685A887B68A3F846203B681B881A4682
:101758002F4B93E80300FFF76EFB3B685B881A4644
:101768002C4B93E80300FFF766FB3B685B682A494C
:101778001A4603C9FFF75FFB3B689B6827491A466F
:1017880003C9FFF758FB3B685B68002B14BF0123B4
:101798000023DBB21A46224B93E80300FFF74BFB0A
:1017A8003B689B68002B14BF01230023DBB21A4659
:1017B8001C4B93E80300FFF73EFB1B4B002293E80A
:1017C8000300FFF738FB194B012293E80300FFF7EA
:1017D80032FB174B002293E80300FFF72CFB154B55
:1017E800022293E80300FFF726FB134B012293E83C
:1017F8000300FFF720FB39687868FFF73FFF396877
:101808007868FFF763FF00BF0837BD4680BD00BF9B
:10181800849B00088C9B0008749B00087C9B000834
:10182800649B00086C9B0008B49B0008BC9B0008E4
:10183800C49B0008CC9B0008D49B000880B582B0EC
:1018480000AF786039607B681A331222396818460D
:1018580008F034F93B681B881A46244B93E80300C8
:10186800FFF7E9FA3B685B881A46214B93E80300C7
:10187800FFF7E1FA3B689B881A461E4B93E8030082
:10188800FFF7D9FA3B685B881A461B4B93E80300BD
:10189800FFF7D1FA3B681B891A46184B93E80300F7
:1018A800FFF7C9FA3B685B891A46154B93E80300B2
:1018B800FFF7C1FA3B689B891A46124B93E803006D
:1018C800FFF7B9FA3B68DB891A460F4B93E8030028
:1018D800FFF7B1FA3B681B7C1A460C4B93E80300F0
:1018E800FFF7A9FA00BF0837BD4680BD249D000850
:1018F8002C9D0008349D00083C9D0008449D00086C
:101908004C9D0008549D00085C9D00086C9D0008D3
:1019180080B582B000AF78600B467B8013463B8071
:101928007B687A88A3F8F2207B683A88A3F8F420C9
:101938007B8807491A4603C9FFF77DFA3B880449A3
:101948001A4603C9FFF777FA00BF0837BD4680BDBE
:101958007C9D000880B582B000AF786039603B6834
:1019680004491A4603C9FFF766FA00BF0837BD469F
:1019780080BD00BF749D000880B582B000AF78605C
:10198800044B93E80300FFF726FA03461846083786
:10199800BD4680BD749D000880B584B000AF7860F6
:1019A8007B6893F8EC30012B07D1164B93E80300C2
:1019B800FFF711FA0346FB811DE07B6893F8EC30D2
:1019C800042B07D1104B93E80300FFF704FA0346F2
:1019D800FB8110E07B6893F8EC30022B04D07B6825
:1019E80093F8EC30032B06D1084B93E80300FFF77C
:1019F800F2F90346FB81B7F90E3018461037BD4699
:101A080080BD00BF5C9C0008E49C0008F49C0008B2
:101A180080B582B000AF78600B467B8013463B8070
:101A280001217868FFF740FCB7F902309AB2B7F99C
:101A380000301B04134319466420FFF771F9B7F906
:101A480002309AB2B7F900301B04134319466420D8
:101A5800FFF766F900BF0837BD4680BD80B582B084
:101A680000AF786039603B6819467D20FFF758F968
:101A780000BF0837BD4680BD80B582B000AF786032
:101A88000B467B80B7F9023004491A4603C9FFF7B1
:101A9800D2F900BF0837BD4680BD00BF0C9C0008C6
:101AA8002DE9B04F96B000AFF8610B467B837B8B76
:101AB8007B8700237B654FF000024FF00003C7E9E6
:101AC80012234FF000024FF00003C7E91023002152
:101AD8000320FFF725F9F869FFF714FC034687F898
:101AE8003930F869FFF7F6FB034687F838300021EC
:101AF800F869FFF7D9FB642001F010FBFB69B3F824
:101B08005030FB87FB69B3F85230BB8701F0FAFA13
:101B1800786343E000210320FFF702F90220FFF772
:101B2800CBF8B862BB6AFB84BB6A1B0CBB84FA8F18
:101B3800FB8CD31A002BB8BF5B4242F20F72934260
:101B48002CDCBA8FBB8CD31A002BB8BF5B4242F295
:101B58000F72934222DCFB8C00221C461546D7E903
:101B6800122312EB040A43EB050BC7E912ABBB8C3B
:101B7800002298469146D7E9102312EB08013960F4
:101B880043EB09037B60D7E90023C7E910237B6D8A
:101B980001337B65FB8CFB87BB8CBB8701F0B2FAFA
:101BA80002467B6BD21A7B8F9A4234BF01230023F3
:101BB800DBB2002BAED17B6D00223B617A61D7E9A5
:101BC8000423D7E91201FEF7F1FE02460B4613463D
:101BD8003B637B6D0022BB60FA60D7E90223D7E93B
:101BE8001001FEF7E3FE02460B461346FB62D7E9F7
:101BF8001223642A73F100031DD3D7E91023642A42
:101C080073F1000317D33B6BA3F5FF437F3B1846E3
:101C1800FFF744F8034641F2883293420BDCFB6A33
:101C2800A3F5FF437F3B1846FFF738F8034641F218
:101C38008832934201DD012300E00023002B0AD003
:101C480001220221174801F053FDFB69002283F8A5
:101C58005820002320E03B6B9AB2FB69A3F8502080
:101C6800FB6A9AB2FB69A3F85220FB694433194610
:101C7800F869FFF703FD97F839301946F869FFF757
:101C8800D3FB97F838301946F869FFF70DFBFB6965
:101C9800012283F85820012318465837BD46BDE86D
:101CA800B08F00BF0010024080B588B000AF7860E8
:101CB8007868FFF761FE386100217868FFF74AFE0F
:101CC8007868FFF71FFB0346FB737868FFF702FB92
:101CD8000346BB73704B002293E80300FFF7ABF891
:101CE80000217868FFF7C8FE01217868FFF79CFBA0
:101CF800002200217868FFF78BFE01217868FFF742
:101D0800D3FA0023FB830DE0B7F91E3000221946F1
:101D18007868FFF77DFE052001F000FAFB8B14338D
:101D28009BB2FB837B68B3F9F630B7F91E209A4261
:101D3800EADD5A4B93E80300FFF74DF80346BB83EF
:101D48000023BB8100237B8300233B830023FB828A
:101D58000023BB8237E0B7F9143019467868FFF7DB
:101D68008BFE0A2001F0DAF9B7F918309BB201337B
:101D78009BB23B83BB8BBB81484B93E80300FFF7C7
:101D88002AF80346BB83B7F91C20B7F90C309A42EE
:101D980005DAB7F91A309BB201339BB27B83404B0B
:101DA80093E80300FFF717F80346002B14BF01233D
:101DB8000023DBB2002B02D0FB8A0133FB82BB8AF3
:101DC8002F339BB2BB82B7F9143040F6FE729342B0
:101DD800C1DD7868FFF7D0FD02463B691344194618
:101DE8007868FFF7B7FD002200217868FFF710FE3A
:101DF800FB7B19467868FFF717FBBB7B19467868A9
:101E0800FFF752FAFA8AB7F91830D90F0B445B106A
:101E18001BB29A42CCBF01230023FB72B7F91830DA
:101E2800DA0F13445B101BB2B7F91A209A42CCBFE1
:101E380001230023DAB27B6883F864207B6893F877
:101E48006330FA7A9A4216D07B6893F8643083F04C
:101E58000103DAB27B6883F8642001220221114869
:101E680001F046FC4FF4967001F058F90022022167
:101E78000C4801F03DFC7B68FA7A83F861207B68A6
:101E8800FA7A83F862207B68FA7A83F8632000BFC5
:101E98002037BD4680BD00BF3C9C0008649C0008FC
:101EA800849D00080010024080B584B000AF7860BF
:101EB8000B46FB702820FEF7FFFE0346FB60FA681E
:101EC80013461B049B1A7A68B2F85E2093FBF2F360
:101ED800BB60BB689BB25B429BB21AB27B68A3F83B
:101EE8006A20FB78002B13D07B68B3F968309AB26C
:101EF8007B6893F860301946BB689BB211FB03F30B
:101F08009BB213449BB21AB27B68A3F8682008E01E
:101F18007B68B3F96A301A46084B93E80300FEF76A
:101F28008AFF7868FFF738FD034619467868FFF797
:101F380011FD00BF1037BD4680BD00BF4C9C000896
:101F480080B588B000AF78600B467B807B6893F8DB
:101F5800E830022B05D07B6893F8E830032B40F07B
:101F6800F7807868FFF7CEF90346FB747868FFF7C7
:101F7800B1F90346BB74002200217868FFF748FDD9
:101F8800754A07F1080392E8030083E803007B68B9
:101F980093F8EC30012B13D1704A07F1080392E84B
:101FA800030083E803007B6893F8703083F0010333
:101FB800DBB2002B1DD000217868FFF775FF18E011
:101FC8007B6893F8EC30022B04D07B6893F8EC30F4
:101FD800032B0ED100214120FEF7A2FE002147204D
:101FE800FEF79EFE5E4A07F1080392E8030083E8C5
:101FF80003007868FFF7A0F903463B82002207F147
:10200800080393E80300FEF716FFB7F910301946E6
:102018007868FFF731FD01217868FFF705FA00239A
:10202800FB830DE0B7F91E30002219467868FFF7E8
:10203800EFFC032001F072F8FB8B0A339BB2FB83A1
:10204800B7F91E20B7F902309A42EBDD7868FFF73E
:1020580081F90346BB83322001F060F800237B83BB
:1020680000233B830023FB8219E0B7F91C20B7F952
:102078001A30D31A002BB8BF5B42632B03DCFB8AF0
:102088000133FB8201E00023FB82BB8B7B837868F2
:10209800FFF760F90346BB830A2001F03FF8FB8A8B
:1020A8001D2B0AD8B7F918309AB2013292B23A8386
:1020B800B3F57A7F01DA012300E00023002BD4D1A5
:1020C800002200217868FFF7A3FC3A8ABB8BD31A59
:1020D8009BB2BB82B7F91430002B09D1C82001F09C
:1020E8001DF8012202211F4801F002FB0123BB82D7
:1020F800B7F914301A4607F1080393E80300FEF70E
:102108009AFE7B6893F8EC30012B04D17B68BA8A7D
:10211800A3F868200DE07B6893F8EC30022B04D01C
:102128007B6893F8EC30032B03D17B68BA8AA3F859
:10213800682000217868FFF79FFCFB7C19467868C7
:10214800FFF772F9BB7C19467868FFF7ADF800E035
:1021580000BF2037BD4680BDFC9A0008549C00088B
:10216800EC9C00080010024080B58CB000AF78608D
:102178007B6893F8E830022B06D07B6893F8E83048
:10218800032B01D00123EEE15023FB820A23BB82FB
:102198007868FFF7DFF803467B8243F6FF733B82DC
:1021A800012387F82F307868FFF7ACF80346FB73F4
:1021B8007868FFF78FF80346BB7300220021786820
:1021C800FFF726FC01217868FFF72EF9B7F91230DE
:1021D80019467868FFF750FC0023BB850DE0B7F976
:1021E8002C30002219467868FFF712FC022000F014
:1021F80095FFBB8D14339BB2BB85B7F92C207B6848
:10220800B3F9F6305B00AB4981FB0301DB17CB1A4E
:102218009A42E4DD0023BB8100237B8500233B85B4
:102228000023FB8488E00023BB84FA8C7B8A134458
:102238009BB21BB219467868FFF71EFC052000F018
:102248006DFF7868FFF786F803469AB27B8AD31A3F
:102258009BB2BB81B7F90C20B7F92630D31A002BF3
:10226800B8BF5B427B84B7F90C20B7F9263013441A
:10227800002BB8BF5B423B841DE07868FFF76AF823
:1022880003469AB27B8AD31A9BB2BB81B7F90C205A
:10229800B7F92630D31A002BB8BF5B427B84B7F955
:1022A8002620B7F90C30D31A002BB8BF5B423B8409
:1022B8000A2000F033FFB7F9223040F6C4129342E7
:1022C8000CDDB7F9203040F6C412934206DDBB8C12
:1022D8005A1CBA844F2B01D8012300E00023002B9D
:1022E800CBD1B7F92220B7F920309A4205DDB7F9EA
:1022F80028309BB201339BB23B85BB8C4F2B17D93F
:102308007B8D01337B857B8D0A2B11D9002387F8C0
:102318002F3001220221684801F0EAF94FF4967043
:1023280000F0FCFE00220221634801F0E1F90AE016
:10233800FB8CFF339BB2FB84B7F9263043F6FE7261
:1023480093427FF770AF7868FFF704F803461A46A0
:10235800B7F9123093420CBF01230023DBB2002BE4
:1023680010D001220221544801F0C2F94FF47A70CA
:1023780000F0D4FE002202214F4801F0B9F90023F1
:1023880087F82F3097F82F30002B00F0A08043F605
:10239800FF73FB8396E00023BB83FA8B7B8A13448D
:1023A8009BB21BB219467868FFF766FB052000F060
:1023B800B5FE7868FEF7CEFF03469AB27B8AD31A39
:1023C8009BB2BB81B7F90C20B7F91E30D31A002B8A
:1023D800B8BF5B427B83B7F90C20B7F91E301344B2
:1023E800002BB8BF5B423B831DE07868FEF7B2FF65
:1023F80003469AB27B8AD31A9BB2BB81B7F90C20E9
:10240800B7F91E30D31A002BB8BF5B427B83B7F9EC
:102418001E20B7F90C30D31A002BB8BF5B423B83A0
:102428000A2000F07BFEB7F91A3040F6C412934236
:102438000CDDB7F9183040F6C412934206DDBB8BA9
:102448005A1CBA834F2B01D8012300E00023002B2C
:10245800CBD1B7F91A20B7F918309A4205DDB7F988
:1024680028309BB201339BB23B85BB8B4F2B25D9C0
:102478007B8D01337B857B8D0A2B1FD9002387F841
:102488002F30012201210C4801F032F901220221EA
:10249800094801F02DF9962000F040FE00220121A4
:1024A800054801F025F900220221034801F020F92E
:1024B8000DE000BF5655555500100240FB8BFF3B01
:1024C8009BB2FB83B7F91E30002B3FF764AFB7F917
:1024D8002830502B2ADD7B6893F8EC30012B12D181
:1024E8007B6893F8643083F00103DAB27B6883F881
:1024F80064207B6893F864301A461D4B93E8030008
:10250800FEF799FC12E07B6893F8EC30022B04D0BC
:102518007B6893F8EC30032B08D17B6893F8643020
:1025280083F00103DAB27B6883F86420002200217B
:102538007868FFF76DFA00217868FFF79DFAFB7B52
:1025480019467868FEF770FFBB7B19467868FEF776
:10255800ABFE97F82F30002B03D07B68012283F85D
:102568006F2097F82F3018463037BD4680BD00BF22
:102578003C9C000880B584B000AF786039607A6808
:1025880092F8FF306FF3861382F8FF307A6892F87A
:10259800FF306FF3041382F8FF307B68D3F8FC1028
:1025A8007868FFF75BFA7B685C331822396818464D
:1025B80007F084FA3B685B791A465F4B93E803009F
:1025C800FEF739FC3B689B791A465C4B93E803009D
:1025D800FEF731FC3B68DB791A46594B93E8030058
:1025E800FEF729FC3B685B7A1A46564B93E80300D2
:1025F800FEF721FC3B689B7A1A46534B93E803008D
:10260800FEF719FC3B681B7A1A46504B93E8030007
:10261800FEF711FC3B685B881A464D4B93E80300B4
:10262800FEF709FC3B68B3F90C301A46494B93E8AE
:102638000300FEF700FC3B68B3F90E301A46464B20
:1026480093E80300FEF7F7FB7B68092283F8712003
:102658007B68092283F872207B6893F871301A46E8
:102668003E4B93E80300FEF7E6FB7B6893F8723075
:102678001A463B4B93E80300FEF7DDFB394B00227B
:1026880093E80300FEF7D7FB7868FFF70DFB5320AC
:10269800FEF712FB03461BB219467868FFF7ECF900
:1026A80001217868FEF7C0FE7B68B3F9F630194659
:1026B8007868FFF745FC0023FB7305E07868FFF7AF
:1026C80053FDFB7B0133FB737B6893F86F3083F01A
:1026D8000103DBB2002B02D0FB7B022BEED97B6817
:1026E80093F86F3083F00103DBB2002B09D001228D
:1026F80002211D4800F0FCFF00217868FEF7B2FDBA
:1027080017E07B6893F8EC30012B04D1032178683B
:10271800FEF78AFE0DE07B6893F8EC30022B04D0BC
:102728007B6893F8EC30032B03D106217868FEF719
:102738007BFE1037BD4680BD149C00081C9C000819
:10274800249C00082C9C0008349C00083C9C000831
:10275800449C0008549C00084C9C0008149D0008E8
:10276800049D00080C9D00080010024080B586B04A
:1027780002AF786000217868FEF774FD002101201F
:10278800FEF7CEFA0020FEF797FA0346774A9342FF
:102798000CBF01230023DBB2002B1DD001228021B6
:1027A800734800F0A5FFC82000F0B8FC0022802183
:1027B8006F4800F09DFF01210120FEF7B1FA0020CB
:1027C800FEF77AFA0346B3F5803F0CBF01230023D6
:1027D800DBB2002B19D009E001220221654800F084
:1027E80087FF00217868FEF73DFDBCE00122022149
:1027F800604800F07DFF012201215E4800F078FF6B
:1028080000217868FEF72EFDADE000216420FEF778
:1028180087FA7B68B3F8EE207B6893F8F0107B6842
:1028280093F8F13000930B4600217868FEF7D8FE44
:102838007B6893F8E8107B6893F860301A467868EC
:10284800FEF7C8FD7B6893F8E93019467868FEF70B
:10285800EBFD7B6819467868FEF708FE7B68443311
:1028680019467868FEF75AFF4FF496717868FFF7B3
:1028780017F9034683F00103DBB2002B09D00122CC
:1028880002213C4800F034FF00217868FEF7EAFC9A
:1028980069E07B68B3F8F2107B68B3F8F4301A4645
:1028A8007868FFF735F87B680022C3F8FC207A685F
:1028B80092F8FF3043F0040382F8FF307A6892F808
:1028C800FE3043F0080382F8FE307B68D3F8FC1032
:1028D8007868FFF7C3F87B681A3319467868FEF7FB
:1028E800ADFF7C20FEF7E8F90346FB73FA7B7B68B3
:1028F800C3F8F82001217868FEF7B4FC072178684E
:10290800FEF758FE05E07B685C3319467868FFF7E8
:1029180031FE7B6893F86F3083F00103DBB2002B44
:10292800F1D101228021124800F0E2FE01220121AA
:10293800104800F0DDFE012202210E4800F0D8FE0A
:102948004FF4C87000F0EAFB00228021084800F02C
:10295800CFFE00220121074800F0CAFE0022022112
:10296800044800F0C5FE1037BD4680BD3137363407
:10297800000C02400010024080B588B000AF7860BB
:102988000B467B807868FEF7E5FC03467B61B7F968
:1029980002301B0407EE903AF8EEE77A17EE900A39
:1029A800FDF772FD4FF00002484BFDF7EFFE0246BF
:1029B8000B4610461946FDF7D1FF03463B61786880
:1029C800FEF7A0FC0346FB737868FEF783FC03461A
:1029D800BB73002200217868FFF71AF80121786894
:1029E800FEF722FD7B691BB219467868FFF744F8A9
:1029F8000023FB830DE0B7F91E30002219467868E2
:102A0800FFF706F8022000F089FBFB8B14339BB21A
:102A1800FB83B7F91E207B68B3F9F63019460B46DD
:102A28005B000B44002B00DA03339B109A42E2DD73
:102A3800B7F90230002B19DD0023BB8310E07B6956
:102A48009AB2BB8B13449BB21BB219467868FFF746
:102A580013F8052000F062FBBB8BFF339BB2BB83EE
:102A6800B7F91C303A699A42E9DA18E000237B8307
:102A780010E07B699AB27B8B13449BB21BB2194658
:102A88007868FEF7F9FF052000F048FB7B8BFF3BD9
:102A98009BB27B83B7F91A303A699A42E9DD002282
:102AA80000217868FEF7B4FF00217868FEF7E4FF9C
:102AB800FB7B19467868FEF7B7FCBB7B194678683C
:102AC800FEF7F2FB00BF2037BD4680BD0080764090
:102AD80080B485B000AF0346B9607A60FB81FB899A
:102AE8007A689A4206DBFA89BB689342B8BF1346F4
:102AF8009BB201E07B689BB218461437BD465DF86F
:102B0800047B704780B582B000AF786039607B681D
:102B1800012B07D13B684FF6FF72934202D103485D
:102B2800FEF730FB00BF0837BD4680BD28010020F6
:102B380080B500AF4FF6FF710120FFF7E3FF80BDBE
:102B480080B58AB000AF07F1140300221A605A60FA
:102B58009A60DA601A6100233B61474B1B6B464A57
:102B680043F080031363444B1B6B03F080033B610A
:102B78003B690023FB60404B1B6B3F4A43F001035A
:102B880013633D4B1B6B03F00103FB60FB680023E1
:102B9800BB60394B1B6B384A43F010031363364B49
:102BA8001B6B03F01003BB60BB6800237B60324BD8
:102BB8001B6B314A43F0080313632F4B1B6B03F065
:102BC80008037B607B6800233B602B4B1B6B2A4A06
:102BD80043F002031363284B1B6B03F002033B60B3
:102BE8003B6801221021254800F082FD0022832144
:102BF800234800F07DFD00228021224800F078FD66
:102C080010237B610123BB610023FB6103233B622B
:102C180007F114031946194800F0B6FB80237B61BD
:102C28000123BB610223FB6100233B6207F114030C
:102C38001946134800F0A8FB80237B610123BB6180
:102C48000023FB6100233B6207F1140319460D487A
:102C580000F09AFB03237B610123BB610023FB6126
:102C680000233B6207F114031946054800F08CFB6A
:102C780000BF2837BD4680BD003802400000024032
:102C880000100240000C024080B500AF00F0D4F9FB
:102C980000F036F8FFF754FF06F026FA00F0B0F817
:102CA80001220221134800F023FD012201211148CD
:102CB80000F01EFD012280210F4800F019FD4FF49D
:102CC800FA7000F02BFA002202210A4800F010FDE9
:102CD80000220121074800F00BFD00228021064850
:102CE80000F006FD642000F019FA0448FFF73EFDE5
:102CF80000BFFDE700100240000C02402801002040
:102D080080B594B000AF07F12003302200211846A7
:102D180006F0A8FE07F10C0300221A605A609A60B8
:102D2800DA601A610023BB602D4B1B6C2C4A43F000
:102D3800805313642A4B1B6C03F08053BB60BB6841
:102D480000237B60274B1B68264A43F480431360AB
:102D5800244B1B6803F480437B607B6801233B6240
:102D68004FF480337B620223BB634FF48003FB6321
:102D780004233B64A8237B640223BB640723FB640E
:102D880007F12003184601F007FF0346002B14BF84
:102D980001230023DBB2002B01D000F025F80F231C
:102DA800FB6002233B6100237B614FF4A053BB61AE
:102DB8004FF48053FB6107F10C030521184602F01C
:102DC80063F90346002B14BF01230023DBB2002B59
:102DD80001D000F009F800BF5037BD4680BD00BFE4
:102DE800003802400070004080B500AF72B600BFE6
:102DF80001220221014800F07BFCF9E700100240A3
:102E080080B500AF174B184A1A60164B4FF4827200
:102E18005A60144B00229A60124B0022DA60114B60
:102E280002221A610F4B01225A610E4B4FF40072B5
:102E38009A610C4B1022DA610A4B00221A62094B84
:102E480000225A62074B00229A62064B0A22DA6273
:102E5800044802F011FB0346002B01D0FFF7C4FF22
:102E680000BF80BD2C0200200030014080B58AB030
:102E780000AF786007F1140300221A605A609A6064
:102E8800DA601A617B681B68194A93422BD10023C8
:102E98003B61184B5B6C174A43F480535364154BE2
:102EA8005B6C03F480533B613B690023FB60114B6F
:102EB8001B6B104A43F0010313630E4B1B6B03F0AB
:102EC8000103FB60FB68E0237B610223BB610023F5
:102ED800FB6103233B6205237B6207F11403194658
:102EE800054800F051FA00BF2837BD4680BD00BF35
:102EF80000300140003802400000024080B483B036
:102F080000AF00237B60104B5B6C0F4A43F4804397
:102F180053640D4B5B6C03F480437B607B68002338
:102F28003B60094B1B6C084A43F080531364064B03
:102F38001B6C03F080533B603B6800BF0C37BD46F9
:102F48005DF8047B704700BF0038024080B400AFD2
:102F580000BFFDE780B400AF00BFFDE780B400AF5D
:102F680000BFFDE780B400AF00BFFDE780B400AF4D
:102F780000BFFDE780B400AF00BFBD465DF8047B2D
:102F8800704780B400AF00BFBD465DF8047B704752
:102F980080B400AF00BFBD465DF8047B704780B5C4
:102FA80000AF00F09BF800BF80BD000080B500AF07
:102FB800024800F0FAFC00BF80BD00BF680700208F
:102FC80080B400AF064BD3F88830054A43F4700349
:102FD800C2F8883000BFBD465DF8047B704700BF6B
:102FE80000ED00E0DFF834D0FFF7EAFF0C480D49A8
:102FF8000D4A002302E0D458C4500433C4188C424C
:10300800F9D30A4A0A4C002301E013600432A242B1
:10301800FBD306F02FFDFFF737FE704700000220B4
:10302800000000200C010020B09D00080C010020C9
:10303800A40C0020FEE7000080B500AF0E4B1B6813
:103048000D4A43F4007313600B4B1B680A4A43F4A0
:1030580080631360084B1B68074A43F4807313604E
:10306800032000F04FF90F2000F008F8FFF746FFA3
:103078000023184680BD00BF003C024080B582B0E6
:1030880000AF7860124B1A68124B1B7819464FF440
:103098007A73B3FBF1F3B2FBF3F3184600F067F968
:1030A8000346002B01D001230EE07B680F2B0AD8C2
:1030B800002279684FF0FF3000F02FF9064A7B684C
:1030C8001360002300E0012318460837BD4680BD81
:1030D80000000020080000200400002080B400AF99
:1030E800064B1B781A46064B1B681344044A1360A8
:1030F80000BFBD465DF8047B704700BF0800002094
:103108008402002080B400AF034B1B681846BD46FC
:103118005DF8047B704700BF8402002080B584B04E
:1031280000AF7860FFF7EEFFB8607B68FB60FB6874
:10313800B3F1FF3F05D00A4B1B781A46FB681344CE
:10314800FB6000BFFFF7DEFF0246BB68D31AFA68D0
:103158009A42F7D800BF00BF1037BD4680BD00BFF8
:103168000800002080B485B000AF78607B6803F069
:103178000703FB600C4BDB68BB60BA684FF6FF03C4
:103188001340BB60FB681A02BB68134343F0BF637C
:1031980043F40033BB60044ABB68D36000BF1437F4
:1031A800BD465DF8047B704700ED00E080B400AFD9
:1031B800044BDB681B0A03F007031846BD465DF89D
:1031C800047B704700ED00E080B483B000AF034695
:1031D800FB7197F90730002B0BDBFB7903F01F021B
:1031E800074997F907305B09012000FA02F241F814
:1031F800232000BF0C37BD465DF8047B704700BF35
:1032080000E100E080B483B000AF03463960FB7191
:1032180097F90730002B0ADB3B68DAB20C4997F9BB
:1032280007301201D2B20B4483F800230AE03B684E
:10323800DAB20849FB7903F00F03043B1201D2B25A
:103248000B441A7600BF0C37BD465DF8047B704707
:1032580000E100E000ED00E080B489B000AFF86064
:10326800B9607A60FB6803F00703FB61FB69C3F18F
:103278000703042B28BF0423BB61FB690433062B17
:1032880002D9FB69033B00E000237B614FF0FF326A
:10329800BB6902FA03F3DA43BB681A407B699A40B8
:1032A8004FF0FF317B6901FA03F3D9437B680B4088
:1032B800134318462437BD465DF8047B7047000069
:1032C80080B582B000AF78607B68013BB3F1807F46
:1032D80001D301230FE00A4A7B68013B53600F21A9
:1032E8004FF0FF30FFF78EFF054B00229A60044B2A
:1032F80007221A60002318460837BD4680BD00BF64
:1033080010E000E080B582B000AF78607868FFF721
:1033180029FF00BF0837BD4680BD80B586B000AF25
:103328000346B9607A60FB7300237B61FFF73EFFB9
:1033380078617A68B9687869FFF78EFF024697F96D
:103348000F3011461846FFF75DFF00BF1837BD461E
:1033580080BD80B582B000AF0346FB7197F9073096
:103368001846FFF731FF00BF0837BD4680BD80B55E
:1033780082B000AF78607868FFF7A2FF034618466E
:103388000837BD4680BD000080B489B000AF7860C2
:10339800396000237B6100233B610023BB6100236C
:1033A800FB616BE10122FB6902FA03F37B613B6875
:1033B8001B687A6913403B613A697B699A4240F01D
:1033C8005A813B685B6803F00303012B05D03B6817
:1033D8005B6803F00303022B30D17B689B68BB61F9
:1033E800FB695B00032202FA03F3DB43BA6913406B
:1033F800BB613B68DA68FB695B0002FA03F3BA69F0
:103408001343BB617B68BA699A607B685B68BB6180
:103418000122FB6902FA03F3DB43BA691340BB617B
:103428003B685B681B0903F00102FB6902FA03F3BE
:10343800BA691343BB617B68BA695A603B685B68C9
:1034480003F00303032B17D07B68DB68BB61FB69C0
:103458005B00032202FA03F3DB43BA691340BB6142
:103468003B689A68FB695B0002FA03F3BA69134385
:10347800BB617B68BA69DA603B685B6803F0030389
:10348800022B23D1FB69DA087B68083253F8223013
:10349800BB61FB6903F007039B000F2202FA03F3E9
:1034A800DB43BA691340BB613B681A69FB6903F0E7
:1034B80007039B0002FA03F3BA691343BB61FB6974
:1034C800DA087B680832B96943F822107B681B6800
:1034D800BB61FB695B00032202FA03F3DB43BA69B1
:1034E8001340BB613B685B6803F00302FB695B0048
:1034F80002FA03F3BA691343BB617B68BA691A60BD
:103508003B685B6803F44033002B00F0B480002371
:10351800FB60604B5B6C5F4A43F4804353645D4BD4
:103528005B6C03F48043FB60FB685B4AFB699B08A8
:10353800023352F82330BB61FB6903F003039B009D
:103548000F2202FA03F3DB43BA691340BB617B68BD
:10355800524A93422BD07B68514A934225D07B68CC
:10356800504A93421FD07B684F4A934219D07B68D8
:103578004E4A934213D07B684D4A93420DD07B68E4
:103588004C4A934207D07B684B4A934201D10723A8
:103598000EE008230CE006230AE0052308E00423D4
:1035A80006E0032304E0022302E0012300E00023F5
:1035B800FA6902F0030292009340BA691343BB61AF
:1035C8003549FB699B080233BA6941F823203B4B14
:1035D8009B68BB613B69DB43BA691340BB613B68CD
:1035E8005B6803F48013002B03D0BA693B6913436B
:1035F800BB61324ABB699360304BDB68BB613B6996
:10360800DB43BA691340BB613B685B6803F4001392
:10361800002B03D0BA693B691343BB61274ABB69D6
:10362800D360264B5B68BB613B69DB43BA691340D7
:10363800BB613B685B6803F40033002B03D0BA69B5
:103648003B691343BB611D4ABB6953601B4B1B6835
:10365800BB613B69DB43BA691340BB613B685B688C
:1036680003F48033002B03D0BA693B691343BB6171
:10367800124ABB691360FB690133FB61FB690F2BBD
:103688007FF690AE00BF00BF2437BD465DF8047BCF
:10369800704700BF00380240003801400000024077
:1036A8000004024000080240000C024000100240E2
:1036B8000014024000180240001C0240003C014077
:1036C80080B485B000AF78600B467B807B681A6950
:1036D8007B881340002B02D00123FB7301E00023F9
:1036E800FB73FB7B18461437BD465DF8047B7047B7
:1036F80080B483B000AF78600B467B8013467B7044
:103708007B78002B03D07A887B689A6103E07B88FA
:103718001A047B689A6100BF0C37BD465DF8047BCC
:10372800704780B586B002AF78607B68002B01D106
:10373800012301E17B681B68BB607B6893F89534C3
:10374800DBB2002B06D17B68002283F894247868CA
:1037580005F078FE7B68032283F89524BB68B3F1F3
:10376800A04F02D17B6800229A717B681B681846BB
:1037780002F0EBFB7B6818687B681A7C8DF80020E8
:1037880004330ECB02F0CAFA0346002B05D07B683F
:10379800022283F895240123CEE07B681B68002170
:1037A800184602F0E3FB0346002B05D07B68022293
:1037B80083F895240123BFE00023FB734AE0FA7BDA
:1037C80079681346DB0013449B000B441533012230
:1037D8001A70FA7B79681346DB0013449B000B448C
:1037E8001433FA7B1A70FA7BFB7B98B2796813461C
:1037F800DB0013449B000B442E3302461A80FA7BED
:1038080079681346DB0013449B000B4418330022ED
:103818001A70FA7B79681346DB0013449B000B444B
:103828001C3300221A60FA7B79681346DB001344C4
:103838009B000B44203300221A60FA7B79681346F8
:10384800DB0013449B000B44243300221A60FB7BEB
:103858000133FB737B681B79FA7B9A42AFD3002351
:10386800FB7344E0FA7B79681346DB0013449B0042
:103878000B4403F2552300221A70FA7B7968134629
:10388800DB0013449B000B4403F51573FA7B1A7095
:10389800FA7B79681346DB0013449B000B4403F55D
:1038A800167300221A70FA7B79681346DB001344FA
:1038B8009B000B4403F5177300221A60FA7B7968A2
:1038C8001346DB0013449B000B4403F518730022D6
:1038D8001A60FA7B79681346DB0013449B000B449B
:1038E80003F5197300221A60FB7B0133FB737B68B5
:1038F8001B79FA7B9A42B5D37B6818687B681A7C77
:103908008DF8002004330ECB02F07CFB0346002B1D
:1039180005D07B68022283F8952401230CE07B689C
:1039280000225A747B68012283F895247B681B68FF
:10393800184603F0C6FB002318461037BD4680BD65
:1039480080B584B000AF78607B681B68FB607B68DB
:1039580093F89434012B01D1022322E07B680122E1
:1039680083F89424FB68DB6803F04003002B09D03C
:103978007B685B7B012B05D1FB689B6B43F4803232
:10398800FB689A637B681B68184602F0CDFA7B686F
:103998001B68184603F074FB7B68002283F89424A4
:1039A800002318461037BD4680BD90B58DB000AFD6
:1039B80078607B681B683B623B6AFB617B681B68BD
:1039C800184603F032FC0346002B40F08C847B68D9
:1039D8001B68184603F096FB0346002B00F0828410
:1039E800FB6903F500639B681B0AC3F30D027B6840
:1039F800C3F8D4247B681B68184603F083FB03468E
:103A080003F00203022B07D17B681B685A697B68A5
:103A18001B6802F002025A617B681B68184603F0B3
:103A280071FB034603F01003102B61D17B681B6800
:103A38009A697B681B6822F010029A613B6A1B6ACC
:103A4800BB61BB6903F00F021346DB0013449B0004
:103A580003F514737A68134404337B61BB695B0C08
:103A680003F00F03022B24D1BA6947F6F073134011
:103A7800002B35D07B69D968BB691B099BB2C3F39E
:103A88000A039BB21A46386A03F0A8F97B69DA6818
:103A9800BB691B09C3F30A031A447B69DA607B69B3
:103AA8005A69BB691B09C3F30A031A447B695A6143
:103AB80016E0BB695B0C03F00F03062B10D17B6883
:103AC80003F29C4308221946386A03F087F97B6998
:103AD8005A69BB691B09C3F30A031A447B695A6113
:103AE8007B681B689A697B681B6842F010029A61C0
:103AF8007B681B68184603F005FB034603F40023A4
:103B0800B3F5002F40F0A78000237B627B681B6819
:103B1800184603F00AFBB86299E0BB6A03F0010398
:103B2800002B00F08E807B681B687A6AD2B211463F
:103B3800184603F02EFB38613B6903F00103002BA4
:103B48000CD07B6A5A01FB69134403F530631A46AB
:103B580001239360796A786800F08CFE3B6903F072
:103B68000803002B0CD07B6A5A01FB69134403F548
:103B780030631A4608239360796A786800F062FF18
:103B88003B6903F01003002B08D07B6A5A01FB69DC
:103B9800134403F530631A46102393603B6903F01E
:103BA8000203002B30D03B6A5B6903F08003802B53
:103BB80009D1FB6903F500635B68FA6902F50062E5
:103BC80043F4806353607A6A1346DB0013449B0016
:103BD80003F514737A68134404337B617B69DB78DB
:103BE800012B08D17B690022DA707B6ADBB21946A7
:103BF800786805F03BFD7B6A5A01FB69134403F5BD
:103C080030631A46022393603B6903F02003002BBC
:103C180008D07B6A5A01FB69134403F530631A46DE
:103C2800202393603B6903F40053002B09D07B6A7F
:103C38005A01FB69134403F530631A464FF40053E5
:103C480093607B6A01337B62BB6A5B08BB62BB6AB9
:103C5800002B7FF462AF7B681B68184603F052FAAA
:103C6800034603F48023B3F5802F40F0DB807B68A4
:103C78001B68184603F073FAB86200237B62CDE034
:103C8800BB6A03F00103002B00F0C2807B681B684D
:103C98007A6AD2B21146184603F099FA38613B693C
:103CA80003F00103002B57D07B6A03F00F030122B6
:103CB80002FA03F3FB60FB6903F500635A6BFB68C8
:103CC800DB43F96901F5006113404B637B6A5A01D4
:103CD800FB69134403F510631A46012393607B685C
:103CE8009B79012B32D179687A6A1346DB00134439
:103CF8009B000B442033196878687A6A1346DB0006
:103D080013449B0003441C331B68194478687A6A7F
:103D18001346DB0013449B000344203319607B6A7D
:103D2800002B13D179687A6A1346DB0013449B0091
:103D38000B4424331B68002B08D17B6818687B6808
:103D480003F29C431A46012103F0A0FA7B6ADBB216
:103D58001946786805F005FC3B6903F00803002B59
:103D680008D07B6A5A01FB69134403F510631A46AD
:103D7800082393603B6903F01003002B08D07B6A8B
:103D88005A01FB69134403F510631A461023936024
:103D98003B6903F04003002B08D07B6A5A01FB699A
:103DA800134403F510631A46402393603B6903F0FC
:103DB8000203002B23D0796A386A02F087FA7A6AFC
:103DC8001346DB0013449B0010337A681344043312
:103DD8007B617B69DB78012B08D17B690022DA7073
:103DE8007B6ADBB21946786805F052FC7B6A5A0197
:103DF800FB69134403F510631A46022393603B6979
:103E080003F08003002B03D0796A786800F0A5FCE2
:103E18007B6A01337B62BB6A5B08BB62BB6A002BAF
:103E28007FF42EAF7B681B68184603F06BF90346D6
:103E380003F00043B3F1004F22D1FB6903F500639F
:103E48005B68FA6902F5006223F0010353607B683E
:103E580093F8CC34012B08D17B68002283F8CC245A
:103E68000021786800F08CFE02E0786805F0F0FB2D
:103E78007B681B685A697B681B6802F000425A61BC
:103E88007B681B68184603F03DF9034603F400639A
:103E9800B3F5006F12D1FB6903F500639B6803F06B
:103EA8000103012B02D1786805F0ACFB7B681B6825
:103EB8005A697B681B6802F400625A617B681B6858
:103EC800184603F01FF9034603F48053B3F5805FE7
:103ED80040F0B780FB6903F500635B68FA6902F597
:103EE800006223F0010353607B681B6810211846A9
:103EF80002F0ECF90023FB6246E0FB6A5A01FB6919
:103F0800134403F510631A464FF67F339360FB6A38
:103F18005A01FB69134403F510631B68FA6A5101DF
:103F2800FA690A4402F5106223F400131360FB6A6D
:103F38005A01FB69134403F530631A464FF67F3381
:103F48009360FB6A5A01FB69134403F530631B68ED
:103F5800FA6A5101FA690A4402F5306223F400133F
:103F68001360FB6A5A01FB69134403F530631B684D
:103F7800FA6A5101FA690A4402F5306243F00063B3
:103F88001360FB6A0133FB627B681B791A46FB6A84
:103F98009342B2D3FB6903F50063DB69FA6902F562
:103FA800006243F00113D3617B68DB7B002B16D0E2
:103FB800FB6903F50063D3F88430FA6902F50062FF
:103FC80043F00B03C2F88430FB6903F500635B6CB4
:103FD800FA6902F5006243F00B03536415E0FB69CC
:103FE80003F500635B69FA6902F5006243F4005364
:103FF80043F02B035361FB6903F500631B69FA69FE
:1040080002F5006243F00B031361FB6903F50063DB
:104018001B68FA6902F5006223F4FE6313607B688B
:1040280018687B6899797B6803F29C431A4603F009
:104038002DF97B681B685A697B681B6802F48052FB
:104048005A617B681B68184603F05CF8034603F462
:104058000053B3F5005F23D17B681B68184603F053
:10406800F2F87B681B68184602F0A9F903461A465D
:104078007B68DA717B681C6801F0F2F901467B689D
:10408800DB791A46204601F0ADFE786805F091FA12
:104098007B681B685A697B681B6802F400525A6186
:1040A8007B681B68184603F02DF8034603F00803E5
:1040B800082B0AD1786805F06EFA7B681B685A6984
:1040C8007B681B6802F008025A617B681B68184607
:1040D80003F018F8034603F08003802B23D13B6AD2
:1040E8009B6923F080023B6A9A6101237B6214E09A
:1040F80079687A6A1346DB0013449B000B4403F289
:1041080057231B78012B05D17B6ADBB219467868E7
:1041180000F0F2FA7B6A01337B627B681B791A46EE
:104128007B6A9342E4D37B681B68184602F0EAFF77
:10413800034603F48013B3F5801F3CD101237B624F
:104148002BE07B6A5A01FB69134403F510631B6873
:10415800BB6179687A6A1346DB0013449B000B4401
:1041680018331B78012B15D1BB69002B12DA79683B
:104178007A6A1346DB0013449B000B441733012271
:104188001A707B6ADBB263F07F03DBB2194678688A
:1041980000F0B2FA7B6A01337B627B681B791A46AE
:1041A8007B6A9342CDD37B681B685A697B681B681E
:1041B80002F480125A617B681B68184602F0A2FF5D
:1041C800034603F40013B3F5001F56D101237B62A5
:1041D80045E07B6A5A01FB69134403F530631B68A9
:1041E800BB6179687A6A1346DB0013449B000B4471
:1041F80003F516731B78012B2ED1BB69002B2BDA24
:10420800BB6903F480327B68D3F8D43403F001032C
:104218009A4221D179687A6A1346DB0013449B00DD
:104228000B4403F2572301221A703B6A9B6943F03F
:1042380080023B6A9A613B6A5B6903F08003002B4A
:104248000AD1FB6903F500635B68FA6902F500624D
:1042580043F40073536008E07B6A01337B627B6838
:104268001B791A467B6A9342B3D37B681B685A69E9
:104278007B681B6802F400125A617B681B68184649
:1042880002F040FF034603F08043B3F1804F0AD1A8
:10429800786805F00FFA7B681B685A697B681B68A9
:1042A80002F080425A617B681B68184602F02AFFB8
:1042B800034603F00403042B15D17B681B685B6875
:1042C800BB61BB6903F00403002B02D0786805F0DA
:1042D800FFF97B681B6859687B681B68BA690A43E1
:1042E8005A6000E000BF3437BD4690BD80B582B04B
:1042F80000AF78600B46FB707B6893F89434012B11
:1043080001D1022312E07B68012283F894247B68A0
:10431800FA785A747B681B68FA781146184602F0D6
:1043280089FE7B68002283F8942400231846083706
:10433800BD4680BD80B584B000AF786008461146A0
:104348001A460346FB700B463B801346BB7000239E
:10435800FB7297F90330002B0FDAFB7803F00F029A
:104368001346DB0013449B0010337A68134404336C
:10437800FB60FB6801225A700FE0FB7803F00F0224
:104388001346DB0013449B0003F514737A68134447
:104398000433FB60FB6800225A70FB7803F00F03BC
:1043A800DAB2FB681A703B88C3F30A02FB689A60AA
:1043B800FB68BA781A71FB685B78002B04D0FB683D
:1043C8001B781A46FB685A83BB78022B02D1FB681C
:1043D80000225A717B6893F89434012B01D102238F
:1043E8000EE07B68012283F894247B681B68F968D7
:1043F800184602F009F87B68002283F89424FB7AB7
:1044080018461037BD4680BD80B584B000AF7860CF
:104418000B46FB7097F90330002B0FDAFB7803F09B
:104428000F021346DB0013449B0010337A681344D1
:104438000433FB60FB6801225A700FE0FB7803F03D
:104448000F021346DB0013449B0003F514737A68CC
:1044580013440433FB60FB6800225A70FB7803F0B6
:104468000F03DAB2FB681A707B6893F89434012B57
:1044780001D102230EE07B68012283F894247B6833
:104488001B68F968184602F047F87B68002283F831
:104498009424002318461037BD4680BD80B586B0E9
:1044A80000AFF8607A603B600B46FB72FB7A03F062
:1044B8000F021346DB0013449B0003F51473FA68DC
:1044C800134404337B617B697A68DA607B693A68F4
:1044D8001A617B6900225A617B6900225A70FB7A53
:1044E80003F00F03DAB27B691A70FB689B79012B22
:1044F80002D17A687B69DA61FB681868FB689B7986
:104508001A46796902F0E4F8002318461837BD46C0
:1045180080BD80B586B000AFF8607A603B600B461E
:10452800FB72FB7A03F00F021346DB0013449B0077
:104538001033FA68134404337B617B697A68DA6064
:104548007B693A681A617B6900225A617B6901229A
:104558005A70FB7A03F00F03DAB27B691A70FB68B2
:104568009B79012B02D17A687B69DA61FB6818684C
:10457800FB689B791A46796902F0AAF80023184665
:104588001837BD4680BD80B584B000AF78600B4653
:10459800FB70FB7803F00F037A681279934201D914
:1045A80001234FE097F90330002B0FDAFB7803F073
:1045B8000F021346DB0013449B0010337A68134440
:1045C8000433FB60FB6801225A700DE0FA78134649
:1045D800DB0013449B0003F514737A681344043317
:1045E800FB60FB6800225A70FB6801229A70FB7816
:1045F80003F00F03DAB2FB681A707B6893F89434FF
:10460800012B01D102231DE07B68012283F8942449
:104618007B681B68F968184602F038FCFB7803F0E1
:104628000F03002B09D17B6818687B6899797B6830
:1046380003F29C431A4602F029FE7B68002283F8A5
:104648009424002318461037BD4680BD80B584B039
:1046580000AF78600B46FB70FB7803F00F037A68B5
:104668001279934201D9012342E097F90330002BD4
:104678000FDAFB7803F00F021346DB0013449B00AC
:1046880010337A6813440433FB60FB6801225A70C4
:104698000FE0FB7803F00F021346DB0013449B0086
:1046A80003F514737A6813440433FB60FB68002233
:1046B8005A70FB6800229A70FB7803F00F03DAB295
:1046C800FB681A707B6893F89434012B01D102239C
:1046D8000EE07B68012283F894247B681B68F968E4
:1046E800184602F041FC7B68002283F894240023DA
:1046F80018461037BD4680BD80B584B000AF7860DD
:104708000B46FB7097F90330002B0CDAFB7803F0AB
:104718000F021346DB0013449B0010337A681344DE
:104728000433FB600CE0FB7803F00F021346DB0058
:1047380013449B0003F514737A6813440433FB6035
:104748007B681B68F968184602F060FA0346FB723A
:10475800FB7A18461037BD4680BD80B58AB002AFD7
:10476800786039607B681B687B617B693B613A686C
:104778001346DB0013449B0010337A681344043358
:10478800FB60FB685A69FB681B699A4201D90123DF
:104798006BE0FB681A69FB685B69D31AFB61FB680D
:1047A8009B68FA699A4202D9FB689B68FB61FB69BE
:1047B80003339B08BB612AE0FB681A69FB685B69E5
:1047C800D31AFB61FB689B68FA699A4202D9FB68B5
:1047D8009B68FB61FB6903339B08BB61FB68D96875
:1047E8003B68DAB2FB6998B27B689B790093034611
:1047F800786902F0B5FAFB68DA68FB691A44FB6865
:10480800DA60FB685A69FB691A44FB685A613B68BD
:104818005A013B69134403F510639B699BB2BA695B
:104828009A4209D8FB685A69FB681B699A4203D205
:10483800FB681B69002BBFD1FB681A69FB685B69C1
:104848009A4211D83B6803F00F03012202FA03F3DE
:10485800BB603B6903F500635A6BBB68DB4339698E
:1048680001F5006113404B63002318462037BD460D
:1048780080BD000080B588B000AF786039607B6883
:104888001B68FB61FB69BB61FB693C3304331B6834
:104898007B613B685A01BB69134403F530639B682D
:1048A8003B617B689B79012B7BD13B6903F0080353
:1048B800002B15D07B69614A934240F2B9803B696D
:1048C80003F40043002B00F0B3803B685A01BB6936
:1048D800134403F530631A464FF400439360A7E08E
:1048E8003B6903F02003002B09D03B685A01BB69E0
:1048F800134403F530631A462023936098E03B691C
:1049080003F02803002B40F093807B694B4A9342C5
:104918000FD93B6903F40043002B0AD03B685A01C6
:10492800BB69134403F530631A464FF400439360A0
:104938007EE03A681346DB0013449B0003F51473CA
:104948007A6813440433FB60FB681A6A3B685901B0
:10495800BB690B4403F530631B69C3F31203D21A16
:10496800FB685A613B68002B14D1FB681B69002B5C
:1049780009D17B6818687B6803F29C431A460121B9
:1049880002F084FC06E0FB68DA68FB685B691A449D
:10499800FB68DA603B68DBB21946786804F0C6FD4C
:1049A80046E07B69264A934224D13B6903F40043DD
:1049B800002B0AD03B685A01BB69134403F53063E6
:1049C8001A464FF40043936032E03B6903F020033A
:1049D800002B08D03B685A01BB69134403F53063C8
:1049E8001A46202393603B68DBB21946786804F0C6
:1049F8009DFD1DE03B68002B14D179683A68134689
:104A0800DB0013449B000B4403F519731B68002B50
:104A180008D17B6818687B6803F29C431A4600211A
:104A280002F034FC3B68DBB21946786804F07EFD7E
:104A3800002318462037BD4680BD00BF0A30544FBA
:104A48000A31544F80B586B000AF786039607B6812
:104A58001B687B617B693B617B693C3304331B6862
:104A6800FB603B685A013B69134403F530639B685C
:104A7800BB60FB68154A93420ED9BB6803F4004338
:104A8800002B09D03B685A013B69134403F5306396
:104A98001A464FF400439360786804F035FDFB68CC
:104AA8000A4A93420CD97B689B79012B08D17B6811
:104AB80018687B6803F29C431A46012102F0E6FB62
:104AC800002318461837BD4680BD00BF0A30544F32
:104AD80080B485B000AF78600B46FB7013463B800E
:104AE8007B681B685B6ABB60FB78002B07D13B883F
:104AF80019047B681B68BA680A439A6228E07B68D5
:104B08001B689B6A1B0CBA681344BB600023FB73C9
:104B18000DE07B681A68FB7B40339B0013445B689D
:104B28001B0CBA681344BB60FB7B0133FB73FA7B35
:104B3800FB78013B9A42ECD33B8818047B681968E0
:104B4800FB78013BBA68024340339B000B445A6030
:104B5800002318461437BD465DF8047B704780B4BF
:104B680083B000AF78600B467B807B681B687A88CF
:104B78005A62002318460C37BD465DF8047B70471F
:104B880080B483B000AF78600B46FB7000BF0C3771
:104B9800BD465DF8047B704780B586B000AF78608D
:104BA8007B68002B01D1012367E27B681B6803F057
:104BB8000103002B75D0884B9B6803F00C03042B72
:104BC8000CD0854B9B6803F00C03082B12D1824B49
:104BD8005B6803F48003B3F5800F0BD17E4B1B6831
:104BE80003F40033002B5BD07B685B68002B57D144
:104BF800012342E27B685B68B3F5803F06D1764BC0
:104C08001B68754A43F4803313601DE07B685B685A
:104C1800B3F5A02F0CD1704B1B686F4A43F4802367
:104C280013606D4B1B686C4A43F4803313600BE0D0
:104C3800694B1B68684A23F480331360664B1B6812
:104C4800654A23F4802313607B685B68002B13D0CC
:104C5800FEF758FA386108E0FEF754FA02463B6955
:104C6800D31A642B01D9032307E25B4B1B6803F4B7
:104C78000033002BF0D014E0FEF744FA386108E066
:104C8800FEF740FA02463B69D31A642B01D9032385
:104C9800F3E1514B1B6803F40033002BF0D100E023
:104CA80000BF7B681B6803F00203002B63D04A4BEC
:104CB8009B6803F00C03002B0BD0474B9B6803F059
:104CC8000C03082B1CD1444B5B6803F48003002BB6
:104CD80016D1414B1B6803F00203002B05D07B68FB
:104CE800DB68012B01D00123C7E13B4B1B6823F094
:104CF800F8027B681B69DB00374913430B603AE015
:104D08007B68DB68002B20D0344B01221A60FEF749
:104D1800F9F9386108E0FEF7F5F902463B69D31A5C
:104D2800022B01D90323A8E12B4B1B6803F00203D4
:104D3800002BF0D0284B1B6823F0F8027B681B6916
:104D4800DB00254913430B6015E0244B00221A6051
:104D5800FEF7D8F9386108E0FEF7D4F902463B6956
:104D6800D31A022B01D9032387E11B4B1B6803F0DD
:104D78000203002BF0D17B681B6803F00803002BAB
:104D880036D07B685B69002B16D0154B01221A6060
:104D9800FEF7B8F9386108E0FEF7B4F902463B6956
:104DA800D31A022B01D9032367E10B4B5B6F03F086
:104DB8000203002BF0D01BE0094B00221A60FEF71B
:104DC800A1F938610EE0FEF79DF902463B69D31A56
:104DD800022B07D9032350E1003802400000474264
:104DE800800E4742884B5B6F03F00203002BEAD129
:104DF8007B681B6803F00403002B00F097800023F6
:104E0800FB75814B1B6C03F08053002B0FD10023E3
:104E1800BB607D4B1B6C7C4A43F0805313647A4B18
:104E28001B6C03F08053BB60BB680123FB75774B99
:104E38001B6803F48073002B18D1744B1B68734AEA
:104E480043F480731360FEF75DF9386108E0FEF7FC
:104E580059F902463B69D31A022B01D903230CE105
:104E68006A4B1B6803F48073002BF0D07B689B6847
:104E7800012B06D1644B1B6F634A43F00103136790
:104E88001CE07B689B68052B0CD15F4B1B6F5E4A4F
:104E980043F0040313675C4B1B6F5B4A43F0010349
:104EA80013670BE0584B1B6F574A23F00103136736
:104EB800554B1B6F544A23F0040313677B689B68A8
:104EC800002B15D0FEF71EF938610AE0FEF71AF933
:104ED80002463B69D31A41F28832934201D903232F
:104EE800CBE0494B1B6F03F00203002BEED014E01C
:104EF800FEF708F938610AE0FEF704F902463B6953
:104F0800D31A41F28832934201D90323B5E03E4BCC
:104F18001B6F03F00203002BEED1FB7D012B05D1A3
:104F2800394B1B6C384A23F0805313647B689B69A8
:104F3800002B00F0A180344B9B6803F00C03082B76
:104F48005CD07B689B69022B41D1314B00221A60EF
:104F5800FEF7D8F8386108E0FEF7D4F802463B6956
:104F6800D31A022B01D9032387E0274B1B6803F0D0
:104F78000073002BF0D17B68DA697B681B6A1A43DF
:104F88007B685B6A9B011A437B689B6A5B08013BF1
:104F98001B041A437B68DB6A1B061B4913434B60DF
:104FA8001B4B01221A60FEF7ADF8386108E0FEF7E6
:104FB800A9F802463B69D31A022B01D903235CE006
:104FC800114B1B6803F00073002BF0D054E0104B1A
:104FD80000221A60FEF796F8386108E0FEF792F8AA
:104FE80002463B69D31A022B01D9032345E0064B3D
:104FF8001B6803F00073002BF0D13DE07B689B69D0
:10500800012B07D1012338E000380240007000402E
:10501800600047421B4B5B68FB607B689B69012B08
:1050280028D0FB6803F480027B68DB699A4221D1AF
:10503800FB6803F03F027B681B6A9A421AD1FA6840
:1050480047F6C07313407A68526A9201934211D1AD
:10505800FB6803F440327B689B6A5B08013B1B04D6
:105068009A4207D1FB6803F070627B68DB6A1B0613
:105078009A4201D0012300E0002318461837BD46A4
:1050880080BD00BF0038024080B584B000AF7860B2
:1050980039607B68002B01D10123CCE0684B1B6889
:1050A80003F007033A689A420CD9654B3A68D2B2C2
:1050B8001A70634B1B6803F007033A689A4201D0E1
:1050C8000123B8E07B681B6803F00203002B20D0A3
:1050D8007B681B6803F00403002B05D0594B9B68C1
:1050E800584A43F4E05393607B681B6803F0080355
:1050F800002B05D0534B9B68524A43F4604393609E
:10510800504B9B6823F0F0027B689B684D49134322
:105118008B607B681B6803F00103002B44D07B681D
:105128005B68012B07D1474B1B6803F40033002B46
:1051380019D101237FE07B685B68022B03D07B6871
:105148005B68032B07D13F4B1B6803F00073002BF0
:1051580009D101236FE03B4B1B6803F00203002BCE
:1051680001D1012367E0374B9B6823F003027B687A
:105178005B68344913438B60FDF7C4FFF8600AE0AD
:10518800FDF7C0FF0246FB68D31A41F2883293420A
:1051980001D903234FE02B4B9B6803F00C027B687B
:1051A8005B689B009A42EBD1254B1B6803F0070311
:1051B8003A689A420CD2224B3A68D2B21A70204B03
:1051C8001B6803F007033A689A4201D0012332E0D2
:1051D8007B681B6803F00403002B08D0194B9B68FD
:1051E80023F4E0527B68DB68164913438B607B68C5
:1051F8001B6803F00803002B09D0124B9B6823F4AB
:1052080060427B681B69DB000E4913438B6000F02A
:1052180021F802460B4B9B681B0903F00F030A4950
:10522800CB5C22FA03F3094A1360094B1B68184642
:10523800FDF724FF002318461037BD4680BD00BF88
:10524800003C0240003802408C9D0008000000200D
:10525800040000202DE9B04F94B000AF00237B6418
:105268000023FB6400233B640023BB64794B9B68E9
:1052780003F00C03082B0DD0082B00F2E180002B63
:1052880002D0042B03D0DBE0734BBB64DBE0734B31
:10529800BB64D8E06F4B5B6803F03F037B646D4BE6
:1052A8005B6803F48003002B63D06A4B5B689B093F
:1052B8000022BB63FA63BB6BC3F308033B630023A1
:1052C8007B63D7E90C4522462B464FF000004FF090
:1052D8000001590141EAD261500102460B462146BC
:1052E800511A3961294663EB01037B614FF00002D3
:1052F8004FF00003D7E904AB59468B01514643EA06
:10530800916351468A015146B2EB0108594663EB55
:1053180001094FF000024FF000034FEAC90343EAC6
:1053280058734FEAC80290469946234618EB030380
:10533800BB602B4649EB0303FB604FF000024FF0C4
:105348000003D7E9024529464B02214643EAD153D7
:1053580021464A02104619467B6C0022BB62FA625B
:10536800D7E90A23FBF722FB02460B461346FB64E8
:1053780058E0384B5B689B09002218461146C0F379
:1053880008033B6200237B62D7E9088942464B4603
:105398004FF000004FF00001590141EAD26150017D
:1053A80002460B464146B2EB010A494663EB010B44
:1053B8004FF000024FF000034FEA8B1343EA9A6361
:1053C8004FEA8A12B2EB0A0463EB0B054FF00002B6
:1053D8004FF00003EB0043EA5473E20014461D4605
:1053E8004346E3183B604B4645EB03037B604FF0B5
:1053F80000024FF00003D7E9004529468B022146F9
:1054080043EA915321468A02104619467B6C0022D2
:10541800BB61FA61D7E90623FBF7C8FA02460B46D7
:105428001346FB640B4B5B681B0C03F0030301334F
:105438005B003B64FA6C3B6CB2FBF3F3BB6402E0C9
:10544800054BBB6400BFBB6C18465037BD46BDE872
:10545800B08F00BF003802400024F40000127A0028
:1054680080B400AF034B1B681846BD465DF8047B4B
:10547800704700BF0000002080B582B000AF7860A0
:105488007B68002B01D101237BE07B685B6A002BE2
:1054980008D17B685B68B3F5827F09D07B680022FE
:1054A800DA6105E07B6800221A617B6800225A6194
:1054B8007B6800229A627B6893F85130DBB2002B3C
:1054C80006D17B68002283F850207868FDF7CEFC6F
:1054D8007B68022283F851207B681B681A687B6806
:1054E8001B6822F040021A607B685B6803F48272D2
:1054F8007B689B6803F404431A437B68DB6803F406
:1055080000631A437B681B6903F002031A437B6834
:105518005B6903F001031A437B689B6903F400731A
:105528001A437B68DB6903F038031A437B681B6AFC
:1055380003F0800342EA03017B689B6A03F400528C
:105548007B681B680A431A607B689B691B0C03F025
:1055580004017B685B6A03F010027B681B680A43DE
:105568005A607B681B68DA697B681B6822F40062F2
:10557800DA617B6800225A657B68012283F8512032
:10558800002318460837BD4680BD80B588B000AFF7
:10559800F860B9603B601346FB80FDF7B3FDF86126
:1055A800FB887B83FB6893F85130DBB2012B01D079
:1055B80002232AE1BB68002B02D0FB88002B01D113
:1055C800012322E1FB6893F85030012B01D102231B
:1055D8001BE1FB68012283F85020FB68032283F853
:1055E8005120FB6800225A65FB68BA681A63FB6899
:1055F800FA889A86FB68FA88DA86FB6800229A633A
:10560800FB6800229A87FB680022DA87FB68002281
:105618005A64FB6800221A64FB689B68B3F5004F64
:105628000FD1FB681B681A68FB681B6822F04002F0
:105638001A60FB681B681A68FB681B6842F48042A2
:105648001A60FB681B681B6803F04003402B07D0F7
:10565800FB681B681A68FB681B6842F040021A6006
:10566800FB68DB68B3F5006F52D1FB685B68002B01
:1056780002D07B8B012B45D1FB681B6B1A88FB681A
:105688001B68DA60FB681B6B9A1CFB681A63FB6873
:10569800DB8E9BB2013B9AB2FB68DA8632E0FB688C
:1056A8001B689B6803F00203022B12D1FB681B6B7B
:1056B8001A88FB681B68DA60FB681B6B9A1CFB681E
:1056C8001A63FB68DB8E9BB2013B9AB2FB68DA86F1
:1056D80018E0FDF717FD0246FB69D31A3A689A42AB
:1056E80003D83B68B3F1FF3F02D13B68002B09D1D7
:1056F800FB68012283F85120FB68002283F85020C0
:10570800032382E0FB68DB8E9BB2002BC7D153E0FA
:10571800FB685B68002B02D07B8B012B47D1FB68B1
:105728001A6BFB681B680C3312781A70FB681B6BCA
:105738005A1CFB681A63FB68DB8E9BB2013B9AB26A
:10574800FB68DA8633E0FB681B689B6803F002039A
:10575800022B13D1FB681A6BFB681B680C33127899
:105768001A70FB681B6B5A1CFB681A63FB68DB8E9C
:105778009BB2013B9AB2FB68DA8618E0FDF7C2FCDF
:105788000246FB69D31A3A689A4203D83B68B3F1D8
:10579800FF3F02D13B68002B09D1FB68012283F847
:1057A8005120FB68002283F8502003232DE0FB687A
:1057B800DB8E9BB2002BC6D1FA693968F86800F015
:1057C80059FA0346002B02D0FB6820225A65FB6871
:1057D8009B68002B0AD100237B61FB681B68DB6890
:1057E8007B61FB681B689B687B617B69FB680122A6
:1057F80083F85120FB68002283F85020FB685B6D1A
:10580800002B01D0012300E0002318462037BD46B5
:1058180080BD80B58AB000AFF860B9607A607B80DF
:1058280001237B62FDF76EFC3862FB6893F8513008
:10583800FB77FB685B68BB617B88FB82FB7F012B86
:105848000CD0BB69B3F5827F06D1FB689B68002B3F
:1058580002D1FB7F042B01D002237FE1BB68002B20
:1058680005D07B68002B02D07B88002B01D1012357
:1058780074E1FB6893F85030012B01D102236DE1EC
:10588800FB68012283F85020FB6893F85130DBB2A3
:10589800042B03D0FB68052283F85120FB68002203
:1058A8005A65FB687A689A63FB687A88DA87FB68C6
:1058B8007A889A87FB68BA681A63FB687A88DA86F6
:1058C800FB687A889A86FB6800221A64FB680022C3
:1058D8005A64FB681B681B6803F04003402B07D021
:1058E800FB681B681A68FB681B6842F040021A6074
:1058F800FB68DB68B3F5006F7ED1FB685B68002B43
:1059080002D0FB8A012B6CD1FB681B6B1A88FB68E1
:105918001B68DA60FB681B6B9A1CFB681A63FB68E0
:10592800DB8E9BB2013B9AB2FB68DA8659E0FB68D2
:105938001B689B6803F00203022B1BD1FB68DB8EFC
:105948009BB2002B16D07B6A012B13D1FB681B6B13
:105958001A88FB681B68DA60FB681B6B9A1CFB687B
:105968001A63FB68DB8E9BB2013B9AB2FB68DA864E
:1059780000237B62FB681B689B6803F00103012B13
:1059880019D1FB68DB8F9BB2002B14D0FB681B6816
:10599800DA68FB689B6B92B21A80FB689B6B9A1C57
:1059A800FB689A63FB68DB8F9BB2013B9AB2FB688A
:1059B800DA8701237B62FDF7A5FB02463B6AD31A0F
:1059C8003A6B9A420DD83B6BB3F1FF3F09D0FB68A5
:1059D800012283F85120FB68002283F8502003231A
:1059E800BCE0FB68DB8E9BB2002BA0D1FB68DB8F91
:1059F8009BB2002B9BD182E0FB685B68002B02D036
:105A0800FB8A012B71D1FB681A6BFB681B680C338E
:105A180012781A70FB681B6B5A1CFB681A63FB68C8
:105A2800DB8E9BB2013B9AB2FB68DA865DE0FB68CD
:105A38001B689B6803F00203022B1CD1FB68DB8EFA
:105A48009BB2002B17D07B6A012B14D1FB681A6B11
:105A5800FB681B680C3312781A70FB681B6B5A1CA6
:105A6800FB681A63FB68DB8E9BB2013B9AB2FB684A
:105A7800DA8600237B62FB681B689B6803F00103DE
:105A8800012B19D1FB68DB8F9BB2002B14D0FB686C
:105A98001B68DA68FB689B6BD2B21A70FB689B6B59
:105AA8005A1CFB689A63FB68DB8F9BB2013B9AB276
:105AB800FB68DA8701237B62FDF724FB02463B6A19
:105AC800D31A3A6B9A4203D83B6BB3F1FF3F02D12A
