:020000040800F2
:10000000000002206D27000849260008512600083C
:100010005926000861260008692600080000000033
:100020000000000000000000000000007126000831
:100030007F260008000000008D2600089B2600088F
:10004000BD270008BD270008BD270008BD27000800
:10005000BD270008BD270008BD270008BD270008F0
:10006000BD270008BD270008BD270008BD270008E0
:10007000BD270008BD270008BD270008BD270008D0
:10008000BD270008BD270008BD270008BD270008C0
:10009000BD270008BD270008BD270008BD270008B0
:1000A000BD270008BD270008BD270008BD270008A0
:1000B000BD270008BD270008BD270008BD27000890
:1000C000BD270008BD270008BD270008BD27000880
:1000D000BD270008BD270008BD270008BD27000870
:1000E000BD270008BD270008BD270008BD27000860
:1000F000BD270008BD270008BD270008BD27000850
:10010000BD270008BD270008BD270008BD2700083F
:10011000BD270008BD270008BD270008BD2700082F
:10012000BD270008BD270008BD270008BD2700081F
:10013000BD270008BD270008BD270008BD2700080F
:10014000BD270008BD270008BD270008A926000814
:10015000BD270008BD270008BD270008BD270008EF
:10016000BD270008BD270008BD270008BD270008DF
:10017000BD270008BD270008BD27000800000000BB
:08018000BD270008BD2700089F
:1001880010B5054C237833B9044B13B10448AFF3C9
:1001980000800123237010BD0C0100200000000026
:1001A8005C94000808B5034B1BB103490348AFF33F
:1001B800008008BD00000000100100205C940008C9
:1001C80053B94AB9002908BF00281CBF4FF0FF31B6
:1001D8004FF0FF3000F06AB9ADF1080C6DE904CEBC
:1001E80000F006F8DDF804E0DDE9022304B070470A
:1001F8002DE9F047089D0C46002B4ED194468C45BE
:100208008646B2FA82F262D94AB1C2F1200391401D
:1002180020FA03F30CFA02FC194300FA02FE4FEA33
:100228001C471FFA8CF6B1FBF7F44FEA1E4307FB95
:10023800141143EA014304FB06F199420AD91CEB65
:10024800030304F1FF3080F01281994240F20F81DC
:10025800023C6344591A1FFA8EF3B1FBF7F007FB0F
:10026800101143EA014300FB06F69E420AD91CEB33
:10027800030300F1FF3180F0FC809E4240F2F980D8
:10028800634402389B1B40EA044000211DB1D3405F
:100298000022C5E90032BDE8F0878B4205D90DB1CF
:1002A800C5E9000100210846F5E7B3FA83F1002902
:1002B80046D1A34202D39042C0F0F080861A64EB84
:1002C80003030120002DE6D0C5E90063E3E7002A17
:1002D80040F09080A1EB0C044FEA1C481FFA8CF701
:1002E8000121B4FBF8F64FEA1E4308FB164443EA23
:1002F800044307FB06F0984208D91CEB030306F1F8
:10030800FF3402D2984200F2CD8026461C1A1FFA0A
:100318008EF3B4FBF8F008FB104443EA044300FBF7
:1003280007F79F4208D91CEB030300F1FF3402D200
:100338009F4200F2B0802046DB1B40EA0640A5E75A
:10034800C1F120068B4022FA06F71F4320FA06FC6B
:1003580004FA01F343EA0C03F44000FA01F8380CFC
:100368004FEA1349B4FBF0FE1FFA87FC00FB1E445A
:1003780049EA04440EFB0CF9A14502FA01F20AD934
:100388003C190EF1FF3A80F08480A14540F281804B
:10039800AEF1020E3C44A4EB09041FFA83F9B4FB46
:1003A800F0F300FB134449EA044403FB0CFCA445A6
:1003B80007D93C1903F1FF3067D2A44565D9023B40
:1003C8003C4443EA0E40A0FB0293A4EB0C049C427D
:1003D800CE469C4651D34ED055B1B8EB0E0364EBD4
:1003E8000C0404FA06F6CB401E43CC40C5E9006471
:1003F800002150E7C2F1200320FA03F10CFA02FCB5
:1004080024FA03F394400C434FEA1C4800FA02FE16
:100418001FFA8CF7B3FBF8F008FB1031230C43EA02
:10042800014300FB07F1994208D91CEB030300F1D3
:10043800FF362CD299422AD9023863445B1AA4B2F7
:10044800B3FBF8F108FB113344EA034401FB07F35B
:10045800A34208D91CEB040401F1FF3613D2A342CE
:1004680011D902396444E41A41EA004139E70446E3
:10047800F0E6084606E7C845AED2B9EB020E63EBD4
:10048800070C0138A8E73146EDE7034699E73046FF
:10049800D4E7D6467FE7634402384DE7064623464D
:1004A80008460FE7023E634430E700BF704700BFCD
:1004B80080B483B000AF78607B68002BB8BF5B4224
:1004C80018460C37BD465DF8047B704780B58AB086
:1004D80002AF0346FB7100237B6100233B76FB7967
:1004E80003F07F03DBB23B75002210210F4802F0B6
:1004F800BFFC07F10C0207F11401C8230093052380
:100508000B4804F046FD01221021084802F0B0FC17
:10051800D7F80D30BB60BB68FB61FB691BBA00BF35
:10052800BB60BB6818462037BD4680BD000002404E
:100538002C02002080B586B000AF03463960FB71FD
:100548000023FB6000233B74FB7963F07F03DBB27D
:100558003B733B687B617B691BBA00BF3B6007F15B
:100568000C0301333A681A6000221021094802F08E
:100578007FFC07F10C01C8230522074804F0C5FBDE
:1005880001221021034802F073FC00BF1837BD4652
:1005980080BD00BF000002402C02002080B489B05A
:1005A80000AFF8603B1D83E806007A68FB681340DB
:1005B8003A7AD340FB61BB7A002B0FD07B683A7A3A
:1005C800D340BB61BB69DB435B08BA6913407B61FD
:1005D800FA697B695A407B69D31AFB61FB69184643
:1005E8002437BD465DF8047B704780B584B000AF02
:1005F8003B4683E803007B791846FFF767FFF860FE
:100608003B4693E80600F868FFF7C8FF034618461C
:100618001037BD4680BD80B485B000AFF860381D86
:1006280080E806003B607B68DA43FB681A403B7A47
:1006380019463B6803FA01F17B680B4013431846DF
:100648001437BD465DF8047B704780B586B000AFAF
:1006580007F1080383E803007A607B7B1846FFF7FD
:1006680035FF78617B6807F1080206CA7869FFF7E9
:10067800D2FF78617B7B79691846FFF75BFF00BF83
:100688001837BD4680BD80B483B000AF78607B6802
:1006980000221A607B6800225A607B6800229A60F8
:1006A8007B680022DA607B6800221A617B6800227E
:1006B8001A757B6818460C37BD465DF8047B704791
:1006C80080B582B000AF78600B46FB707B68184637
:1006D800FFF7D9FF7B68FA781A757B6818460837E0
:1006E800BD4680BD80B483B000AF78607B680022CF
:1006F8001A707B6801225A707B6801229A707B68A5
:100708000022DA707B6801221A717B686422DA8021
:100718007B6800221A817B6842F6AA225A817B688C
:1007280045F255529A817B684FF40042DA817B6822
:100738004AF6AA221A827B684DF255525A827B6881
:1007480000229A827B680022DA827B6842F6AA221B
:100758001A837B6818460C37BD465DF8047B7047E2
:1007680080B483B000AF78607B684FF448721A8019
:100778007B684FF42F725A807B684FF448729A80D6
:100788007B684FF42F72DA807B6800221A817B68BD
:100798004FF480725A817B6800229A817B6880229C
:1007A800DA817B6801221A747B6818460C37BD46CB
:1007B8005DF8047B7047000080B483B000AF7860B8
:1007C8007B6847F6FF721A807B6847F230525A807E
:1007D8007B6847F230529A807B686FF000429A60DB
:1007E8007B686FF00042DA607B68064A1A617B68B2
:1007F8006FF000425A617B6818460C37BD465DF8B9
:10080800047B70470100008080B483B000AF78603B
:100818007B684FF425721A807B684FF425725A80E2
:100828007B684FF000525A607B684FF000529A6024
:100838007B6848F287229A817B6848F28722DA81AE
:100848007B684FF480721A827B684FF480725A82F8
:100858007B6800221A757B6818460C37BD465DF820
:10086800047B704780B483B000AF78607B6842F245
:1008780010721A807B681B889B009AB27B685A802A
:100888007B6804221A717B6800225A717B680022F7
:100898009A717B680022DA717B6801221A727B6880
:1008A80000225A727B6800229A727B6800229A8121
:1008B8007B680022DA817B6800221A827B6800222A
:1008C8009A747B680022DA747B6800221A757B6848
:1008D80000225A757B6800229A757B6818460C3787
:1008E800BD465DF8047B704780B483B000AF786084
:1008F8007B6800221A707B6800225A707B6800228D
:100908009A707B680022DA707B6800221A717B6813
:1009180000225A717B6818460C37BD465DF8047B87
:100928007047000080B483B000AF78607B68002215
:100938001A707B68064A0233106818607B68054A9B
:100948009A607B6818460C37BD465DF8047B704793
:10095800749400080000204180B582B000AF786030
:100968007B6800211846FFF7ABFE7B68183300212F
:100978001846FFF7A5FE7B68303300211846FFF7BD
:100988009FFE7B68483300211846FFF799FE7B6875
:1009980018460837BD4680BD80B582B000AF786084
:1009A8007B681846FFF79EFE7B681A331846FFF7E8
:1009B800D7FE7B682C331846FFF7FEFE7B6844336E
:1009C8001846FFF721FF7B685C331846FFF74AFF9C
:1009D8007B6874331846FFF787FF7B687C331846BB
:1009E800FFF7A0FF7B6888331846FFF7B5FF7B68E1
:1009F800032283F8E8207B68012283F8E9207B68DA
:100A0800002283F8EA207B68002283F8EB207B68C9
:100A1800012283F8EC207B68002283F8ED207B68B4
:100A280040F6FF72A3F8EE207B68322283F8F020AC
:100A38007B68322283F8F1207B684CF20C62A3F8C1
:100A4800F2207B684CF2D462A3F8F4207B6842F26F
:100A58002832A3F8F6207B680022C3F8F8207B68C8
:100A68000022C3F8FC207B68002283F800217B6801
:100A78000022A3F802217B6818460837BD4680BDCE
:100A880080B582B000AF78600B46FB70FB78002B16
:100A980009D17B68002283F8ED20002280210848D4
:100AA80002F0E6F908E07B68012283F8ED200122D4
:100AB8008021034802F0DCF900BF0837BD4680BD3D
:100AC8000010024080B582B000AF78600B46FB7022
:100AD8007B68FA7883F8EB20FB7804491A4603C947
:100AE800FFF7B3FD00BF0837BD4680BDE09600089C
:100AF80080B582B000AF7860084B93E80300FFF739
:100B080074FD0346DAB27B6883F8EB207B6893F8C0
:100B1800EB3018460837BD4680BD00BFE096000898
:100B280080B582B000AF7860094B93E80300FFF707
:100B38005CFD0346DBB203F00703DAB27B6883F897
:100B4800E9207B6893F8E93018460837BD4680BD30
:100B58009896000880B582B000AF78605320FFF700
:100B6800B5FC03461BB218460837BD4680BD0000D9
:100B780080B582B000AF78607B6893F8EC30012BC9
:100B880007D1184B93E80300FFF72FFD03461BB26C
:100B980023E07B6893F8EC30022B04D07B6893F851
:100BA800EC30032B07D1104B93E80300FFF71DFD32
:100BB80003461BB211E07B6893F8EC30042B07D195
:100BC8000A4B93E80300FFF710FD03461BB204E04D
:100BD8007868FFF7BFFF034600BF18460837BD46D1
:100BE80080BD00BFE0950008789600085896000878
:100BF80080B582B000AF78600B46FB7013463B802F
:100C0800FB78012B01D101233B807B68FA7883F8BC
:100C1800E8203B88DAB27B6883F860203B88074984
:100C28001A4603C9FFF711FDFB7805491A4603C99F
:100C3800FFF70BFD00BF0837BD4680BD789500085B
:100C48008095000880B582B000AF78600B46FB70D5
:100C5800FB78092B01D10123FB707B68FA7883F8B4
:100C6800E920FB78002B14BF01230023DBB21A46CE
:100C7800044B93E80300FFF7E8FC00BF0837BD46C4
:100C880080BD00BF9896000880B582B000AF78603C
:100C980039607B681A223968184608F0CDFB3B6832
:100CA8005B781A463C4B93E80300FFF7CEFC3B68A1
:100CB8001B791A46394B93E80300FFF7C6FC3B68DB
:100CC8009B781A46364B93E80300FFF7BEFC3B6857
:100CD800DB781A46334B93E80300FFF7B6FC3B6812
:100CE800DB881A46304B93E80300FFF7AEFC3B68FD
:100CF800B3F908301A462D4B93E80300FFF7A5FC1B
:100D08003B68B3F90A301A46294B93E80300FFF70A
:100D18009CFC3B68B3F90C301A46264B93E8030059
:100D2800FFF793FC3B68B3F90E301A46224B93E861
:100D38000300FFF78AFC3B68B3F910301A461F4BD3
:100D480093E80300FFF781FC3B68B3F912301A46B9
:100D58001B4B93E80300FFF778FC3B68B3F91630A8
:100D68001A46184B93E80300FFF76FFC3B68B3F98A
:100D780014301A46144B93E80300FFF766FC3B68EF
:100D88001B8B1A46114B93E80300FFF75EFC00BF6C
:100D98000837BD4680BD00BFE8950008F0950008FB
:100DA800F8950008009600080896000810960008B4
:100DB8001896000820960008289600083096000823
:100DC8003896000840960008489600085096000893
:100DD80080B582B000AF78600B46FB707B68FA780C
:100DE80083F8EA20FB7804491A4603C9FFF72DFC6B
:100DF80000BF0837BD4680BD7095000880B582B039
:100E080000AF7860084611461A460346FB700B4649
:100E18003B801346BB703B8840F6FF72FF211846A3
:100E280001F0CEF903463B807B68FA7883F8EA2024
:100E38007B683A88A3F8EE207B68BA7883F8F020BC
:100E48007B683A7C83F8F1203B880F491A4603C92E
:100E5800FFF7FBFBFB780D491A4603C9FFF7F5FBC3
:100E6800BB780B491A4603C9FFF7EFFB3B7C0949DE
:100E78001A4603C9FFF7E9FB00211720FFF75AFBC1
:100E880000BF0837BD4680BD58950008709500081A
:100E9800609500086895000880B582B000AF78605A
:100EA80039603B689A897B68A3F850203B68DA89E7
:100EB8007B68A3F852203B689B891A46084B93E845
:100EC8000300FFF7C2FB3B68DB891A46054B93E832
:100ED8000300FFF7BAFB00BF0837BD4680BD00BF5F
:100EE800209500081095000880B582B000AF7860A2
:100EF80039603B681A8A7B68A3F854203B685A8A91
:100F08007B68A3F856203B681B8A1A46084B93E86F
:100F18000300FFF79AFB3B685B8A1A46054B93E888
:100F28000300FFF792FB00BF0837BD4680BD00BF36
:100F3800289500081895000880B582B000AF786041
:100F480039603B685A687B689A643B689A687B6832
:100F5800DA643B681A887B68A3F844203B685A889F
:100F68007B68A3F846203B681B881A462F4B93E8FA
:100F78000300FFF76AFB3B685B881A462C4B93E833
:100F88000300FFF762FB3B685B682A491A4603C9FE
:100F9800FFF75BFB3B689B6827491A4603C9FFF7C5
:100FA80054FB3B685B68002B14BF01230023DBB2B2
:100FB8001A46224B93E80300FFF747FB3B689B6800
:100FC800002B14BF01230023DBB21A461C4B93E805
:100FD8000300FFF73AFB1B4B002293E80300FFF7DF
:100FE80034FB194B012293E80300FFF72EFB174B44
:100FF800002293E80300FFF728FB154B022293E831
:101008000300FFF722FB134B012293E80300FFF7CD
:101018001CFB39687868FFF73FFF39687868FFF785
:1010280063FF00BF0837BD4680BD00BF00950008BC
:1010380008950008F0940008F8940008E094000867
:10104800E894000830950008389500084095000895
:10105800489500085095000880B582B000AF7860C8
:1010680039607B681A3312223968184608F0E4F9A7
:101078003B681B881A46244B93E80300FFF7E5FA00
:101088003B685B881A46214B93E80300FFF7DDFABB
:101098003B689B881A461E4B93E80300FFF7D5FA76
:1010A8003B685B881A461B4B93E80300FFF7CDFAB1
:1010B8003B681B891A46184B93E80300FFF7C5FAEB
:1010C8003B685B891A46154B93E80300FFF7BDFAA6
:1010D8003B689B891A46124B93E80300FFF7B5FA61
:1010E8003B68DB891A460F4B93E80300FFF7ADFA1C
:1010F8003B681B7C1A460C4B93E80300FFF7A5FAE4
:1011080000BF0837BD4680BDA0960008A896000815
:10111800B0960008B8960008C0960008C89600085F
:10112800D0960008D8960008E896000880B582B0E6
:1011380000AF78600B467B8013463B807B687A88DB
:10114800A3F8F2207B683A88A3F8F4207B88074943
:101158001A4603C9FFF779FA3B8804491A4603C9B6
:10116800FFF773FA00BF0837BD4680BDF896000840
:1011780080B582B000AF786039603B6804491A4690
:1011880003C9FFF762FA00BF0837BD4680BD00BF3C
:10119800F096000880B582B000AF7860044B93E801
:1011A8000300FFF722FA034618460837BD4680BDFC
:1011B800F096000880B584B000AF78607B6893F83B
:1011C800EC30012B07D1164B93E80300FFF70DFA1B
:1011D8000346FB811DE07B6893F8EC30042B07D1B4
:1011E800104B93E80300FFF700FA0346FB8110E079
:1011F8007B6893F8EC30022B04D07B6893F8EC30D2
:10120800032B06D1084B93E80300FFF7EEF90346DA
:10121800FB81B7F90E3018461037BD4680BD00BFB8
:10122800D8950008609600087096000880B582B0CE
:1012380000AF78600B467B8013463B8001217868BD
:10124800FFF740FCB7F902309AB2B7F900301B0437
:10125800134319466420FFF76DF9B7F902309AB2C3
:10126800B7F900301B04134319466420FFF762F9ED
:1012780000BF0837BD4680BD80B582B000AF78603A
:1012880039603B6819467D20FFF754F900BF0837DD
:10129800BD4680BD80B582B000AF78600B467B80CC
:1012A800B7F9023004491A4603C9FFF7CEF900BF5F
:1012B8000837BD4680BD00BF889500082DE9B04FAE
:1012C80096B000AFF8610B467B837B8B7B8700234E
:1012D8007B654FF000024FF00003C7E912234FF07F
:1012E80000024FF00003C7E9102300210320FFF795
:1012F80021F9F869FFF714FC034687F83930F869D3
:10130800FFF7F6FB034687F838300021F869FFF746
:10131800D9FB642001F0C2FAFB69B3F85030FB87AF
:10132800FB69B3F85230BB8701F0ACFA786343E04D
:1013380000210320FFF7FEF80220FFF7C7F8B86284
:10134800BB6AFB84BB6A1B0CBB84FA8FFB8CD31A69
:10135800002BB8BF5B4242F20F7293422CDCBA8F6B
:10136800BB8CD31A002BB8BF5B4242F20F72934278
:1013780022DCFB8C00221C461546D7E9122312EB0F
:10138800040A43EB050BC7E912ABBB8C0022984655
:101398009146D7E9102312EB0801396043EB0903A2
:1013A8007B60D7E90023C7E910237B6D01337B6598
:1013B800FB8CFB87BB8CBB8701F064FA02467B6B16
:1013C800D21A7B8F9A4234BF01230023DBB2002B51
:1013D800AED17B6D00223B617A61D7E90423D7E95E
:1013E8001201FEF7EDFE02460B4613463B637B6D8A
:1013F8000022BB60FA60D7E90223D7E91001FEF7A3
:10140800DFFE02460B461346FB62D7E91223642A25
:1014180073F100031DD3D7E91023642A73F1000385
:1014280017D33B6BA3F5FF437F3B1846FFF740F804
:10143800034641F2883293420BDCFB6AA3F5FF4373
:101448007F3B1846FFF734F8034641F2883293424F
:1014580001DD012300E00023002B0AD00122022134
:10146800174801F005FDFB69002283F85820002386
:1014780020E03B6B9AB2FB69A3F85020FB6A9AB252
:10148800FB69A3F85220FB6944331946F869FFF752
:1014980003FD97F839301946F869FFF7D3FB97F839
:1014A80038301946F869FFF70DFBFB69012283F80C
:1014B8005820012318465837BD46BDE8B08F00BFF5
:1014C8000010024080B588B000AF78607868FFF7F8
:1014D80061FE386100217868FFF74AFE7868FFF7F7
:1014E8001FFB0346FB737868FFF702FB0346BB73D9
:1014F800704B002293E80300FFF7A7F800217868F3
:10150800FFF7C8FE01217868FFF79CFB0022002145
:101518007868FFF78BFE01217868FFF7D3FA00237C
:10152800FB830DE0B7F91E30002219467868FFF7F3
:101538007DFE052001F0B2F9FB8B14339BB2FB83CF
:101548007B68B3F9F630B7F91E209A42EADD5A4BA8
:1015580093E80300FFF749F80346BB830023BB81E8
:1015680000237B8300233B830023FB820023BB8271
:1015780037E0B7F9143019467868FFF78BFE0A2070
:1015880001F08CF9B7F918309BB201339BB23B8359
:10159800BB8BBB81484B93E80300FFF726F8034653
:1015A800BB83B7F91C20B7F90C309A4205DAB7F9B2
:1015B8001A309BB201339BB27B83404B93E8030004
:1015C800FFF713F80346002B14BF01230023DBB2F7
:1015D800002B02D0FB8A0133FB82BB8A2F339BB2DC
:1015E800BB82B7F9143040F6FE729342C1DD7868C9
:1015F800FFF7D0FD02463B69134419467868FFF7A8
:10160800B7FD002200217868FFF710FEFB7B194622
:101618007868FFF717FBBB7B19467868FFF752FA23
:10162800FA8AB7F91830D90F0B445B101BB29A42EB
:10163800CCBF01230023FB72B7F91830DA0F13442B
:101648005B101BB2B7F91A209A42CCBF01230023C2
:10165800DAB27B6883F864207B6893F86330FA7A9F
:101668009A4216D07B6893F8643083F00103DAB2AB
:101678007B6883F8642001220221114801F0F8FBFD
:101688004FF4967001F00AF9002202210C4801F08B
:10169800EFFB7B68FA7A83F861207B68FA7A83F833
:1016A80062207B68FA7A83F8632000BF2037BD4642
:1016B80080BD00BFB8950008E095000800970008B5
:1016C8000010024080B584B000AF78600B46FB7014
:1016D8002820FEF7FBFE0346FB60FA6813461B044E
:1016E8009B1A7A68B2F85E2093FBF2F3BB60BB6882
:1016F8009BB25B429BB21AB27B68A3F86A20FB7864
:10170800002B13D07B68B3F968309AB27B6893F8E2
:1017180060301946BB689BB211FB03F39BB21344BC
:101728009BB21AB27B68A3F8682008E07B68B3F91B
:101738006A301A46084B93E80300FEF786FF78687C
:10174800FFF738FD034619467868FFF711FD00BF1B
:101758001037BD4680BD00BFC895000880B588B069
:1017680000AF78600B467B807B6893F8E830022BEB
:1017780005D07B6893F8E830032B40F0F780786851
:10178800FFF7CEF90346FB747868FFF7B1F9034613
:10179800BB74002200217868FFF748FD754A07F1FD
:1017A800080392E8030083E803007B6893F8EC30B1
:1017B800012B13D1704A07F1080392E8030083E86C
:1017C80003007B6893F8703083F00103DBB2002BD1
:1017D8001DD000217868FFF775FF18E07B6893F843
:1017E800EC30022B04D07B6893F8EC30032B0ED13D
:1017F80000214120FEF79EFE00214720FEF79AFEB9
:101808005E4A07F1080392E8030083E8030078685A
:10181800FFF7A0F903463B82002207F1080393E88B
:101828000300FEF712FFB7F9103019467868FFF782
:1018380031FD01217868FFF705FA0023FB830DE0ED
:10184800B7F91E30002219467868FFF7EFFC03202D
:1018580001F024F8FB8B0A339BB2FB83B7F91E20F7
:10186800B7F902309A42EBDD7868FFF781F9034651
:10187800BB83322001F012F800237B8300233B83D3
:101888000023FB8219E0B7F91C20B7F91A30D31AE4
:10189800002BB8BF5B42632B03DCFB8A0133FB825E
:1018A80001E00023FB82BB8B7B837868FFF760F93C
:1018B8000346BB830A2000F0F1FFFB8A1D2B0AD8E0
:1018C800B7F918309AB2013292B23A83B3F57A7FF7
:1018D80001DA012300E00023002BD4D100220021EB
:1018E8007868FFF7A3FC3A8ABB8BD31A9BB2BB82FA
:1018F800B7F91430002B09D1C82000F0CFFF01221E
:1019080002211F4801F0B4FA0123BB82B7F9143051
:101918001A4607F1080393E80300FEF796FE7B6872
:1019280093F8EC30012B04D17B68BA8AA3F86820BD
:101938000DE07B6893F8EC30022B04D07B6893F8B9
:10194800EC30032B03D17B68BA8AA3F86820002106
:101958007868FFF79FFCFB7C19467868FFF772F9F7
:10196800BB7C19467868FFF7ADF800E000BF203768
:10197800BD4680BD78940008D09500086896000898
:101988000010024080B58CB000AF78607B6893F897
:10199800E830022B06D07B6893F8E830032B01D09F
:1019A8000123EEE15023FB820A23BB827868FFF70C
:1019B800DFF803467B8243F6FF733B82012387F8F7
:1019C8002F307868FFF7ACF80346FB737868FFF7A9
:1019D8008FF80346BB73002200217868FFF726FCC6
:1019E80001217868FFF72EF9B7F91230194678689F
:1019F800FFF750FC0023BB850DE0B7F92C3000221F
:101A080019467868FFF712FC022000F047FFBB8DEB
:101A180014339BB2BB85B7F92C207B68B3F9F63039
:101A28005B00AB4981FB0301DB17CB1A9A42E4DD6B
:101A38000023BB8100237B8500233B850023FB8497
:101A480088E00023BB84FA8C7B8A13449BB21BB2C8
:101A580019467868FFF71EFC052000F01FFF78681C
:101A6800FFF786F803469AB27B8AD31A9BB2BB81EA
:101A7800B7F90C20B7F92630D31A002BB8BF5B4250
:101A88007B84B7F90C20B7F926301344002BB8BF74
:101A98005B423B841DE07868FFF76AF803469AB218
:101AA8007B8AD31A9BB2BB81B7F90C20B7F92630D1
:101AB800D31A002BB8BF5B427B84B7F92620B7F94D
:101AC8000C30D31A002BB8BF5B423B840A2000F0CD
:101AD800E5FEB7F9223040F6C41293420CDDB7F99F
:101AE800203040F6C412934206DDBB8C5A1CBA84DF
:101AF8004F2B01D8012300E00023002BCBD1B7F9ED
:101B08002220B7F920309A4205DDB7F928309BB278
:101B180001339BB23B85BB8C4F2B17D97B8D01338F
:101B28007B857B8D0A2B11D9002387F82F30012262
:101B38000221684801F09CF94FF4967000F0AEFE5F
:101B480000220221634801F093F90AE0FB8CFF337D
:101B58009BB2FB84B7F9263043F6FE7293427FF7B7
:101B680070AF7868FFF704F803461A46B7F91230E1
:101B780093420CBF01230023DBB2002B10D00122BB
:101B88000221544801F074F94FF47A7000F086FE8F
:101B9800002202214F4801F06BF9002387F82F300B
:101BA80097F82F30002B00F0A08043F6FF73FB83DB
:101BB80096E00023BB83FA8B7B8A13449BB21BB24B
:101BC80019467868FFF766FB052000F067FE78681D
:101BD800FEF7CEFF03469AB27B8AD31A9BB2BB812B
:101BE800B7F90C20B7F91E30D31A002BB8BF5B42E7
:101BF8007B83B7F90C20B7F91E301344002BB8BF0C
:101C08005B423B831DE07868FEF7B2FF03469AB259
:101C18007B8AD31A9BB2BB81B7F90C20B7F91E3067
:101C2800D31A002BB8BF5B427B83B7F91E20B7F9E4
:101C38000C30D31A002BB8BF5B423B830A2000F05C
:101C48002DFEB7F91A3040F6C41293420CDDB7F9ED
:101C5800183040F6C412934206DDBB8B5A1CBA8377
:101C68004F2B01D8012300E00023002BCBD1B7F97B
:101C78001A20B7F918309A4205DDB7F928309BB217
:101C880001339BB23B85BB8B4F2B25D97B8D013311
:101C98007B857B8D0A2B1FD9002387F82F300122E3
:101CA80001210C4801F0E4F801220221094801F061
:101CB800DFF8962000F0F2FD00220121054801F02E
:101CC800D7F800220221034801F0D2F80DE000BF46
:101CD8005655555500100240FB8BFF3B9BB2FB83CA
:101CE800B7F91E30002B3FF764AFB7F92830502BF7
:101CF8002ADD7B6893F8EC30012B12D17B6893F8CE
:101D0800643083F00103DAB27B6883F864207B686F
:101D180093F864301A461D4B93E80300FEF795FCD0
:101D280012E07B6893F8EC30022B04D07B6893F8C0
:101D3800EC30032B08D17B6893F8643083F00103FF
:101D4800DAB27B6883F86420002200217868FFF704
:101D58006DFA00217868FFF79DFAFB7B19467868D1
:101D6800FEF770FFBB7B19467868FEF7ABFE97F865
:101D78002F30002B03D07B68012283F86F2097F85F
:101D88002F3018463037BD4680BD00BFB8950008D3
:101D980080B584B000AF786039607A6892F8FF3017
:101DA8006FF3861382F8FF307A6892F8FF306FF38A
:101DB800041382F8FF307B68D3F8FC107868FFF7CB
:101DC8005BFA7B685C3318223968184607F034FBE5
:101DD8003B685B791A465F4B93E80300FEF735FCD6
:101DE8003B689B791A465C4B93E80300FEF72DFC91
:101DF8003B68DB791A46594B93E80300FEF725FC4C
:101E08003B685B7A1A46564B93E80300FEF71DFCC5
:101E18003B689B7A1A46534B93E80300FEF715FC80
:101E28003B681B7A1A46504B93E80300FEF70DFCFB
:101E38003B685B881A464D4B93E80300FEF705FCA8
:101E48003B68B3F90C301A46494B93E80300FEF798
:101E5800FCFB3B68B3F90E301A46464B93E8030087
:101E6800FEF7F3FB7B68092283F871207B6809225F
:101E780083F872207B6893F871301A463E4B93E8DA
:101E88000300FEF7E2FB7B6893F872301A463B4B7F
:101E980093E80300FEF7D9FB394B002293E80300CF
:101EA800FEF7D3FB7868FFF70DFB5320FEF70EFB18
:101EB80003461BB219467868FFF7ECF901217868E8
:101EC800FEF7C0FE7B68B3F9F63019467868FFF76D
:101ED80045FC0023FB7305E07868FFF753FDFB7BA7
:101EE8000133FB737B6893F86F3083F00103DBB237
:101EF800002B02D0FB7B022BEED97B6893F86F3066
:101F080083F00103DBB2002B09D0012202211D4816
:101F180000F0AEFF00217868FEF7B2FD17E07B689D
:101F280093F8EC30012B04D103217868FEF78AFE80
:101F38000DE07B6893F8EC30022B04D07B6893F8B3
:101F4800EC30032B03D106217868FEF77BFE1037AF
:101F5800BD4680BD9095000898950008A09500089A
:101F6800A8950008B0950008B8950008C095000825
:101F7800D0950008C895000890960008809600083B
:101F8800889600080010024080B586B002AF7860DD
:101F980000217868FEF774FD00210120FEF7CAFAD7
:101FA8000020FEF793FA0346774A93420CBF0123B9
:101FB8000023DBB2002B1DD001228021734800F0E2
:101FC80057FFC82000F06AFC002280216F4800F00B
:101FD8004FFF01210120FEF7ADFA0020FEF776FA47
:101FE8000346B3F5803F0CBF01230023DBB2002B6F
:101FF80019D009E001220221654800F039FF0021CB
:102008007868FEF73DFDBCE001220221604800F03F
:102018002FFF012201215E4800F02AFF0021786885
:10202800FEF72EFDADE000216420FEF783FA7B6801
:10203800B3F8EE207B6893F8F0107B6893F8F130E2
:1020480000930B4600217868FEF7D8FE7B6893F86A
:10205800E8107B6893F860301A467868FEF7C8FD88
:102068007B6893F8E93019467868FEF7EBFD7B68E2
:1020780019467868FEF708FE7B6844331946786885
:10208800FEF75AFF4FF496717868FFF717F9034681
:1020980083F00103DBB2002B09D0012202213C4866
:1020A80000F0E6FE00217868FEF7EAFC69E07B684C
:1020B800B3F8F2107B68B3F8F4301A467868FFF783
:1020C80035F87B680022C3F8FC207A6892F8FF3064
:1020D80043F0040382F8FF307A6892F8FE3043F048
:1020E800080382F8FE307B68D3F8FC107868FFF7A5
:1020F800C3F87B681A3319467868FEF7ADFF7C2071
:10210800FEF7E4F90346FB73FA7B7B68C3F8F82013
:1021180001217868FEF7B4FC07217868FEF758FEBD
:1021280005E07B685C3319467868FFF731FE7B6809
:1021380093F86F3083F00103DBB2002BF1D1012259
:102148008021124800F094FE01220121104800F07D
:102158008FFE012202210E4800F08AFE4FF4C8705B
:1021680000F09CFB00228021084800F081FE00223C
:102178000121074800F07CFE00220221044800F0FB
:1021880077FE1037BD4680BD31373634000C02402B
:102198000010024080B483B000AF78600B46FB703B
:1021A80013463B807B683A88A3F802217B68FA785B
:1021B80083F8002100BF0C37BD465DF8047B7047EB
:1021C80080B485B000AF0346B9607A60FB81FB89B3
:1021D8007A689A4206DBFA89BB689342B8BF13460D
:1021E8009BB201E07B689BB218461437BD465DF888
:1021F800047B704780B582B000AF786039607B6837
:10220800012B07D13B684FF6FF72934202D1034876
:10221800FEF7C2FB00BF0837BD4680BD280100207D
:1022280080B500AF4FF6FF710120FFF7E3FF80BDD7
:1022380080B58AB000AF07F1140300221A605A6013
:102248009A60DA601A6100233B61474B1B6B464A70
:1022580043F080031363444B1B6B03F080033B6123
:102268003B690023FB60404B1B6B3F4A43F0010373
:1022780013633D4B1B6B03F00103FB60FB680023FA
:10228800BB60394B1B6B384A43F010031363364B62
:102298001B6B03F01003BB60BB6800237B60324BF1
:1022A8001B6B314A43F0080313632F4B1B6B03F07E
:1022B80008037B607B6800233B602B4B1B6B2A4A1F
:1022C80043F002031363284B1B6B03F002033B60CC
:1022D8003B6801221021254800F0CAFD0022832115
:1022E800234800F0C5FD00228021224800F0C0FDEF
:1022F80010237B610123BB610023FB6103233B6245
:1023080007F114031946194800F0FEFB80237B618E
:102318000123BB610223FB6100233B6207F1140325
:102328001946134800F0F0FB80237B610123BB6151
:102338000023FB6100233B6207F1140319460D4893
:1023480000F0E2FB03237B610123BB610023FB61F7
:1023580000233B6207F114031946054800F0D4FB3B
:1023680000BF2837BD4680BD00380240000002404B
:1023780000100240000C024080B500AF00F01CFACB
:1023880000F038F8FFF754FF06F06AFB00F0B2F8E7
:1023980000F0A2F901220221134800F069FD012290
:1023A8000121114800F064FD012280210F4800F04E
:1023B8005FFD4FF4FA7000F071FA002202210A481A
:1023C80000F056FD00220121074800F051FD0022CF
:1023D8008021064800F04CFD642000F05FFA0448B4
:1023E800FFF7D2FD00BFFDE700100240000C0240DD
:1023F8002801002080B594B000AF07F120033022F7
:102408000021184606F0ECFF07F10C0300221A60C1
:102418005A609A60DA601A610023BB602D4B1B6C0E
:102428002C4A43F0805313642A4B1B6C03F08053EF
:10243800BB60BB6800237B60274B1B68264A43F4BC
:1024480080431360244B1B6803F480437B607B68E4
:1024580001233B624FF480337B620223BB634FF45A
:102468008003FB6304233B64A8237B640223BB64CF
:102478000723FB6407F12003184601F04DFF0346CC
:10248800002B14BF01230023DBB2002B01D000F086
:1024980025F80F23FB6002233B6100237B614FF487
:1024A800A053BB614FF48053FB6107F10C03052176
:1024B800184602F0A9F90346002B14BF0123002394
:1024C800DBB2002B01D000F009F800BF5037BD4641
:1024D80080BD00BF003802400070004080B500AFEA
:1024E80072B600BF01220221014800F0C1FCF9E7E1
:1024F8000010024080B500AF174B184A1A60164BFF
:102508004FF482725A60144B00229A60124B0022D8
:10251800DA60114B02221A610F4B01225A610E4BED
:102528004FF400729A610C4B1022DA610A4B0022B8
:102538001A62094B00225A62074B00229A62064B24
:102548000A22DA62044802F057FB0346002B01D046
:10255800FFF7C4FF00BF80BD2C02002000300140FF
:1025680080B58AB000AF786007F1140300221A60C2
:102578005A609A60DA601A617B681B68194A93424C
:102588002BD100233B61184B5B6C174A43F48053F3
:102598005364154B5B6C03F480533B613B69002328
:1025A800FB60114B1B6B104A43F0010313630E4B86
:1025B8001B6B03F00103FB60FB68E0237B610223D4
:1025C800BB610023FB6103233B6205237B6207F1A8
:1025D80014031946054800F097FA00BF2837BD468E
:1025E80080BD00BF003001400038024000000240BA
:1025F80080B483B000AF00237B60104B5B6C0F4A44
:1026080043F4804353640D4B5B6C03F480437B605D
:102618007B6800233B60094B1B6C084A43F08053DE
:102628001364064B1B6C03F080533B603B6800BF90
:102638000C37BD465DF8047B704700BF0038024088
:1026480080B400AF00BFFDE780B400AF00BFFDE776
:1026580080B400AF00BFFDE780B400AF00BFFDE766
:1026680080B400AF00BFFDE780B400AF00BFBD4637
:102678005DF8047B704780B400AF00BFBD465DF8CD
:10268800047B704780B400AF00BFBD465DF8047B93
:10269800704780B500AF00F0E1F800BF80BD0000D2
:1026A80080B500AF024800F040FD00BF80BD00BF0C
:1026B800B007002080B400AF064BD3F88830054A35
:1026C80043F47003C2F8883000BFBD465DF8047B50
:1026D800704700BF00ED00E080B500AF0E4B0F4A19
:1026E8001A600D4B42F20F725A600B4B00229A602F
:1026F800094B2922DA60084B00221A61064B002296
:102708009A61054802F0CAFE0346002B01D0FFF784
:10271800E5FE00BF80BD00BF8402002000440140E8
:1027280080B485B000AF78607B681B680B4A934221
:102738000DD10023FB600A4B5B6C094A43F400335C
:102748005364074B5B6C03F40033FB60FB6800BF0A
:102758001437BD465DF8047B704700BF0044014054
:1027680000380240DFF834D0FFF7A4FF0C480D49C9
:102778000D4A002302E0D458C4500433C4188C42D4
:10278800F9D30A4A0A4C002301E013600432A2423A
:10279800FBD306F02DFEFFF7EFFD70470000022087
:1027A800000000200C0100202C9700080C010020DC
:1027B800EC0C0020FEE7000080B500AF0E4B1B6854
:1027C8000D4A43F4007313600B4B1B680A4A43F429
:1027D80080631360084B1B68074A43F480731360D7
:1027E800032000F04FF90F2000F008F8FFF700FF72
:1027F8000023184680BD00BF003C024080B582B06F
:1028080000AF7860124B1A68124B1B7819464FF4C8
:102818007A73B3FBF1F3B2FBF3F3184600F067F9F0
:102828000346002B01D001230EE07B680F2B0AD84A
:10283800002279684FF0FF3000F02FF9064A7B68D4
:102848001360002300E0012318460837BD4680BD09
:1028580000000020080000200400002080B400AF21
:10286800064B1B781A46064B1B681344044A136030
:1028780000BFBD465DF8047B704700BF080000201C
:10288800CC02002080B400AF034B1B681846BD463D
:102898005DF8047B704700BFCC02002080B584B08F
:1028A80000AF7860FFF7EEFFB8607B68FB60FB68FD
:1028B800B3F1FF3F05D00A4B1B781A46FB68134457
:1028C800FB6000BFFFF7DEFF0246BB68D31AFA6859
:1028D8009A42F7D800BF00BF1037BD4680BD00BF81
:1028E8000800002080B485B000AF78607B6803F0F2
:1028F8000703FB600C4BDB68BB60BA684FF6FF034D
:102908001340BB60FB681A02BB68134343F0BF6304
:1029180043F40033BB60044ABB68D36000BF14377C
:10292800BD465DF8047B704700ED00E080B400AF61
:10293800044BDB681B0A03F007031846BD465DF825
:10294800047B704700ED00E080B483B000AF03461D
:10295800FB7197F90730002B0BDBFB7903F01F02A3
:10296800074997F907305B09012000FA02F241F89C
:10297800232000BF0C37BD465DF8047B704700BFBD
:1029880000E100E080B483B000AF03463960FB711A
:1029980097F90730002B0ADB3B68DAB20C4997F944
:1029A80007301201D2B20B4483F800230AE03B68D7
:1029B800DAB20849FB7903F00F03043B1201D2B2E3
:1029C8000B441A7600BF0C37BD465DF8047B704790
:1029D80000E100E000ED00E080B489B000AFF860ED
:1029E800B9607A60FB6803F00703FB61FB69C3F118
:1029F8000703042B28BF0423BB61FB690433062BA0
:102A080002D9FB69033B00E000237B614FF0FF32F2
:102A1800BB6902FA03F3DA43BB681A407B699A4040
:102A28004FF0FF317B6901FA03F3D9437B680B4010
:102A3800134318462437BD465DF8047B70470000F1
:102A480080B582B000AF78607B68013BB3F1807FCE
:102A580001D301230FE00A4A7B68013B53600F2131
:102A68004FF0FF30FFF78EFF054B00229A60044BB2
:102A780007221A60002318460837BD4680BD00BFEC
:102A880010E000E080B582B000AF78607868FFF7AA
:102A980029FF00BF0837BD4680BD80B586B000AFAE
:102AA8000346B9607A60FB7300237B61FFF73EFF42
:102AB80078617A68B9687869FFF78EFF024697F9F6
:102AC8000F3011461846FFF75DFF00BF1837BD46A7
:102AD80080BD80B582B000AF0346FB7197F907301F
:102AE8001846FFF731FF00BF0837BD4680BD80B5E7
:102AF80082B000AF78607868FFF7A2FF03461846F7
:102B08000837BD4680BD000080B489B000AF78604A
:102B1800396000237B6100233B610023BB610023F4
:102B2800FB616BE10122FB6902FA03F37B613B68FD
:102B38001B687A6913403B613A697B699A4240F0A5
:102B48005A813B685B6803F00303012B05D03B689F
:102B58005B6803F00303022B30D17B689B68BB6181
:102B6800FB695B00032202FA03F3DB43BA691340F3
:102B7800BB613B68DA68FB695B0002FA03F3BA6978
:102B88001343BB617B68BA699A607B685B68BB6109
:102B98000122FB6902FA03F3DB43BA691340BB6104
:102BA8003B685B681B0903F00102FB6902FA03F347
:102BB800BA691343BB617B68BA695A603B685B6852
:102BC80003F00303032B17D07B68DB68BB61FB6949
:102BD8005B00032202FA03F3DB43BA691340BB61CB
:102BE8003B689A68FB695B0002FA03F3BA6913430E
:102BF800BB617B68BA69DA603B685B6803F0030312
:102C0800022B23D1FB69DA087B68083253F822309B
:102C1800BB61FB6903F007039B000F2202FA03F371
:102C2800DB43BA691340BB613B681A69FB6903F06F
:102C380007039B0002FA03F3BA691343BB61FB69FC
:102C4800DA087B680832B96943F822107B681B6888
:102C5800BB61FB695B00032202FA03F3DB43BA6939
:102C68001340BB613B685B6803F00302FB695B00D0
:102C780002FA03F3BA691343BB617B68BA691A6045
:102C88003B685B6803F44033002B00F0B4800023FA
:102C9800FB60604B5B6C5F4A43F4804353645D4B5D
:102CA8005B6C03F48043FB60FB685B4AFB699B0831
:102CB800023352F82330BB61FB6903F003039B0026
:102CC8000F2202FA03F3DB43BA691340BB617B6846
:102CD800524A93422BD07B68514A934225D07B6855
:102CE800504A93421FD07B684F4A934219D07B6861
:102CF8004E4A934213D07B684D4A93420DD07B686D
:102D08004C4A934207D07B684B4A934201D1072330
:102D18000EE008230CE006230AE0052308E004235C
:102D280006E0032304E0022302E0012300E000237D
:102D3800FA6902F0030292009340BA691343BB6137
:102D48003549FB699B080233BA6941F823203B4B9C
:102D58009B68BB613B69DB43BA691340BB613B6855
:102D68005B6803F48013002B03D0BA693B691343F3
:102D7800BB61324ABB699360304BDB68BB613B691E
:102D8800DB43BA691340BB613B685B6803F400131B
:102D9800002B03D0BA693B691343BB61274ABB695F
:102DA800D360264B5B68BB613B69DB43BA69134060
:102DB800BB613B685B6803F40033002B03D0BA693E
:102DC8003B691343BB611D4ABB6953601B4B1B68BE
:102DD800BB613B69DB43BA691340BB613B685B6815
:102DE80003F48033002B03D0BA693B691343BB61FA
:102DF800124ABB691360FB690133FB61FB690F2B46
:102E08007FF690AE00BF00BF2437BD465DF8047B57
:102E1800704700BF003802400038014000000240FF
:102E28000004024000080240000C0240001002406A
:102E38000014024000180240001C0240003C0140FF
:102E480080B485B000AF78600B467B807B681A69D8
:102E58007B881340002B02D00123FB7301E0002381
:102E6800FB73FB7B18461437BD465DF8047B70473F
:102E780080B483B000AF78600B467B8013467B70CC
:102E88007B78002B03D07A887B689A6103E07B8883
:102E98001A047B689A6100BF0C37BD465DF8047B55
:102EA800704780B586B002AF78607B68002B01D18F
:102EB800012301E17B681B68BB607B6893F895344C
:102EC800DBB2002B06D17B68002283F89424786853
:102ED80005F076FF7B68032283F89524BB68B3F17D
:102EE800A04F02D17B6800229A717B681B68184644
:102EF80002F0E7FC7B6818687B681A7C8DF8002074
:102F080004330ECB02F0C6FB0346002B05D07B68CA
:102F1800022283F895240123CEE07B681B680021F8
:102F2800184602F0DFFC0346002B05D07B6802221E
:102F380083F895240123BFE00023FB734AE0FA7B62
:102F480079681346DB0013449B000B4415330122B8
:102F58001A70FA7B79681346DB0013449B000B4414
:102F68001433FA7B1A70FA7BFB7B98B279681346A4
:102F7800DB0013449B000B442E3302461A80FA7B75
:102F880079681346DB0013449B000B441833002276
:102F98001A70FA7B79681346DB0013449B000B44D4
:102FA8001C3300221A60FA7B79681346DB0013444D
:102FB8009B000B44203300221A60FA7B7968134681
:102FC800DB0013449B000B44243300221A60FB7B74
:102FD8000133FB737B681B79FA7B9A42AFD30023DA
:102FE800FB7344E0FA7B79681346DB0013449B00CB
:102FF8000B4403F2552300221A70FA7B79681346B2
:10300800DB0013449B000B4403F51573FA7B1A701D
:10301800FA7B79681346DB0013449B000B4403F5E5
:10302800167300221A70FA7B79681346DB00134482
:103038009B000B4403F5177300221A60FA7B79682A
:103048001346DB0013449B000B4403F5187300225E
:103058001A60FA7B79681346DB0013449B000B4423
:1030680003F5197300221A60FB7B0133FB737B683D
:103078001B79FA7B9A42B5D37B6818687B681A7CFF
:103088008DF8002004330ECB02F078FC0346002BA9
:1030980005D07B68022283F8952401230CE07B6825
:1030A80000225A747B68012283F895247B681B6888
:1030B800184603F0C2FC002318461037BD4680BDF1
:1030C80080B584B000AF78607B681B68FB607B6864
:1030D80093F89434012B01D1022322E07B6801226A
:1030E80083F89424FB68DB6803F04003002B09D0C5
:1030F8007B685B7B012B05D1FB689B6B43F48032BB
:10310800FB689A637B681B68184602F0C9FB7B68FA
:103118001B68184603F070FC7B68002283F894242F
:10312800002318461037BD4680BD90B58DB000AF5E
:1031380078607B681B683B623B6AFB617B681B6845
:10314800184603F02EFD0346002B40F08C847B6864
:103158001B68184603F092FC0346002B00F082849B
:10316800FB6903F500639B681B0AC3F30D027B68C8
:10317800C3F8D4247B681B68184603F07FFC034619
:1031880003F00203022B07D17B681B685A697B682E
:103198001B6802F002025A617B681B68184603F03C
:1031A8006DFC034603F01003102B61D17B681B688C
:1031B8009A697B681B6822F010029A613B6A1B6A55
:1031C800BB61BB6903F00F021346DB0013449B008D
:1031D80003F514737A68134404337B61BB695B0C91
:1031E80003F00F03022B24D1BA6947F6F07313409A
:1031F800002B35D07B69D968BB691B099BB2C3F327
:103208000A039BB21A46386A03F0A4FA7B69DA68A3
:10321800BB691B09C3F30A031A447B69DA607B693B
:103228005A69BB691B09C3F30A031A447B695A61CB
:1032380016E0BB695B0C03F00F03062B10D17B680B
:1032480003F29C4308221946386A03F083FA7B6923
:103258005A69BB691B09C3F30A031A447B695A619B
:103268007B681B689A697B681B6842F010029A6148
:103278007B681B68184603F001FC034603F400232F
:10328800B3F5002F40F0A78000237B627B681B68A2
:10329800184603F006FCB86299E0BB6A03F0010324
:1032A800002B00F08E807B681B687A6AD2B21146C8
:1032B800184603F02AFC38613B6903F00103002B30
:1032C8000CD07B6A5A01FB69134403F530631A4634
:1032D80001239360796A786800F08CFE3B6903F0FB
:1032E8000803002B0CD07B6A5A01FB69134403F5D1
:1032F80030631A4608239360796A786800F062FFA1
:103308003B6903F01003002B08D07B6A5A01FB6964
:10331800134403F530631A46102393603B6903F0A6
:103328000203002B30D03B6A5B6903F08003802BDB
:1033380009D1FB6903F500635B68FA6902F500626D
:1033480043F4806353607A6A1346DB0013449B009E
:1033580003F514737A68134404337B617B69DB7863
:10336800012B08D17B690022DA707B6ADBB219462F
:10337800786805F039FE7B6A5A01FB69134403F546
:1033880030631A46022393603B6903F02003002B45
:1033980008D07B6A5A01FB69134403F530631A4667
:1033A800202393603B6903F40053002B09D07B6A08
:1033B8005A01FB69134403F530631A464FF400536E
:1033C80093607B6A01337B62BB6A5B08BB62BB6A42
:1033D800002B7FF462AF7B681B68184603F04EFB36
:1033E800034603F48023B3F5802F40F0DB807B682D
:1033F8001B68184603F06FFBB86200237B62CDE0C0
:10340800BB6A03F00103002B00F0C2807B681B68D5
:103418007A6AD2B21146184603F095FB38613B69C7
:1034280003F00103002B57D07B6A03F00F0301223E
:1034380002FA03F3FB60FB6903F500635A6BFB6850
:10344800DB43F96901F5006113404B637B6A5A015C
:10345800FB69134403F510631A46012393607B68E4
:103468009B79012B32D179687A6A1346DB001344C1
:103478009B000B442033196878687A6A1346DB008E
:1034880013449B0003441C331B68194478687A6A08
:103498001346DB0013449B000344203319607B6A06
:1034A800002B13D179687A6A1346DB0013449B001A
:1034B8000B4424331B68002B08D17B6818687B6891
:1034C80003F29C431A46012103F09CFB7B6ADBB2A2
:1034D8001946786805F003FD3B6903F00803002BE3
:1034E80008D07B6A5A01FB69134403F510631A4636
:1034F800082393603B6903F01003002B08D07B6A14
:103508005A01FB69134403F510631A4610239360AC
:103518003B6903F04003002B08D07B6A5A01FB6922
:10352800134403F510631A46402393603B6903F084
:103538000203002B23D0796A386A02F083FB7A6A87
:103548001346DB0013449B0010337A68134404339A
:103558007B617B69DB78012B08D17B690022DA70FB
:103568007B6ADBB21946786805F050FD7B6A5A0120
:10357800FB69134403F510631A46022393603B6901
:1035880003F08003002B03D0796A786800F0A5FC6B
:103598007B6A01337B62BB6A5B08BB62BB6A002B38
:1035A8007FF42EAF7B681B68184603F067FA034662
:1035B80003F00043B3F1004F22D1FB6903F5006328
:1035C8005B68FA6902F5006223F0010353607B68C7
:1035D80093F8CC34012B08D17B68002283F8CC24E3
:1035E8000021786800F08CFE02E0786805F0EEFCB7
:1035F8007B681B685A697B681B6802F000425A6145
:103608007B681B68184603F039FA034603F4006325
:10361800B3F5006F12D1FB6903F500639B6803F0F3
:103628000103012B02D1786805F0AAFC7B681B68AE
:103638005A697B681B6802F400625A617B681B68E0
:10364800184603F01BFA034603F48053B3F5805F72
:1036580040F0B780FB6903F500635B68FA6902F51F
:10366800006223F0010353607B681B681021184631
:1036780002F0E8FA0023FB6246E0FB6A5A01FB69A4
:10368800134403F510631A464FF67F339360FB6AC1
:103698005A01FB69134403F510631B68FA6A510168
:1036A800FA690A4402F5106223F400131360FB6AF6
:1036B8005A01FB69134403F530631A464FF67F330A
:1036C8009360FB6A5A01FB69134403F530631B6876
:1036D800FA6A5101FA690A4402F5306223F40013C8
:1036E8001360FB6A5A01FB69134403F530631B68D6
:1036F800FA6A5101FA690A4402F5306243F000633C
:103708001360FB6A0133FB627B681B791A46FB6A0C
:103718009342B2D3FB6903F50063DB69FA6902F5EA
:10372800006243F00113D3617B68DB7B002B16D06A
:10373800FB6903F50063D3F88430FA6902F5006287
:1037480043F00B03C2F88430FB6903F500635B6C3C
:10375800FA6902F5006243F00B03536415E0FB6954
:1037680003F500635B69FA6902F5006243F40053EC
:1037780043F02B035361FB6903F500631B69FA6986
:1037880002F5006243F00B031361FB6903F5006364
:103798001B68FA6902F5006223F4FE6313607B6814
:1037A80018687B6899797B6803F29C431A4603F092
:1037B80029FA7B681B685A697B681B6802F4805287
:1037C8005A617B681B68184603F058F9034603F4EE
:1037D8000053B3F5005F23D17B681B68184603F0DC
:1037E800EEF97B681B68184602F0A5FA03461A46EC
:1037F8007B68DA717B681C6801F0F2F901467B6826
:10380800DB791A46204601F0A9FF786805F08FFB9E
:103818007B681B685A697B681B6802F400525A610E
:103828007B681B68184603F029F9034603F0080370
:10383800082B0AD1786805F06CFB7B681B685A690D
:103848007B681B6802F008025A617B681B6818468F
:1038580003F014F9034603F08003802B23D13B6A5D
:103868009B6923F080023B6A9A6101237B6214E022
:1038780079687A6A1346DB0013449B000B4403F211
:1038880057231B78012B05D17B6ADBB21946786870
:1038980000F0F2FA7B6A01337B627B681B791A4677
:1038A8007B6A9342E4D37B681B68184603F0E6F80A
:1038B800034603F48013B3F5801F3CD101237B62D8
:1038C8002BE07B6A5A01FB69134403F510631B68FC
:1038D800BB6179687A6A1346DB0013449B000B448A
:1038E80018331B78012B15D1BB69002B12DA7968C4
:1038F8007A6A1346DB0013449B000B4417330122FA
:103908001A707B6ADBB263F07F03DBB21946786812
:1039180000F0B2FA7B6A01337B627B681B791A4636
:103928007B6A9342CDD37B681B685A697B681B68A6
:1039380002F480125A617B681B68184603F09EF8EF
:10394800034603F40013B3F5001F56D101237B622D
:1039580045E07B6A5A01FB69134403F530631B6831
:10396800BB6179687A6A1346DB0013449B000B44F9
:1039780003F516731B78012B2ED1BB69002B2BDAAC
:10398800BB6903F480327B68D3F8D43403F00103B5
:103998009A4221D179687A6A1346DB0013449B0066
:1039A8000B4403F2572301221A703B6A9B6943F0C8
:1039B80080023B6A9A613B6A5B6903F08003002BD3
:1039C8000AD1FB6903F500635B68FA6902F50062D6
:1039D80043F40073536008E07B6A01337B627B68C1
:1039E8001B791A467B6A9342B3D37B681B685A6972
:1039F8007B681B6802F400125A617B681B681846D2
:103A080003F03CF8034603F08043B3F1804F0AD13A
:103A1800786805F00DFB7B681B685A697B681B6832
:103A280002F080425A617B681B68184603F026F84A
:103A3800034603F00403042B15D17B681B685B68FD
:103A4800BB61BB6903F00403002B02D0786805F062
:103A5800FDFA7B681B6859687B681B68BA690A436A
:103A68005A6000E000BF3437BD4690BD80B582B0D3
:103A780000AF78600B46FB707B6893F89434012B99
:103A880001D1022312E07B68012283F894247B6829
:103A9800FA785A747B681B68FA781146184602F05F
:103AA80085FF7B68002283F8942400231846083792
:103AB800BD4680BD80B584B000AF78600846114629
:103AC8001A460346FB700B463B801346BB70002327
:103AD800FB7297F90330002B0FDAFB7803F00F0223
:103AE8001346DB0013449B0010337A6813440433F5
:103AF800FB60FB6801225A700FE0FB7803F00F02AD
:103B08001346DB0013449B0003F514737A681344CF
:103B18000433FB60FB6800225A70FB7803F00F0344
:103B2800DAB2FB681A703B88C3F30A02FB689A6032
:103B3800FB68BA781A71FB685B78002B04D0FB68C5
:103B48001B781A46FB685A83BB78022B02D1FB68A4
:103B580000225A717B6893F89434012B01D1022317
:103B68000EE07B68012283F894247B681B68F9685F
:103B7800184602F005F97B68002283F89424FB7A42
:103B880018461037BD4680BD80B584B000AF786058
:103B98000B46FB7097F90330002B0FDAFB7803F024
:103BA8000F021346DB0013449B0010337A6813445A
:103BB8000433FB60FB6801225A700FE0FB7803F0C6
:103BC8000F021346DB0013449B0003F514737A6855
:103BD80013440433FB60FB6800225A70FB7803F03F
:103BE8000F03DAB2FB681A707B6893F89434012BE0
:103BF80001D102230EE07B68012283F894247B68BC
:103C08001B68F968184602F043F97B68002283F8BC
:103C18009424002318461037BD4680BD80B586B071
:103C280000AFF8607A603B600B46FB72FB7A03F0EA
:103C38000F021346DB0013449B0003F51473FA6864
:103C4800134404337B617B697A68DA607B693A687C
:103C58001A617B6900225A617B6900225A70FB7ADB
:103C680003F00F03DAB27B691A70FB689B79012BAA
:103C780002D17A687B69DA61FB681868FB689B790E
:103C88001A46796902F0E0F9002318461837BD464C
:103C980080BD80B586B000AFF8607A603B600B46A7
:103CA800FB72FB7A03F00F021346DB0013449B0000
:103CB8001033FA68134404337B617B697A68DA60ED
:103CC8007B693A681A617B6900225A617B69012223
:103CD8005A70FB7A03F00F03DAB27B691A70FB683B
:103CE8009B79012B02D17A687B69DA61FB681868D5
:103CF800FB689B791A46796902F0A6F900231846F1
:103D08001837BD4680BD80B584B000AF78600B46DB
:103D1800FB70FB7803F00F037A681279934201D99C
:103D280001234FE097F90330002B0FDAFB7803F0FB
:103D38000F021346DB0013449B0010337A681344C8
:103D48000433FB60FB6801225A700DE0FA781346D1
:103D5800DB0013449B0003F514737A68134404339F
:103D6800FB60FB6800225A70FB6801229A70FB789E
:103D780003F00F03DAB2FB681A707B6893F8943487
:103D8800012B01D102231DE07B68012283F89424D2
:103D98007B681B68F968184602F034FDFB7803F06D
:103DA8000F03002B09D17B6818687B6899797B68B9
:103DB80003F29C431A4602F025FF7B68002283F831
:103DC8009424002318461037BD4680BD80B584B0C2
:103DD80000AF78600B46FB70FB7803F00F037A683E
:103DE8001279934201D9012342E097F90330002B5D
:103DF8000FDAFB7803F00F021346DB0013449B0035
:103E080010337A6813440433FB60FB6801225A704C
:103E18000FE0FB7803F00F021346DB0013449B000E
:103E280003F514737A6813440433FB60FB680022BB
:103E38005A70FB6800229A70FB7803F00F03DAB21D
:103E4800FB681A707B6893F89434012B01D1022324
:103E58000EE07B68012283F894247B681B68F9686C
:103E6800184602F03DFD7B68002283F89424002365
:103E780018461037BD4680BD80B584B000AF786065
:103E88000B46FB7097F90330002B0CDAFB7803F034
:103E98000F021346DB0013449B0010337A68134467
:103EA8000433FB600CE0FB7803F00F021346DB00E1
:103EB80013449B0003F514737A6813440433FB60BE
:103EC8007B681B68F968184602F05CFB0346FB72C6
:103ED800FB7A18461037BD4680BD80B58AB002AF60
:103EE800786039607B681B687B617B693B613A68F5
:103EF8001346DB0013449B0010337A6813440433E1
:103F0800FB60FB685A69FB681B699A4201D9012367
:103F18006BE0FB681A69FB685B69D31AFB61FB6895
:103F28009B68FA699A4202D9FB689B68FB61FB6946
:103F380003339B08BB612AE0FB681A69FB685B696D
:103F4800D31AFB61FB689B68FA699A4202D9FB683D
:103F58009B68FB61FB6903339B08BB61FB68D968FD
:103F68003B68DAB2FB6998B27B689B790093034699
:103F7800786902F0B1FBFB68DA68FB691A44FB68F0
:103F8800DA60FB685A69FB691A44FB685A613B6846
:103F98005A013B69134403F510639B699BB2BA69E4
:103FA8009A4209D8FB685A69FB681B699A4203D28E
:103FB800FB681B69002BBFD1FB681A69FB685B694A
:103FC8009A4211D83B6803F00F03012202FA03F367
:103FD800BB603B6903F500635A6BBB68DB43396917
:103FE80001F5006113404B63002318462037BD4696
:103FF80080BD000080B588B000AF786039607B680C
:104008001B68FB61FB69BB61FB693C3304331B68BC
:104018007B613B685A01BB69134403F530639B68B5
:104028003B617B689B79012B7BD13B6903F00803DB
:10403800002B15D07B69614A934240F2B9803B69F5
:1040480003F40043002B00F0B3803B685A01BB69BE
:10405800134403F530631A464FF400439360A7E016
:104068003B6903F02003002B09D03B685A01BB6968
:10407800134403F530631A462023936098E03B69A4
:1040880003F02803002B40F093807B694B4A93424E
:104098000FD93B6903F40043002B0AD03B685A014F
:1040A800BB69134403F530631A464FF40043936029
:1040B8007EE03A681346DB0013449B0003F5147353
:1040C8007A6813440433FB60FB681A6A3B68590139
:1040D800BB690B4403F530631B69C3F31203D21A9F
:1040E800FB685A613B68002B14D1FB681B69002BE5
:1040F80009D17B6818687B6803F29C431A46012142
:1041080002F080FD06E0FB68DA68FB685B691A4428
:10411800FB68DA603B68DBB21946786804F0C4FED5
:1041280046E07B69264A934224D13B6903F4004365
:10413800002B0AD03B685A01BB69134403F530636E
:104148001A464FF40043936032E03B6903F02003C2
:10415800002B08D03B685A01BB69134403F5306350
:104168001A46202393603B68DBB21946786804F04E
:104178009BFE1DE03B68002B14D179683A68134612
:10418800DB0013449B000B4403F519731B68002BD9
:1041980008D17B6818687B6803F29C431A460021A3
:1041A80002F030FD3B68DBB21946786804F07CFE0B
:1041B800002318462037BD4680BD00BF0A30544F43
:1041C8000A31544F80B586B000AF786039607B689B
:1041D8001B687B617B693B617B693C3304331B68EB
:1041E800FB603B685A013B69134403F530639B68E5
:1041F800BB60FB68154A93420ED9BB6803F40043C1
:10420800002B09D03B685A013B69134403F530631E
:104218001A464FF400439360786804F033FEFB6855
:104228000A4A93420CD97B689B79012B08D17B6899
:1042380018687B6803F29C431A46012102F0E2FCED
:10424800002318461837BD4680BD00BF0A30544FBA
:1042580080B485B000AF78600B46FB7013463B8096
:104268007B681B685B6ABB60FB78002B07D13B88C7
:1042780019047B681B68BA680A439A6228E07B685D
:104288001B689B6A1B0CBA681344BB600023FB7352
:104298000DE07B681A68FB7B40339B0013445B6826
:1042A8001B0CBA681344BB60FB7B0133FB73FA7BBE
:1042B800FB78013B9A42ECD33B8818047B68196869
:1042C800FB78013BBA68024340339B000B445A60B9
:1042D800002318461437BD465DF8047B704780B448
:1042E80083B000AF78600B467B807B681B687A8858
:1042F8005A62002318460C37BD465DF8047B7047A8
:1043080080B483B000AF78600B46FB7000BF0C37F9
:10431800BD465DF8047B704780B586B000AF786015
:104328007B68002B01D1012367E27B681B6803F0DF
:104338000103002B75D0884B9B6803F00C03042BFA
:104348000CD0854B9B6803F00C03082B12D1824BD1
:104358005B6803F48003B3F5800F0BD17E4B1B68B9
:1043680003F40033002B5BD07B685B68002B57D1CC
:10437800012342E27B685B68B3F5803F06D1764B48
:104388001B68754A43F4803313601DE07B685B68E3
:10439800B3F5A02F0CD1704B1B686F4A43F48023F0
:1043A80013606D4B1B686C4A43F4803313600BE059
:1043B800694B1B68684A23F480331360664B1B689B
:1043C800654A23F4802313607B685B68002B13D055
:1043D800FEF758FA386108E0FEF754FA02463B69DE
:1043E800D31A642B01D9032307E25B4B1B6803F440
:1043F8000033002BF0D014E0FEF744FA386108E0EF
:10440800FEF740FA02463B69D31A642B01D903230D
:10441800F3E1514B1B6803F40033002BF0D100E0AB
:1044280000BF7B681B6803F00203002B63D04A4B74
:104438009B6803F00C03002B0BD0474B9B6803F0E1
:104448000C03082B1CD1444B5B6803F48003002B3E
:1044580016D1414B1B6803F00203002B05D07B6883
:10446800DB68012B01D00123C7E13B4B1B6823F01C
:10447800F8027B681B69DB00374913430B603AE09D
:104488007B68DB68002B20D0344B01221A60FEF7D2
:10449800F9F9386108E0FEF7F5F902463B69D31AE5
:1044A800022B01D90323A8E12B4B1B6803F002035D
:1044B800002BF0D0284B1B6823F0F8027B681B699F
:1044C800DB00254913430B6015E0244B00221A60DA
:1044D800FEF7D8F9386108E0FEF7D4F902463B69DF
:1044E800D31A022B01D9032387E11B4B1B6803F066
:1044F8000203002BF0D17B681B6803F00803002B34
:1045080036D07B685B69002B16D0154B01221A60E8
:10451800FEF7B8F9386108E0FEF7B4F902463B69DE
:10452800D31A022B01D9032367E10B4B5B6F03F00E
:104538000203002BF0D01BE0094B00221A60FEF7A3
:10454800A1F938610EE0FEF79DF902463B69D31ADE
:10455800022B07D9032350E10038024000004742EC
:10456800800E4742884B5B6F03F00203002BEAD1B1
:104578007B681B6803F00403002B00F0978000237E
:10458800FB75814B1B6C03F08053002B0FD100236C
:10459800BB607D4B1B6C7C4A43F0805313647A4BA1
:1045A8001B6C03F08053BB60BB680123FB75774B22
:1045B8001B6803F48073002B18D1744B1B68734A73
:1045C80043F480731360FEF75DF9386108E0FEF785
:1045D80059F902463B69D31A022B01D903230CE18E
:1045E8006A4B1B6803F48073002BF0D07B689B68D0
:1045F800012B06D1644B1B6F634A43F00103136719
:104608001CE07B689B68052B0CD15F4B1B6F5E4AD7
:1046180043F0040313675C4B1B6F5B4A43F00103D1
:1046280013670BE0584B1B6F574A23F001031367BE
:10463800554B1B6F544A23F0040313677B689B6830
:10464800002B15D0FEF71EF938610AE0FEF71AF9BB
:1046580002463B69D31A41F28832934201D90323B7
:10466800CBE0494B1B6F03F00203002BEED014E0A4
:10467800FEF708F938610AE0FEF704F902463B69DB
:10468800D31A41F28832934201D90323B5E03E4B55
:104698001B6F03F00203002BEED1FB7D012B05D12C
:1046A800394B1B6C384A23F0805313647B689B6931
:1046B800002B00F0A180344B9B6803F00C03082BFF
:1046C8005CD07B689B69022B41D1314B00221A6078
:1046D800FEF7D8F8386108E0FEF7D4F802463B69DF
:1046E800D31A022B01D9032387E0274B1B6803F059
:1046F8000073002BF0D17B68DA697B681B6A1A4368
:104708007B685B6A9B011A437B689B6A5B08013B79
:104718001B041A437B68DB6A1B061B4913434B6067
:104728001B4B01221A60FEF7ADF8386108E0FEF76E
:10473800A9F802463B69D31A022B01D903235CE08E
:10474800114B1B6803F00073002BF0D054E0104BA2
:1047580000221A60FEF796F8386108E0FEF792F832
:1047680002463B69D31A022B01D9032345E0064BC5
:104778001B6803F00073002BF0D13DE07B689B6958
:10478800012B07D1012338E00038024000700040B7
:10479800600047421B4B5B68FB607B689B69012B91
:1047A80028D0FB6803F480027B68DB699A4221D138
:1047B800FB6803F03F027B681B6A9A421AD1FA68C9
:1047C80047F6C07313407A68526A9201934211D136
:1047D800FB6803F440327B689B6A5B08013B1B045F
:1047E8009A4207D1FB6803F070627B68DB6A1B069C
:1047F8009A4201D0012300E0002318461837BD462D
:1048080080BD00BF0038024080B584B000AF78603A
:1048180039607B68002B01D10123CCE0684B1B6811
:1048280003F007033A689A420CD9654B3A68D2B24A
:104838001A70634B1B6803F007033A689A4201D069
:104848000123B8E07B681B6803F00203002B20D02B
:104858007B681B6803F00403002B05D0594B9B6849
:10486800584A43F4E05393607B681B6803F00803DD
:10487800002B05D0534B9B68524A43F46043936026
:10488800504B9B6823F0F0027B689B684D491343AB
:104898008B607B681B6803F00103002B44D07B68A6
:1048A8005B68012B07D1474B1B6803F40033002BCF
:1048B80019D101237FE07B685B68022B03D07B68FA
:1048C8005B68032B07D13F4B1B6803F00073002B79
:1048D80009D101236FE03B4B1B6803F00203002B57
:1048E80001D1012367E0374B9B6823F003027B6803
:1048F8005B68344913438B60FDF7C4FFF8600AE036
:10490800FDF7C0FF0246FB68D31A41F28832934292
:1049180001D903234FE02B4B9B6803F00C027B6803
:104928005B689B009A42EBD1254B1B6803F0070399
:104938003A689A420CD2224B3A68D2B21A70204B8B
:104948001B6803F007033A689A4201D0012332E05A
:104958007B681B6803F00403002B08D0194B9B6885
:1049680023F4E0527B68DB68164913438B607B684D
:104978001B6803F00803002B09D0124B9B6823F433
:1049880060427B681B69DB000E4913438B6000F0B3
:1049980021F802460B4B9B681B0903F00F030A49D9
:1049A800CB5C22FA03F3094A1360094B1B681846CB
:1049B800FDF724FF002318461037BD4680BD00BF11
:1049C800003C024000380240089700080000002020
:1049D800040000202DE9B04F94B000AF00237B64A1
:1049E8000023FB6400233B640023BB64794B9B6872
:1049F80003F00C03082B0DD0082B00F2E180002BEC
:104A080002D0042B03D0DBE0734BBB64DBE0734BB9
:104A1800BB64D8E06F4B5B6803F03F037B646D4B6E
:104A28005B6803F48003002B63D06A4B5B689B09C7
:104A38000022BB63FA63BB6BC3F308033B63002329
:104A48007B63D7E90C4522462B464FF000004FF018
:104A58000001590141EAD261500102460B46214644
:104A6800511A3961294663EB01037B614FF000025B
:104A78004FF00003D7E904AB59468B01514643EA8E
:104A8800916351468A015146B2EB0108594663EBDE
:104A980001094FF000024FF000034FEAC90343EA4F
:104AA80058734FEAC80290469946234618EB030309
:104AB800BB602B4649EB0303FB604FF000024FF04D
:104AC8000003D7E9024529464B02214643EAD15360
:104AD80021464A02104619467B6C0022BB62FA62E4
:104AE800D7E90A23FBF76CFB02460B461346FB6427
:104AF80058E0384B5B689B09002218461146C0F302
:104B080008033B6200237B62D7E9088942464B468B
:104B18004FF000004FF00001590141EAD261500105
:104B280002460B464146B2EB010A494663EB010BCC
:104B38004FF000024FF000034FEA8B1343EA9A63E9
:104B48004FEA8A12B2EB0A0463EB0B054FF000023E
:104B58004FF00003EB0043EA5473E20014461D468D
:104B68004346E3183B604B4645EB03037B604FF03D
:104B780000024FF00003D7E9004529468B02214681
:104B880043EA915321468A02104619467B6C00225B
:104B9800BB61FA61D7E90623FBF712FB02460B4615
:104BA8001346FB640B4B5B681B0C03F003030133D8
:104BB8005B003B64FA6C3B6CB2FBF3F3BB6402E052
:104BC800054BBB6400BFBB6C18465037BD46BDE8FB
:104BD800B08F00BF003802400024F40000127A00B1
:104BE80080B400AF034B1B681846BD465DF8047BD4
:104BF800704700BF0000002080B582B000AF786029
:104C08007B68002B01D101237BE07B685B6A002B6A
:104C180008D17B685B68B3F5827F09D07B68002286
:104C2800DA6105E07B6800221A617B6800225A611C
:104C38007B6800229A627B6893F85130DBB2002BC4
:104C480006D17B68002283F850207868FDF788FC3D
:104C58007B68022283F851207B681B681A687B688E
:104C68001B6822F040021A607B685B6803F482725A
:104C78007B689B6803F404431A437B68DB6803F48E
:104C880000631A437B681B6903F002031A437B68BD
:104C98005B6903F001031A437B689B6903F40073A3
:104CA8001A437B68DB6903F038031A437B681B6A85
:104CB80003F0800342EA03017B689B6A03F4005215
:104CC8007B681B680A431A607B689B691B0C03F0AE
:104CD80004017B685B6A03F010027B681B680A4367
:104CE8005A607B681B68DA697B681B6822F400627B
:104CF800DA617B6800225A657B68012283F85120BB
:104D0800002318460837BD4680BD80B588B000AF7F
:104D1800F860B9603B601346FB80FDF7B3FDF861AE
:104D2800FB887B83FB6893F85130DBB2012B01D001
:104D380002232AE1BB68002B02D0FB88002B01D19B
:104D4800012322E1FB6893F85030012B01D10223A3
:104D58001BE1FB68012283F85020FB68032283F8DB
:104D68005120FB6800225A65FB68BA681A63FB6821
:104D7800FA889A86FB68FA88DA86FB6800229A63C2
:104D8800FB6800229A87FB680022DA87FB6800220A
:104D98005A64FB6800221A64FB689B68B3F5004FED
:104DA8000FD1FB681B681A68FB681B6822F0400279
:104DB8001A60FB681B681A68FB681B6842F480422B
:104DC8001A60FB681B681B6803F04003402B07D080
:104DD800FB681B681A68FB681B6842F040021A608F
:104DE800FB68DB68B3F5006F52D1FB685B68002B8A
:104DF80002D07B8B012B45D1FB681B6B1A88FB68A3
:104E08001B68DA60FB681B6B9A1CFB681A63FB68FB
:104E1800DB8E9BB2013B9AB2FB68DA8632E0FB6814
:104E28001B689B6803F00203022B12D1FB681B6B03
:104E38001A88FB681B68DA60FB681B6B9A1CFB68A6
:104E48001A63FB68DB8E9BB2013B9AB2FB68DA8679
:104E580018E0FDF717FD0246FB69D31A3A689A4233
:104E680003D83B68B3F1FF3F02D13B68002B09D15F
:104E7800FB68012283F85120FB68002283F8502048
:104E8800032382E0FB68DB8E9BB2002BC7D153E083
:104E9800FB685B68002B02D07B8B012B47D1FB683A
:104EA8001A6BFB681B680C3312781A70FB681B6B53
:104EB8005A1CFB681A63FB68DB8E9BB2013B9AB2F3
:104EC800FB68DA8633E0FB681B689B6803F0020323
:104ED800022B13D1FB681A6BFB681B680C33127822
:104EE8001A70FB681B6B5A1CFB681A63FB68DB8E25
:104EF8009BB2013B9AB2FB68DA8618E0FDF7C2FC68
:104F08000246FB69D31A3A689A4203D83B68B3F160
:104F1800FF3F02D13B68002B09D1FB68012283F8CF
:104F28005120FB68002283F8502003232DE0FB6802
:104F3800DB8E9BB2002BC6D1FA693968F86800F09D
:104F480059FA0346002B02D0FB6820225A65FB68F9
:104F58009B68002B0AD100237B61FB681B68DB6818
:104F68007B61FB681B689B687B617B69FB6801222E
:104F780083F85120FB68002283F85020FB685B6DA2
:104F8800002B01D0012300E0002318462037BD463E
:104F980080BD80B58AB000AFF860B9607A607B8068
:104FA80001237B62FDF76EFC3862FB6893F8513091
:104FB800FB77FB685B68BB617B88FB82FB7F012B0F
:104FC8000CD0BB69B3F5827F06D1FB689B68002BC8
:104FD80002D1FB7F042B01D002237FE1BB68002BA9
:104FE80005D07B68002B02D07B88002B01D10123E0
:104FF80074E1FB6893F85030012B01D102236DE175
:10500800FB68012283F85020FB6893F85130DBB22B
:10501800042B03D0FB68052283F85120FB6800228B
:105028005A65FB687A689A63FB687A88DA87FB684E
:105038007A889A87FB68BA681A63FB687A88DA867E
:10504800FB687A889A86FB6800221A64FB6800224B
:105058005A64FB681B681B6803F04003402B07D0A9
:10506800FB681B681A68FB681B6842F040021A60FC
:10507800FB68DB68B3F5006F7ED1FB685B68002BCB
:1050880002D0FB8A012B6CD1FB681B6B1A88FB686A
:105098001B68DA60FB681B6B9A1CFB681A63FB6869
:1050A800DB8E9BB2013B9AB2FB68DA8659E0FB685B
:1050B8001B689B6803F00203022B1BD1FB68DB8E85
:1050C8009BB2002B16D07B6A012B13D1FB681B6B9C
:1050D8001A88FB681B68DA60FB681B6B9A1CFB6804
:1050E8001A63FB68DB8E9BB2013B9AB2FB68DA86D7
:1050F80000237B62FB681B689B6803F00103012B9C
:1051080019D1FB68DB8F9BB2002B14D0FB681B689E
:10511800DA68FB689B6B92B21A80FB689B6B9A1CDF
:10512800FB689A63FB68DB8F9BB2013B9AB2FB6812
:10513800DA8701237B62FDF7A5FB02463B6AD31A97
:105148003A6B9A420DD83B6BB3F1FF3F09D0FB682D
:10515800012283F85120FB68002283F850200323A2
:10516800BCE0FB68DB8E9BB2002BA0D1FB68DB8F19
:105178009BB2002B9BD182E0FB685B68002B02D0BE
:10518800FB8A012B71D1FB681A6BFB681B680C3317
:1051980012781A70FB681B6B5A1CFB681A63FB6851
:1051A800DB8E9BB2013B9AB2FB68DA865DE0FB6856
:1051B8001B689B6803F00203022B1CD1FB68DB8E83
:1051C8009BB2002B17D07B6A012B14D1FB681A6B9A
:1051D800FB681B680C3312781A70FB681B6B5A1C2F
:1051E800FB681A63FB68DB8E9BB2013B9AB2FB68D3
:1051F800DA8600237B62FB681B689B6803F0010367
:10520800012B19D1FB68DB8F9BB2002B14D0FB68F4
:105218001B68DA68FB689B6BD2B21A70FB689B6BE1
:105228005A1CFB689A63FB68DB8F9BB2013B9AB2FE
:10523800FB68DA8701237B62FDF724FB02463B6AA1
:10524800D31A3A6B9A4203D83B6BB3F1FF3F02D1B2
:105258003B6B002B09D1FB68012283F85120FB68C6
:10526800002283F85020032338E0FB68DB8E9BB2D2
:10527800002B9CD1FB68DB8F9BB2002B97D13A6A3D
:10528800396BF86800F0B6F80346002B08D0FB68C5
:1052980020225A65FB68002283F8502001231DE074
:1052A800FB689B68002B0AD100233B61FB681B68E5
:1052B800DB683B61FB681B689B683B613B69FB687B
:1052C800012283F85120FB68002283F85020FB68F4
:1052D8005B6D002B01D0012300E00023184628371E
:1052E800BD4680BD80B588B000AFF860B9603B604E
:1052F8001346FB71FDF7C6FA0246BB6A9B1A3A6869
:105308001344FB61FDF7BEFAB861394B1B685B01BA
:105318001B0DFA6902FB03F37B6154E03B68B3F1B0
:10532800FF3F50D0FDF7AEFA0246BB69D31AFA69BF
:105338009A4202D9FB69002B3DD1FB681B685A6869
:10534800FB681B6822F0E0025A60FB685B68B3F5F3
:10535800827F11D1FB689B68B3F5004F04D0FB68CE
:105368009B68B3F5806F07D1FB681B681A68FB68F8
:105378001B6822F040021A60FB689B6AB3F5005F65
:105388000FD1FB681B681A68FB681B6822F400527F
:105398001A60FB681B681A68FB681B6842F40052B5
:1053A8001A60FB68012283F85120FB68002283F809
:1053B8005020032317E07B69002B01D10023FB61F8
:1053C8007B69013B7B61FB681B689A68BB6813407B
:1053D800BA689A420CBF01230023DBB21A46FB7954
:1053E8009A429BD1002318462037BD4680BD00BF96
:1053F8000000002080B588B002AFF860B9607A601C
:105408007B680093BB6801220221F868FFF76AFFF6
:105418000346002B07D0FB685B6D43F02002FB6856
:105428005A65032332E01B4B1B681B4AA2FB03236C
:105438005B0D4FF47A7202FB03F37B61FB685B68D8
:10544800B3F5827F12D17B680093BB68002280216C
:10545800F868FFF747FF0346002B16D0FB685B6D23
:1054680043F02002FB685A6503230FE07B69002B99
:105478000AD07B69013B7B61FB681B689B6803F072
:105488008003802BF2D000E000BF002318461837B5
:10549800BD4680BD00000020819F5E1680B582B0A9
:1054A80000AF78607B68002B01D1012341E07B6865
:1054B80093F83D30DBB2002B06D17B68002283F8DD
:1054C8003C207868FDF72CF97B68022283F83D20A0
:1054D8007B681A687B6804331946104600F02EF87A
:1054E8007B68012283F846207B68012283F83E20EE
:1054F8007B68012283F83F207B68012283F84020E3
:105508007B68012283F841207B68012283F84220CE
:105518007B68012283F843207B68012283F84420BA
:105528007B68012283F845207B68012283F83D20AF
:10553800002318460837BD4680BD000080B485B0FA
:1055480000AF786039607B681B68FB607B68464AFF
:10555800934213D07B68B3F1804F0FD07B68434AE6
:1055680093420BD07B68424A934207D07B68414AFA
:10557800934203D07B68404A934208D1FB6823F0EA
:105588007003FB603B685B68FA681343FB607B68E9
:10559800354A93422BD07B68B3F1804F27D07B6884
:1055A800324A934223D07B68314A93421FD07B68AA
:1055B800304A93421BD07B682F4A934217D07B68AE
:1055C8002E4A934213D07B682D4A93420FD07B68B2
:1055D8002C4A93420BD07B682B4A934207D07B68B6
:1055E8002A4A934203D07B68294A934208D1FB6830
:1055F80023F44073FB603B68DB68FA681343FB6085
:10560800FB6823F080023B685B691343FB607B689F
:10561800FA681A603B689A687B68DA623B681A68BD
:105628007B689A627B68104A934203D07B68124A6F
:10563800934203D13B681A697B681A637B6801222D
:105648005A617B681B6903F00103012B05D17B6854
:105658001B6923F001027B681A6100BF1437BD463D
:105668005DF8047B704700BF000001400004004063
:1056780000080040000C00400004014000400140C8
:10568800004401400048014000180040001C004050
:105698000020004084B080B584B000AF786007F186
:1056A8001C0080E80E0097F82130012B23D17B687D
:1056B8009B6B23F480327B689A637B68DB6823F4F6
:1056C800840323F040037A68D3607B68DB6823F4A3
:1056D80040127B68DA6097F82830012B05D17B6887
:1056E800DB6843F480127B68DA60786801F0E8FAD6
:1056F8000346FB731BE07B68DB6843F040027B6872
:10570800DA60786801F0DCFA0346FB7397F8253015
:10571800002B06D17B689B6B43F480327B689A63CD
:1057280005E07B689B6B23F480327B689A63BB7FC0
:10573800012B0BD17B689B6843F006027B689A605B
:105748007B689B6843F020027B689A60FB7B184665
:105758001037BD46BDE8804004B0704780B487B0BC
:1057680000AFF860B9601346FB71FB79022B65D175
:10577800BB68414A934206D9BB68404A934202D269
:105788000F237B6162E0BB683C4A934206D3BB6847
:105798003B4A934202D20E237B6157E0BB68384AEA
:1057A800934206D3BB68374A934202D20D237B61EA
:1057B8004CE0BB68334A934206D3BB68324A9342F3
:1057C80002D80C237B6141E0BB682F4A934206D97B
:1057D800BB682E4A934202D80B237B6136E0BB6834
:1057E8002A4A934206D9BB68294A934202D80A2317
:1057F8007B612BE0BB68264A934206D9BB68254AE1
:10580800934202D209237B6120E0BB68214A93427C
:1058180006D3BB68204A934202D808237B6115E06F
:10582800BB681D4A934206D9BB681C4A934202D200
:1058380007237B610AE006237B6107E0FB79002BE5
:1058480002D109237B6101E009237B61FB68DB68E6
:1058580023F47052FB68DA60FB68DA687B699B02A4
:1058680003F470531A43FB68DA60002318461C37A8
:10587800BD465DF8047B7047BFACD800C0E1E400CA
:105888000024F400807306019F491A01FF2C31019E
:105898003FA44C0100366E011FABA6010048E80189
:1058A80080B483B000AF78607B689B6843F00102E6
:1058B8007B689A60002318460C37BD465DF8047B68
:1058C800704780B483B000AF78607B689B6823F032
:1058D80001027B689A60002318460C37BD465DF8C4
:1058E800047B704780B584B000AF78600B46FB70CE
:1058F8000023FB607B68DB6823F0C0427B68DA60CA
:10590800FB78012B15D17B68DB6843F000527B687C
:10591800DA600A20FCF7C2FFFB680A33FB6078688C
:1059280001F03FF90346012B1ED0FB68C72BF0D9C5
:105938001AE0FB78002B15D17B68DB6843F08042C6
:105948007B68DA600A20FCF7A9FFFB680A33FB6072
:10595800786801F026F90346002B05D0FB68C72BB1
:10596800F0D901E0012305E0FB68C82B01D1012330
:1059780000E0002318461037BD4680BD84B080B5CE
:1059880086B000AF786007F1240080E80E0000239D
:10599800FB757B68FB6000233B6109E07A683B6923
:1059A80040339B00134400225A603B6901333B613A
:1059B8003B690E2BF2D997F82E30002B1CD1FB68CF
:1059C80003F500635B68FA6802F5006243F00203BE
:1059D80053607B689B6B43F400127B689A637B6817
:1059E8009B6B23F400227B689A637B689B6B23F490
:1059F80080227B689A630BE07B689B6B23F4001220
:105A08007B689A637B689B6B43F400227B689A638C
:105A1800FB6803F560631A460023136097F8293082
:105A2800012B0DD197F82730002B04D1002178687D
:105A380000F068F908E00121786800F063F903E0F4
:105A48000321786800F05EF91021786800F0FAF810
:105A58000346002B01D00123FB75786800F024F978
:105A68000346002B01D00123FB75FB6803F5006397
:105A78001A4600231361FB6803F500631A460023E6
:105A88005361FB6803F500631A460023D3610023C2
:105A98003B6143E03B695A01FB68134403F510631B
:105AA8001B6803F00043B3F1004F18D13B69002B8A
:105AB8000AD13B695A01FB68134403F510631A467F
:105AC8004FF00063136013E03B695A01FB6813440D
