:020000040800F2
:1000000000000220612D00081D2C0008252C00088E
:100010002D2C0008352C00083D2C000800000000A5
:10002000000000000000000000000000452C000857
:10003000532C000800000000612C00086F2C000801
:10004000B12D0008B12D0008B12D0008B12D000818
:10005000B12D0008B12D0008B12D0008B12D000808
:10006000B12D0008B12D0008B12D0008B12D0008F8
:10007000B12D0008B12D0008B12D0008B12D0008E8
:10008000B12D0008B12D0008B12D0008B12D0008D8
:10009000B12D0008B12D0008B12D0008B12D0008C8
:1000A000B12D00087D2C0008B12D0008B12D0008ED
:1000B000B12D0008B12D0008B12D0008B12D0008A8
:1000C000B12D0008B12D0008B12D0008B12D000898
:1000D000B12D0008B12D0008B12D0008B12D000888
:1000E000B12D0008B12D0008B12D0008B12D000878
:1000F000B12D0008B12D0008B12D0008B12D000868
:10010000B12D0008B12D0008B12D0008B12D000857
:10011000B12D0008B12D0008B12D0008B12D000847
:10012000B12D0008B12D0008B12D0008B12D000837
:10013000B12D0008B12D0008B12D0008B12D000827
:10014000B12D0008B12D0008B12D0008912C000838
:10015000B12D0008B12D0008B12D0008B12D000807
:10016000B12D0008B12D0008B12D0008B12D0008F7
:10017000B12D0008B12D0008B12D000800000000CD
:08018000B12D0008B12D0008AB
:1001880010B5054C237833B9044B13B10448AFF3C9
:1001980000800123237010BDA00100200000000092
:1001A800409D000808B5034B1BB103490348AFF352
:1001B800008008BD00000000A4010020409D000848
:1001C80081F0004102E000BF83F0004330B54FEA00
:1001D80041044FEA430594EA050F08BF90EA020F6D
:1001E8001FBF54EA000C55EA020C7FEA645C7FEA00
:1001F800655C00F0E2804FEA5454D4EB5555B8BF23
:100208006D420CDD2C4480EA020281EA030382EA93
:10021800000083EA010180EA020281EA0303362D25
:1002280088BF30BD11F0004F4FEA01314FF4801CF8
:100238004CEA113102D0404261EB410113F0004F0A
:100248004FEA03334CEA133302D0524263EB4303C1
:1002580094EA050F00F0A780A4F10104D5F1200E5F
:100268000DDB02FA0EFC22FA05F2801841F10001BA
:1002780003FA0EF2801843FA05F359410EE0A5F18E
:1002880020050EF1200E012A03FA0EFC28BF4CF0BF
:10029800020C43FA05F3C01851EBE37101F0004575
:1002A80007D54FF0000EDCF1000C7EEB00006EEB82
:1002B8000101B1F5801F1BD3B1F5001F0CD349080C
:1002C8005FEA30004FEA3C0C04F101044FEA445263
:1002D80012F5800F80F09A80BCF1004F08BF5FEAEA
:1002E800500C50F1000041EB045141EA050130BDCA
:1002F8005FEA4C0C404141EB0101013C28BFB1F5DC
:10030800801FE9D291F0000F04BF01460020B1FA26
:1003180081F308BF2033A3F10B03B3F120020CDAF9
:100328000C3208DD02F1140CC2F10C0201FA0CF0D7
:1003380021FA02F10CE002F11402D8BFC2F1200C3C
:1003480001FA02F120FA0CFCDCBF41EA0C019040F2
:10035800E41AA2BF01EB0451294330BD6FEA04043B
:100368001F3C1CDA0C340EDC04F11404C4F1200226
:1003780020FA04F001FA02F340EA030021FA04F338
:1003880045EA030130BDC4F10C04C4F1200220FA8F
:1003980002F001FA04F340EA0300294630BD21FACD
:1003A80004F0294630BD94F0000F83F4801306BF93
:1003B80081F480110134013D4EE77FEA645C18BF87
:1003C8007FEA655C29D094EA050F08BF90EA020F1E
:1003D80005D054EA000C04BF1946104630BD91EA16
:1003E800030F1EBF0021002030BD5FEA545C05D119
:1003F8004000494128BF41F0004130BD14F5800458
:100408003CBF01F5801130BD01F0004545F0FE41CB
:1004180041F470014FF0000030BD7FEA645C1ABF00
:10042800194610467FEA655C1CBF0B46024650EA37
:10043800013406BF52EA033591EA030F41F4002163
:1004480030BD00BF90F0000F04BF0021704730B5E9
:100458004FF4806404F132044FF000054FF00001BE
:1004680050E700BF90F0000F04BF0021704730B57F
:100478004FF4806404F1320410F0004548BF404254
:100488004FF000013EE700BF42004FEAE2014FEAA9
:1004980031014FEA02701FBF12F07F4393F07F4F84
:1004A80081F06051704732F07F4208BF704793F087
:1004B8007F4F04BF41F40021704730B54FF460749A
:1004C80001F0004521F000411CE700BF50EA01029D
:1004D80008BF704730B54FF000050AE050EA010246
:1004E80008BF704730B511F0004502D5404261EBB6
:1004F80041014FF4806404F132045FEA915C3FF4F7
:10050800D8AE4FF003025FEADC0C18BF03325FEA93
:10051800DC0C18BF033202EBDC02C2F1200300FA44
:1005280003FC20FA02F001FA03FE40EA0E0021FA69
:1005380002F11444BDE600BF70B54FF0FF0C4CF457
:10054800E06C1CEA11541DBF1CEA135594EA0C0F09
:1005580095EA0C0F00F0DEF82C4481EA030621EA44
:100568004C5123EA4C5350EA013518BF52EA03357F
:1005780041F4801143F4801338D0A0FB02CE4FF031
:100588000005E1FB02E506F00042E0FB03E54FF061
:100598000006E1FB03569CF0000F18BF4EF0010E59
:1005A800A4F1FF04B6F5007F64F5407404D25FEA55
:1005B8004E0E6D4146EB060642EAC62141EA555108
:1005C8004FEAC52040EA5E504FEACE2EB4F1FD0C4A
:1005D80088BFBCF5E06F1ED8BEF1004F08BF5FEAC8
:1005E800500E50F1000041EB045170BD06F000467A
:1005F80046EA010140EA020081EA0301B4EB5C0427
:10060800C2BFD4EB0C0541EA045170BD41F480111E
:100618004FF0000E013C00F3AB8014F1360FDEBF43
:10062800002001F0004170BDC4F10004203C35DA1F
:100638000C341BDC04F11404C4F1200500FA05F3A2
:1006480020FA04F001FA05F240EA020001F0004243
:1006580021F0004110EBD37021FA04F642EB0601B9
:100668005EEA430E08BF20EAD37070BDC4F10C04E3
:10067800C4F1200500FA04F320FA05F001FA04F2A7
:1006880040EA020001F0004110EBD37041F1000193
:100698005EEA430E08BF20EAD37070BDC4F120059E
:1006A80000FA05F24EEA020E20FA04F301FA05F206
:1006B80043EA020321FA04F001F0004121FA04F2AE
:1006C80020EA020000EBD3705EEA430E08BF20EA7E
:1006D800D37070BD94F0000F0FD101F000464000B8
:1006E80041EB010111F4801F08BF013CF7D041EA3A
:1006F800060195F0000F18BF704703F0004652003E
:1007080043EB030313F4801F08BF013DF7D043EA0E
:100718000603704794EA0C0F0CEA135518BF95EAC4
:100728000C0F0CD050EA410618BF52EA4306D1D14B
:1007380081EA030101F000414FF0000070BD50EA6A
:10074800410606BF1046194652EA430619D094EAF4
:100758000C0F02D150EA013613D195EA0C0F05D1DE
:1007680052EA03361CBF104619460AD181EA030132
:1007780001F0004141F0FE4141F470014FF00000EA
:1007880070BD41F0FE4141F4780170BD70B54FF085
:10079800FF0C4CF4E06C1CEA11541DBF1CEA135505
:1007A80094EA0C0F95EA0C0F00F0A7F8A4EB0504E7
:1007B80081EA030E52EA03354FEA013100F08880DE
:1007C8004FEA03334FF0805545EA131343EA1263A7
:1007D8004FEA022245EA111545EA10654FEA00265C
:1007E8000EF000419D4208BF964244F1FD0404F515
:1007F800407402D25B084FEA3202B61A65EB030571
:100808005B084FEA32024FF480104FF4002CB6EB2D
:10081800020E75EB030E22BFB61A754640EA0C00AD
:100828005B084FEA3202B6EB020E75EB030E22BFED
:10083800B61A754640EA5C005B084FEA3202B6EB2E
:10084800020E75EB030E22BFB61A754640EA9C00ED
:100858005B084FEA3202B6EB020E75EB030E22BFBD
:10086800B61A754640EADC0055EA060E18D04FEA7B
:10087800051545EA16754FEA06164FEAC30343EA1B
:1008880052734FEAC2025FEA1C1CC0D111F4801FE8
:100898000BD141EA00014FF000004FF0004CB6E7E1
:1008A80011F4801F04BF01430020B4F1FD0C88BF80
:1008B800BCF5E06F3FF6AFAEB5EB030C04BFB6EB8B
:1008C800020C5FEA500C50F1000041EB045170BD7E
:1008D8000EF0004E4EEA113114EB5C04C2BFD4EBAB
:1008E8000C0541EA045170BD41F480114FF0000E2F
:1008F800013C90E645EA060E8DE60CEA135594EAAB
:100908000C0F08BF95EA0C0F3FF43BAF94EA0C0FAD
:100918000AD150EA01347FF434AF95EA0C0F7FF422
:1009280025AF104619462CE795EA0C0F06D152EA76
:1009380003353FF4FDAE1046194622E750EA41065A
:1009480018BF52EA43067FF4C5AE50EA41047FF46B
:100958000DAF52EA43057FF4EBAE12E74FEA4102CE
:1009680012F5001215D211D56FF47873B3EB6252F9
:1009780012D94FEAC12343F0004343EA505311F020
:10098800004F23FA02F018BF404270474FF00000B2
:10099800704750EA013005D111F0004008BF6FF0F0
:1009A800004070474FF00000704700BF53B94AB984
:1009B800002908BF00281CBF4FF0FF314FF0FF305F
:1009C80000F06AB9ADF1080C6DE904CE00F006F844
:1009D800DDF804E0DDE9022304B070472DE9F047B3
:1009E800089D0C46002B4ED194468C458646B2FA9B
:1009F80082F262D94AB1C2F12003914020FA03F38E
:100A08000CFA02FC194300FA02FE4FEA1C471FFACF
:100A18008CF6B1FBF7F44FEA1E4307FB141143EAC7
:100A2800014304FB06F199420AD91CEB030304F1C4
:100A3800FF3080F01281994240F20F81023C6344FA
:100A4800591A1FFA8EF3B1FBF7F007FB101143EAAE
:100A5800014300FB06F69E420AD91CEB030300F192
:100A6800FF3180F0FC809E4240F2F98063440238F6
:100A78009B1B40EA044000211DB1D3400022C5E978
:100A88000032BDE8F0878B4205D90DB1C5E90001F8
:100A980000210846F5E7B3FA83F1002946D1A342BD
:100AA80002D39042C0F0F080861A64EB0303012061
:100AB800002DE6D0C5E90063E3E7002A40F0908006
:100AC800A1EB0C044FEA1C481FFA8CF70121B4FB78
:100AD800F8F64FEA1E4308FB164443EA044307FBB3
:100AE80006F0984208D91CEB030306F1FF3402D242
:100AF800984200F2CD8026461C1A1FFA8EF3B4FBEA
:100B0800F8F008FB104443EA044300FB07F79F4250
:100B180008D91CEB030300F1FF3402D29F4200F214
:100B2800B0802046DB1B40EA0640A5E7C1F120065D
:100B38008B4022FA06F71F4320FA06FC04FA01F359
:100B480043EA0C03F44000FA01F8380C4FEA134961
:100B5800B4FBF0FE1FFA87FC00FB1E4449EA04447C
:100B68000EFB0CF9A14502FA01F20AD93C190EF163
:100B7800FF3A80F08480A14540F28180AEF1020EF8
:100B88003C44A4EB09041FFA83F9B4FBF0F300FB1F
:100B9800134449EA044403FB0CFCA44507D93C1957
:100BA80003F1FF3067D2A44565D9023B3C4443EAD0
:100BB8000E40A0FB0293A4EB0C049C42CE469C463C
:100BC80051D34ED055B1B8EB0E0364EB0C0404FAC4
:100BD80006F6CB401E43CC40C5E90064002150E72F
:100BE800C2F1200320FA03F10CFA02FC24FA03F301
:100BF80094400C434FEA1C4800FA02FE1FFA8CF797
:100C0800B3FBF8F008FB1031230C43EA014300FB67
:100C180007F1994208D91CEB030300F1FF362CD2E7
:100C280099422AD9023863445B1AA4B2B3FBF8F19B
:100C380008FB113344EA034401FB07F3A34208D934
:100C48001CEB040401F1FF3613D2A34211D9023977
:100C58006444E41A41EA004139E70446F0E60846EC
:100C680006E7C845AED2B9EB020E63EB070C0138B4
:100C7800A8E73146EDE7034699E73046D4E7D6467C
:100C88007FE7634402384DE70646234608460FE7E8
:100C9800023E634430E700BF704700BF80B483B0B2
:100CA80000AF78607B68002BB8BF5B4218460C37F2
:100CB800BD465DF8047B704780B58AB002AF034635
:100CC800FB7100237B6100233B76FB7903F07F03F4
:100CD800DBB23B75002210210F4802F0ABFB07F195
:100CE8000C0207F11401C823009305230B4804F0F4
:100CF8004CFC01221021084802F09CFBD7F80D306B
:100D0800BB60BB68FB61FB691BBA00BFBB60BB680B
:100D180018462037BD4680BD00000240BC010020B7
:100D280080B586B000AF03463960FB710023FB60D5
:100D380000233B74FB7963F07F03DBB23B733B68B2
:100D48007B617B691BBA00BF3B6007F10C03013371
:100D58003A681A6000221021094802F06BFB07F17B
:100D68000C01C8230522074804F0CBFA0122102100
:100D7800034802F05FFB00BF1837BD4680BD00BFC7
:100D880000000240BC01002080B489B000AFF860C8
:100D98003B1D83E806007A68FB6813403A7AD34023
:100DA800FB61BB7A002B0FD07B683A7AD340BB61DA
:100DB800BB69DB435B08BA6913407B61FA697B69ED
:100DC8005A407B69D31AFB61FB6918462437BD4634
:100DD8005DF8047B704780B584B000AF3B4683E87C
:100DE80003007B791846FFF767FFF8603B4693E8F6
:100DF8000600F868FFF7C8FF034618461037BD46D7
:100E080080BD80B485B000AFF860381D80E806006A
:100E18003B607B68DA43FB681A403B7A19463B68BB
:100E280003FA01F17B680B40134318461437BD469B
:100E38005DF8047B704780B586B000AF07F1080302
:100E480083E803007A607B7B1846FFF735FF7861FB
:100E58007B6807F1080206CA7869FFF7D2FF786154
:100E68007B7B79691846FFF75BFF00BF1837BD46E3
:100E780080BD000080B586B002AF78600021786838
:100E880001F034F800210120FFF74AFF0020FFF7A6
:100E980013FF0346794A93420CBF01230023DBB2B8
:100EA800002B1DD001228021754802F0C3FAC8200A
:100EB80001F0EEFF00228021714802F0BBFA012107
:100EC8000120FFF72DFF0020FFF7F6FE0346B3F5DC
:100ED800803F0CBF01230023DBB2002B19D009E0AF
:100EE80001220221674802F0A5FA0021786800F083
:100EF800FDFFC0E001220221624802F09BFA0122B4
:100F08000121604802F096FA0021786800F0EEFFAF
:100F1800B1E000216420FFF703FF7B68B3F87A2073
:100F28007B6893F87C107B6893F87D3000930B46C0
:100F38000021786801F0E0F87B6893F872107B680C
:100F480093F860301A46786800F0F2FF7B6893F8EF
:100F580073301946786801F0C3FA7B6819467868D7
:100F680001F010F87B6844331946786801F09EF95F
:100F78004FF49671786800F0B5FE034683F00103DC
:100F8800DBB2002B09D0012202213E4802F052FABE
:100F98000021786800F0AAFF6DE07B68B3F87E1046
:100FA8007B68B3F880301A46786801F05DF97B6891
:100FB8000022C3F888207A6892F88B3043F0040343
:100FC80082F88B307A6892F88A3043F0080382F806
:100FD8008A307B68D3F88810786801F0ABFB7B68AF
:100FE8001A331946786801F0D5F87C20FFF764FEBB
:100FF8000346FB73FA7B7B68C3F884200121786879
:1010080000F074FF0721786801F060F805E07B685C
:101018005C331946786800F00BF97B6893F86E30FA
:1010280083F00103DBB2002BF1D10021786801F0D5
:101038001DFA01228021124802F0FCF90122012147
:10104800104802F0F7F9012202210E4802F0F2F9E5
:101058004FF4C87001F01CFF00228021084802F0FC
:10106800E9F900220121074802F0E4F900220221EF
:10107800044802F0DFF91037BD4680BD31373634F9
:10108800000C02400010024080B588B000AF7860C4
:101098000B467B80786801F073FA03467B61B7F9E9
:1010A80002301B0407EE903AF8EEE77A17EE900A42
:1010B800FFF7EAF94FF00002444BFFF767FB0246DF
:1010C8000B4610461946FFF749FC03463B61786812
:1010D80001F028FA0346FB73786801F0E9F9034642
:1010E800BB7300220021786801F0FCFA01217868BE
:1010F80001F0F6F97B691BB21946786801F02CFA01
:101108000023FB830DE0B7F91E30002219467868EA
:1011180001F0E8FA022001F0BBFEFB8B14339BB20E
:10112800FB837B68B3F98230B7F91E209A42EADD67
:10113800B7F90230002B19DD0023BB8310E07B696F
:101148009AB2BB8B13449BB21BB21946786801F064
:1011580003FA052001F09CFEBB8BFF339BB2BB83D7
:10116800B7F91C303A699A42E9DA18E000237B8320
:1011780010E07B699AB27B8B13449BB21BB2194671
:10118800786801F0E9F9052001F082FE7B8BFF3BCE
:101198009BB27B83B7F91A303A699A42E9DD00229B
:1011A8000021786801F09EFA0021786801F0D4F9EE
:1011B800FB7B1946786801F093F9BB7B1946786880
:1011C80001F054F900BF2037BD4680BD008076404D
:1011D80080B483B000AF78600B46FB7013463B8049
:1011E8007B683A88A3F88E207B68FA7883F88C208D
:1011F80000BF0C37BD465DF8047B704780B582B0F0
:1012080000AF78607B6893F88C30DBB2002B0BD092
:101218007B68002283F88C207B68B3F88E301BB281
:1012280019467868FFF730FF00BF0837BD4680BD14
:1012380080B584B000AF786039607A6892F88B30F6
:101248006FF3861382F88B307A6892F88B306FF3DD
:10125800041382F88B307B68D3F88810786801F023
:1012680069FA7B685C3316223968184608F056FD1F
:101278003B685B791A465F4B93E80300FFF7DBFD99
:101288003B689B791A465C4B93E80300FFF7D3FD54
:101298003B68DB791A46594B93E80300FFF7CBFD0F
:1012A8003B685B7A1A46564B93E80300FFF7C3FD89
:1012B8003B689B7A1A46534B93E80300FFF7BBFD44
:1012C8003B681B7A1A46504B93E80300FFF7B3FDBF
:1012D8003B685B881A464D4B93E80300FFF7ABFD6C
:1012E8003B68B3F90C301A46494B93E80300FFF703
:1012F800A2FD3B68B3F90E301A46464B93E803004B
:10130800FFF799FD7B68092283F86F207B68092223
:1013180083F870207B6893F86F301A463E4B93E849
:101328000300FFF788FD7B6893F870301A463B4B43
:1013380093E80300FFF77FFD394B002293E8030091
:10134800FFF779FD786800F06FF85320FFF7B4FCD9
:1013580003461BB21946786801F0FEF80121786847
:1013680001F0BEF87B68B3F982301946786800F05E
:101378005DFB0023FB7305E0786800F055F9FB7B03
:101388000133FB737B6893F86E3083F00103DBB2A3
:10139800002B02D0FB7B022BEED97B6893F86E30D2
:1013A80083F00103DBB2002B09D0012202211D4882
:1013B80002F040F80021786800F098FD17E07B689B
:1013C80093F87730012B04D10321786801F088F86D
:1013D8000DE07B6893F87730022B04D07B6893F894
:1013E8007730032B03D10621786801F079F810379C
:1013F800BD4680BD709E0008789E0008809E00084B
:10140800889E0008909E0008989E0008A09E0008EC
:10141800B09E0008A89E0008709F0008609F000802
:10142800689F00080010024080B588B000AF78605F
:10143800786801F005F938610021786801F0EEF864
:10144800786801F06FF80346FB73786801F030F8AC
:101458000346BB73704B002293E80300FFF7EBFCD5
:101468000021786801F078F80121786801F038F8EF
:1014780000220021786801F035F90121786800F030
:10148800F5FF0023FB830DE0B7F91E300022194653
:10149800786801F027F9052001F0FAFCFB8B14337A
:1014A8009BB2FB837B68B3F98230B7F91E209A425E
:1014B800EADD5A4B93E80300FFF78DFC0346BB8334
:1014C8000023BB8100237B8300233B830023FB8213
:1014D8000023BB8237E0B7F914301946786801F069
:1014E8003BF80A2001F0D4FCB7F918309BB201335D
:1014F8009BB23B83BB8BBB81484B93E80300FFF750
:101508006AFC0346BB83B7F91C20B7F90C309A4232
:1015180005DAB7F91A309BB201339BB27B83404B93
:1015280093E80300FFF757FC0346002B14BF012381
:101538000023DBB2002B02D0FB8A0133FB82BB8A7B
:101548002F339BB2BB82B7F9143040F6FE72934238
:10155800C1DD786801F074F802463B691344194606
:10156800786801F05BF800220021786801F0BAF889
:10157800FB7B1946786800F0B3FFBB7B1946786897
:1015880000F074FFFA8AB7F91830D90F0B445B10D2
:101598001BB29A42CCBF01230023FB72B7F9183063
:1015A800DA0F13445B101BB2B7F91A209A42CCBF6A
:1015B80001230023DAB27B6883F864207B6893F800
:1015C8006330FA7A9A4216D07B6893F8643083F0D5
:1015D8000103DAB27B6883F86420012202211148F2
:1015E80001F028FF4FF4967001F052FC002202210E
:1015F8000C4801F01FFF7B68FA7A83F861207B684A
:10160800FA7A83F862207B68FA7A83F8632000BF4D
:101618002037BD4680BD00BF989E0008C09E0008C8
:10162800F09F00080010024080B58CB000AF7860D1
:101638007B6893F87230022B06D07B6893F872307F
:10164800032B01D00123E8E15023FB820A23BB824C
:10165800786800F095FF03467B8243F6FF733B8270
:10166800012387F82F30786800F05CFF0346FB738E
:10167800786800F01DFF0346BB73002200217868DC
:1016880001F030F80121786800F02AFFB7F912302C
:101698001946786800F060FF0023BB850DE0B7F9B4
:1016A8002C3000221946786801F01CF8022001F05D
:1016B800EFFBBB8D14339BB2BB85B7F92C207B683D
:1016C800B3F982305B00AB4981FB0301DB17CB1A0E
:1016D8009A42E4DD0023BB8100237B8500233B8500
:1016E8000023FB8488E00023BB84FA8C7B8A1344A4
:1016F8009BB21BB21946786800F02EFF052001F056
:10170800C7FB786800F03CFF03469AB27B8AD31A7D
:101718009BB2BB81B7F90C20B7F92630D31A002B3E
:10172800B8BF5B427B84B7F90C20B7F92630134465
:10173800002BB8BF5B423B841DE0786800F020FFB7
:1017480003469AB27B8AD31A9BB2BB81B7F90C20A5
:10175800B7F92630D31A002BB8BF5B427B84B7F9A0
:101768002620B7F90C30D31A002BB8BF5B423B8454
:101778000A2001F08DFBB7F9223040F6C4129342DB
:101788000CDDB7F9203040F6C412934206DDBB8C5D
:101798005A1CBA844F2B01D8012300E00023002BE8
:1017A800CBD1B7F92220B7F920309A4205DDB7F935
:1017B80028309BB201339BB23B85BB8C4F2B17D98A
:1017C8007B8D01337B857B8D0A2B11D9002387F80C
:1017D8002F3001220221684801F02CFE4FF4967048
:1017E80001F056FB00220221634801F023FE0AE0C3
:1017F800FB8CFF339BB2FB84B7F9263043F6FE72AD
:1018080093427FF770AF786800F0BAFE03461A4635
:10181800B7F9123093420CBF01230023DBB2002B2F
:1018280010D001220221544801F004FE4FF47A70CE
:1018380001F02EFB002202214F4801F0FBFD00239E
:1018480087F82F3097F82F30002B00F0A08043F650
:10185800FF73FB8396E00023BB83FA8B7B8A1344D8
:101868009BB21BB21946786800F076FE052001F09D
:101878000FFB786800F084FE03469AB27B8AD31A7D
:101888009BB2BB81B7F90C20B7F91E30D31A002BD5
:10189800B8BF5B427B83B7F90C20B7F91E301344FD
:1018A800002BB8BF5B423B831DE0786800F068FE00
:1018B80003469AB27B8AD31A9BB2BB81B7F90C2034
:1018C800B7F91E30D31A002BB8BF5B427B83B7F938
:1018D8001E20B7F90C30D31A002BB8BF5B423B83EC
:1018E8000A2001F0D5FAB7F91A3040F6C41293422B
:1018F8000CDDB7F9183040F6C412934206DDBB8BF5
:101908005A1CBA834F2B01D8012300E00023002B77
:10191800CBD1B7F91A20B7F918309A4205DDB7F9D3
:1019280028309BB201339BB23B85BB8B4F2B25D90B
:101938007B8D01337B857B8D0A2B1FD9002387F88C
:101948002F30012201210C4801F074FD01220221EF
:10195800094801F06FFD962001F09AFA0022012152
:10196800054801F067FD00220221034801F062FDED
:101978000DE000BF5655555500100240FB8BFF3B4C
:101988009BB2FB83B7F91E30002B3FF764AFB7F962
:101998002830502B24DD7B6893F87730012B1FD13A
:1019A8007B6893F8643083F00103DAB27B6883F8CC
:1019B8006420012202211B4801F03CFD4FF496707F
:1019C80001F066FA00220221164801F033FD7B6817
:1019D80093F864301A46144B93E80300FFF72BFA88
:1019E80000220021786800F07DFE0021786800F070
:1019F800B3FDFB7B1946786800F072FDBB7B194686
:101A0800786800F033FD97F82F30002B03D07B68FF
:101A1800012283F86E2097F82F3018463037BD46DC
:101A280080BD00BF00100240989E000880B588B0B5
:101A380000AF78600B467B807B6893F87230022B8E
:101A480005D07B6893F87230032B40F0F3807868F8
:101A580000F068FD0346FB74786800F029FD034632
:101A6800BB7400220021786800F03CFE734A07F13D
:101A7800080392E8030083E803007B6893F8773053
:101A8800012B0BD16E4A07F1080392E8030083E8A3
:101A980003000021786800F0D9F818E07B6893F813
:101AA8007730022B04D07B6893F87730032B0ED164
:101AB80000214120FFF734F900214720FFF730F9D2
:101AC800604A07F1080392E8030083E80300786896
:101AD80000F096FD03463B82002207F1080393E8D5
:101AE8000300FFF7A8F9B7F910301946786800F035
:101AF80033FD0121786800F0F3FC0023FB830DE03F
:101B0800B7F91E3000221946786800F0EBFD032073
:101B180001F0BEF9FB8B0A339BB2FB83B7F91E2099
:101B2800B7F902309A42EBDD786800F029FD0346E8
:101B3800BB83322001F0ACF900237B8300233B8375
:101B48000023FB8219E0B7F91C20B7F91A30D31A21
:101B5800002BB8BF5B42632B03DCFB8A0133FB829B
:101B680001E00023FB82BB8B7B83786800F008FDD3
:101B78000346BB830A2001F08BF9FB8A1D2B0AD888
:101B8800B7F918309AB2013292B23A83B3F57A7F34
:101B980001DA012300E00023002BD4D10022002128
:101BA800786800F09FFD3A8ABB8BD31A9BB2BB8240
:101BB800B7F91430002B0DD1C82001F069F90122C2
:101BC8000221214801F036FC41F2883001F060F929
:101BD8000123BB82B7F914301A4607F1080393E8CA
:101BE8000300FFF728F97B6893F87730012B04D1BD
:101BF8007B68BA8AA3F868200DE07B6893F8773091
:101C0800022B04D07B6893F87730032B03D17B68D1
:101C1800BA8AA3F868200021786800F09DFCFB7C54
:101C28001946786800F05CFCBB7C1946786800F0BF
:101C38001DFC00E000BF2037BD4680BD589D000850
:101C4800B09E0008489F00080010024080B584B08C
:101C580000AF78600B46FB702820FFF72DF803468D
:101C6800FB60FA6813461B049B1A7A68B2F85E2078
:101C780093FBF2F3BB60BB689BB25B429BB21AB2A8
:101C88007B68A3F86A20FB78002B13D07B68B3F934
:101C980068309AB27B6893F860301946BB689BB28B
:101CA80011FB03F39BB213449BB21AB27B68A3F8EF
:101CB800682008E07B68B3F96A301A46084B93E855
:101CC8000300FFF7B8F8786800F0CAFC0346194625
:101CD800786800F0A3FC00BF1037BD4680BD00BF88
:101CE800A89E00082DE9B04F96B000AFF8610B46EA
:101CF8007B837B8B7B8700237B654FF000024FF053
:101D08000003C7E912234FF000024FF00003C7E9B0
:101D1800102300210320FFF703F8F86900F002FC04
:101D2800034687F83930F86900F0C2FB034687F8A4
:101D380038300021F86900F099FB642001F0A8F818
:101D4800FB69B3F85030FB87FB69B3F85230BB87A7
:101D580001F092F8786343E000210320FEF7E0FFEA
:101D68000220FEF7A9FFB862BB6AFB84BB6A1B0CA2
:101D7800BB84FA8FFB8CD31A002BB8BF5B4242F2AC
:101D88000F7293422CDCBA8FBB8CD31A002BB8BFCE
:101D98005B4242F20F72934222DCFB8C00221C460B
:101DA8001546D7E9122312EB040A43EB050BC7E9E2
:101DB80012ABBB8C002298469146D7E9102312EB50
:101DC8000801396043EB09037B60D7E90023C7E9C1
:101DD80010237B6D01337B65FB8CFB87BB8CBB873A
:101DE80001F04AF802467B6BD21A7B8F9A4234BFC5
:101DF80001230023DBB2002BAED17B6D00223B61B7
:101E08007A61D7E90423D7E91201FEF7CFFD02462C
:101E18000B4613463B637B6D0022BB60FA60D7E933
:101E28000223D7E91001FEF7C1FD02460B4613460F
:101E3800FB62D7E91223642A73F100031DD3D7E9A3
:101E48001023642A73F1000317D33B6BA3F5FF43F8
:101E58007F3B1846FEF722FF034641F28832934241
:101E68000BDCFB6AA3F5FF437F3B1846FEF716FF22
:101E7800034641F28832934201DD012300E000234A
:101E8800002B0AD001220221174801F0D3FAFB697E
:101E9800002283F85820002320E03B6B9AB2FB69AC
:101EA800A3F85020FB6A9AB2FB69A3F85220FB6999
:101EB80044331946F86900F089FA97F83930194619
:101EC800F86900F00DFB97F838301946F86900F00A
:101ED800CDFAFB69012283F85820012318465837A8
:101EE800BD46BDE8B08F00BF0010024080B582B08B
:101EF80000AF78600B46FB70FB78002B09D17B683C
:101F0800002283F8782000228021084801F092FA04
:101F180008E07B68012283F87820012280210348A9
:101F280001F088FA00BF0837BD4680BD00100240A6
:101F380080B582B000AF78600B46FB7013463B80DB
:101F4800FB78012B01D101233B807B68FA7883F869
:101F580072203B88DAB27B6883F860203B880749A7
:101F68001A4603C9FEF767FFFB7805491A4603C9F5
:101F7800FEF761FF00BF0837BD4680BD589E0008C8
:101F8800609E000880B582B000AF786039607B68D9
:101F98001A223968184607F0C1FE3B685B781A4672
:101FA8003C4B93E80300FEF746FF3B681B791A4653
:101FB800394B93E80300FEF73EFF3B689B781A46CF
:101FC800364B93E80300FEF736FF3B68DB781A468A
:101FD800334B93E80300FEF72EFF3B68DB881A4675
:101FE800304B93E80300FEF726FF3B68B3F908304F
:101FF8001A462D4B93E80300FEF71DFF3B68B3F923
:102008000A301A46294B93E80300FEF714FF3B6891
:10201800B3F90C301A46264B93E80300FEF70BFF82
:102028003B68B3F90E301A46224B93E80300FEF7DB
:1020380002FF3B68B3F910301A461F4B93E80300C0
:10204800FEF7F9FE3B68B3F912301A461B4B93E8CA
:102058000300FEF7F0FE3B68B3F916301A46184B3A
:1020680093E80300FEF7E7FE3B68B3F914301A461D
:10207800144B93E80300FEF7DEFE3B681B8B1A4601
:10208800114B93E80300FEF7D6FE00BF0837BD46A4
:1020980080BD00BFC89E0008D09E0008D89E0008DA
:1020A800E09E0008E89E0008F09E0008F89E0008E0
:1020B800009F0008089F0008109F0008189F00084C
:1020C800209F0008289F0008309F000880B582B034
:1020D80000AF78600B46FB707B68FA7883F8742051
:1020E800FB7804491A4603C9FEF7A5FE00BF083766
:1020F800BD4680BD509E000880B582B000AF7860B4
:10210800084611461A460346FB700B463B801346A9
:10211800BB703B8840F6FF72FF21184600F018FBA1
:1021280003463B807B68FA7883F874207B683A889A
:10213800A3F87A207B68BA7883F87C207B683A7C9D
:1021480083F87D203B880F491A4603C9FEF773FEC2
:10215800FB780D491A4603C9FEF76DFEBB780B499B
:102168001A4603C9FEF767FE3B7C09491A4603C9AC
:10217800FEF761FE00211720FEF7D2FD00BF0837E9
:10218800BD4680BD389E0008509E0008409E00084D
:10219800489E000880B582B000AF786039607B68DF
:1021A8001A3312223968184607F0B8FD3B685B8875
:1021B8001A46244B93E80300FEF73DFE3B681B8854
:1021C8001A46214B93E80300FEF735FE3B68DB888F
:1021D8001A461E4B93E80300FEF72DFE3B681B884A
:1021E8001A461B4B93E80300FEF725FE3B685B8904
:1021F8001A46184B93E80300FEF71DFE3B681B893F
:102208001A46154B93E80300FEF715FE3B68DB8979
:102218001A46124B93E80300FEF70DFE3B689B89B4
:102228001A460F4B93E80300FEF705FE3B681B7C3C
:102238001A460C4B93E80300FEF7FDFD00BF083774
:10224800BD4680BD809F0008889F0008909F0008B9
:10225800989F0008A09F0008A89F0008B09F00084A
:10226800B89F0008C89F000880B582B000AF7860AA
:102278000B467B8013463B807B687A88A3F87E20D8
:102288007B683A88A3F880207B8807491A4603C9E7
:10229800FEF7D1FD3B8804491A4603C9FEF7CBFD7A
:1022A80000BF0837BD4680BDE89F000880B582B0F2
:1022B80000AF786039603B685A687B689A643B680D
:1022C8009A687B68DA643B681A887B68A3F84420BC
:1022D8003B685A887B68A3F846203B681B881A46E7
:1022E8002F4B93E80300FEF7A6FD3B685B881A4670
:1022F8002C4B93E80300FEF79EFD3B685B682A4978
:102308001A4603C9FEF797FD3B689B6827491A469A
:1023180003C9FEF790FD3B685B68002B14BF0123DF
:102328000023DBB21A46224B93E80300FEF783FD35
:102338003B689B68002B14BF01230023DBB21A46BD
:102348001C4B93E80300FEF776FD1B4B002293E835
:102358000300FEF770FD194B012293E80300FEF716
:102368006AFD174B002293E80300FEF764FD154B46
:10237800022293E80300FEF75EFD134B012293E867
:102388000300FEF758FD3968786800F01FF83968CF
:10239800786800F043F800BF0837BD4680BD00BF2D
:1023A800E09D0008E89D0008D09D0008D89D000821
:1023B800C09D0008C89D0008109E0008189E0008CF
:1023C800209E0008289E0008309E000880B582B034
:1023D80000AF786039603B689A897B68A3F8502021
:1023E8003B68DA897B68A3F852203B689B891A46C8
:1023F800084B93E80300FEF71EFD3B68DB891A468D
:10240800054B93E80300FEF716FD00BF0837BD46ED
:1024180080BD00BF009E0008F09D000880B582B016
:1024280000AF786039603B681A8A7B68A3F854204B
:102438003B685A8A7B68A3F856203B681B8A1A4671
:10244800084B93E80300FEF7F6FC3B685B8A1A46E4
:10245800054B93E80300FEF7EEFC00BF0837BD46C6
:1024680080BD00BF089E0008F89D000880B582B0B6
:1024780000AF78600B46FB707B6893F87530FA788C
:102488009A4205D07B6893F875207B6883F876209C
:102498007B68FA7883F87520FB7804491A4603C9E3
:1024A800FEF7C9FC00BF0837BD4680BDC09F0008C5
:1024B80080B582B000AF7860084B93E80300FEF760
:1024C8008AFC0346DAB27B6883F875207B6893F848
:1024D800753018460837BD4680BD00BFC09F00084C
:1024E80080B582B000AF78600B46FB70FB78092B93
:1024F80001D10123FB707B68FA7883F87320FB789D
:10250800002B14BF01230023DBB21A46044B93E8C7
:102518000300FEF790FC00BF0837BD4680BD00BF32
:10252800789F000880B582B000AF7860094B93E8C7
:102538000300FEF750FC0346DBB203F00703DAB2F0
:102548007B6883F873207B6893F8733018460837E4
:10255800BD4680BD789F000880B582B000AF786026
:102568000B467B80B7F9023004491A4603C9FEF7C7
:1025780062FC00BF0837BD4680BD00BF689E0008EA
:1025880080B582B000AF78607B6893F87730012B14
:1025980007D1184B93E80300FEF71DFC03461BB256
:1025A80023E07B6893F87730022B04D07B6893F89C
:1025B8007730032B07D1104B93E80300FEF70BFC91
:1025C80003461BB211E07B6893F87730042B07D1E0
:1025D8000A4B93E80300FEF7FEFB03461BB204E038
:1025E800786800F00DF8034600BF18460837BD4666
:1025F80080BD00BFC09E0008589F0008389F000893
:1026080080B582B000AF78605320FEF755FB0346D3
:102618001BB218460837BD4680BD000080B582B0A1
:1026280000AF786039603B6804491A4603C9FEF771
:1026380002FC00BF0837BD4680BD00BFE09F000810
:1026480080B582B000AF7860044B93E80300FEF7D2
:10265800C2FB034618460837BD4680BDE09F000808
:1026680080B584B000AF78607B6893F87730012B31
:1026780007D1194B93E80300FEF7ADFB0346FB8136
:1026880023E07B6893F87730042B07D1134B93E84A
:102698000300FEF7A0FB0346FB8116E07B6893F876
:1026A8007730022B04D07B6893F87730032B07D15F
:1026B8000B4B93E80300FEF78EFB0346FB8104E017
:1026C8007868FFF7BDFF0346FB81B7F90E3018465F
:1026D8001037BD4680BD00BFB89E0008409F000867
:1026E800509F000880B582B000AF78600B467B80B1
:1026F80013463B807B6893F87530012B03D001218A
:102708007868FFF7B3FEB7F9023008491A4603C9DB
:10271800FEF791FBB7F9003005491A4603C9FEF7E1
:102728008AFB00BF0837BD4680BD00BFD09F0008A8
:10273800D89F000880B582B000AF786039603B68E8
:1027480019467D20FEF7ECFA00BF0837BD4680BD6C
:1027580080B485B000AF0346B9607A60FB81FB891D
:102768007A689A4206DBFA89BB689342B8BF134677
:102778009BB201E07B689BB218461437BD465DF8F2
:10278800047B704780B58AB000AF07F114030022BC
:102798001A605A609A60DA601A6100233B61474BFD
:1027A8001B6B464A43F080031363444B1B6B03F0D7
:1027B80080033B613B690023FB60404B1B6B3F4A36
:1027C80043F0010313633D4B1B6B03F00103FB60F4
:1027D800FB680023BB60394B1B6B384A43F010037E
:1027E8001363364B1B6B03F01003BB60BB680023FD
:1027F8007B60324B1B6B314A43F0080313632F4B4A
:102808001B6B03F008037B607B6800233B602B4B4A
:102818001B6B2A4A43F002031363284B1B6B03F01C
:1028280002033B603B6801221021254800F002FEAC
:1028380000228321234800F0FDFD00228021224848
:1028480000F0F8FD10237B610123BB610023FB61CD
:1028580003233B6207F114031946194800F04EFCA4
:1028680080237B610123BB610223FB6100233B6260
:1028780007F114031946134800F040FC80237B61DC
:102888000123BB610023FB6100233B6207F11403B2
:1028980019460D4800F032FC03237B610123BB611C
:1028A8000023FB6100233B6207F114031946054826
:1028B80000F024FC00BF2837BD4680BD0038024028
:1028C8000000024000100240000C024080B500AF3A
:1028D80000F06CFA00F044F8FFF754FF06F058FDDA
:1028E80000F0F2F800F0ECF901220221184800F09B
:1028F800A1FD01220121164800F09CFD0122802142
:10290800144800F097FD4FF4FA7000F0C1FA002265
:1029180002210F4800F08EFD002201210C4800F032
:1029280089FD002280210B4800F084FD642000F01E
:10293800AFFA0948FEF79EFA084803F0FBF80520AD
:1029480000F0A6FA0448FEF759FC00BFF7E700BFFD
:1029580000100240000C0240000000201402002079
:1029680080B594B000AF07F120033022002118464B
:1029780007F0A8F907F10C0300221A605A609A6060
:10298800DA601A610023BB602D4B1B6C2C4A43F0A4
:10299800805313642A4B1B6C03F08053BB60BB68E5
:1029A80000237B60274B1B68264A43F4804313604F
:1029B800244B1B6803F480437B607B6801233B62E4
:1029C8004FF480337B620223BB634FF48003FB63C5
:1029D80004233B64A8237B640223BB640723FB64B2
:1029E80007F12003184601F093FF0346002B14BF9C
:1029F80001230023DBB2002B01D000F059F80F238C
:102A0800FB6002233B6100237B614FF4A053BB6151
:102A18004FF48053FB6107F10C030521184602F0BF
:102A2800EFF90346002B14BF01230023DBB2002B70
:102A380001D000F03DF800BF5037BD4680BD00BF53
:102A4800003802400070004080B582B000AF786066
:102A58007B681B68124A93421DD1124B1A68124BAD
:102A6800A3FB0213DB094FF4FA6101FB03F3D31A4A
:102A7800002B03D180210D4800F0F5FC094B1B68A1
:102A880013F1020F02D1074B00221A60054B1B6895
:102A98000133044A136000BF0837BD4680BD00BF3C
:102AA8000044014090000020D34D6210000C024009
:102AB80080B500AF72B600BF01220221014800F0C4
:102AC800B9FCF9E70010024080B500AF174B184A6F
:102AD8001A60164B4FF482725A60144B00229A60A7
:102AE800124B0022DA60114B02221A610F4B0122AD
:102AF8005A610E4B4FF400729A610C4B1022DA6146
:102B08000A4B00221A62094B00225A62074B002224
:102B18009A62064B0A22DA62044802F069FB03460D
:102B2800002B01D0FFF7C4FF00BF80BDBC0100200F
:102B38000030014080B58AB000AF786007F1140317
:102B480000221A605A609A60DA601A617B681B6812
:102B5800194A93422BD100233B61184B5B6C174AEF
:102B680043F480535364154B5B6C03F480533B610F
:102B78003B690023FB60114B1B6B104A43F00103B8
:102B880013630E4B1B6B03F00103FB60FB68E02330
:102B98007B610223BB610023FB6103233B620523A6
:102BA8007B6207F114031946054800F0A7FA00BF35
:102BB8002837BD4680BD00BF0030014000380240C4
:102BC8000000024080B483B000AF00237B60104B4C
:102BD8005B6C0F4A43F4804353640D4B5B6C03F406
:102BE80080437B607B6800233B60094B1B6C084A71
:102BF80043F080531364064B1B6C03F080533B6017
:102C08003B6800BF0C37BD465DF8047B704700BFCA
:102C18000038024080B400AF00BFFDE780B400AFC9
:102C280000BFFDE780B400AF00BFFDE780B400AF90
:102C380000BFFDE780B400AF00BFFDE780B400AF80
:102C480000BFBD465DF8047B704780B400AF00BF8D
:102C5800BD465DF8047B704780B400AF00BFBD4639
:102C68005DF8047B704780B500AF00F0F1F800BF55
:102C780080BD000080B500AF024802F0CBFF00BF66
:102C880080BD00BF1402002080B500AF024800F0EC
:102C980048FD00BF80BD00BF4007002080B400AFE2
:102CA800064BD3F88830054A43F47003C2F88830DD
:102CB80000BFBD465DF8047B704700BF00ED00E033
:102CC80080B500AF0E4B0F4A1A600D4B42F20F72DF
:102CD8005A600B4B00229A60094B2922DA60084B94
:102CE80000221A61064B00229A61054802F0D2FEC2
:102CF8000346002B01D0FFF7DBFE00BF80BD00BFFD
:102D0800140200200044014080B584B000AF786010
:102D18007B681B680E4A934215D10023FB600D4B5C
:102D28005B6C0C4A43F4003353640A4B5B6C03F44A
:102D38000033FB60FB6800220121192000F0A7F98D
:102D4800192000F0C0F900BF1037BD4680BD00BF94
:102D58000044014000380240DFF834D0FFF79EFFFE
:102D68000C480D490D4A002302E0D458C4500433DE
:102D7800C4188C42F9D30A4A0A4C002301E01360B4
:102D88000432A242FBD306F0A5FFFFF79FFD704770
:102D98000000022000000020A001002018A0000868
:102DA800A00100207C0C0020FEE7000080B500AFE9
:102DB8000E4B1B680D4A43F4007313600B4B1B68E2
:102DC8000A4A43F480631360084B1B68074A43F4BC
:102DD80080731360032000F04FF90F2000F008F80B
:102DE800FFF7F0FE0023184680BD00BF003C0240FC
:102DF80080B582B000AF7860124B1A68124B1B780E
:102E080019464FF47A73B3FBF1F3B2FBF3F31846A8
:102E180000F067F90346002B01D001230EE07B6820
:102E28000F2B0AD8002279684FF0FF3000F02FF9F5
:102E3800064A7B681360002300E001231846083720
:102E4800BD4680BD940000209C0000209800002012
:102E580080B400AF064B1B781A46064B1B68134418
:102E6800044A136000BFBD465DF8047B704700BF8D
:102E78009C0000205C02002080B400AF034B1B685C
:102E88001846BD465DF8047B704700BF5C02002011
:102E980080B584B000AF7860FFF7EEFFB8607B685C
:102EA800FB60FB68B3F1FF3F05D00A4B1B781A465D
:102EB800FB681344FB6000BFFFF7DEFF0246BB68F8
:102EC800D31AFA689A42F7D800BF00BF1037BD4638
:102ED80080BD00BF9C00002080B485B000AF786042
:102EE8007B6803F00703FB600C4BDB68BB60BA68C8
:102EF8004FF6FF031340BB60FB681A02BB6813431D
:102F080043F0BF6343F40033BB60044ABB68D3603B
:102F180000BF1437BD465DF8047B704700ED00E044
:102F280080B400AF044BDB681B0A03F007031846A4
:102F3800BD465DF8047B704700ED00E080B483B0C7
:102F480000AF0346FB7197F90730002B0BDBFB79C9
:102F580003F01F02074997F907305B09012000FABF
:102F680002F241F8232000BF0C37BD465DF8047B10
:102F7800704700BF00E100E080B483B000AF0346B3
:102F88003960FB7197F90730002B0ADB3B68DAB22E
:102F98000C4997F907301201D2B20B4483F8002389
:102FA8000AE03B68DAB20849FB7903F00F03043BF7
:102FB8001201D2B20B441A7600BF0C37BD465DF839
:102FC800047B704700E100E000ED00E080B489B0C8
:102FD80000AFF860B9607A60FB6803F00703FB6133
:102FE800FB69C3F10703042B28BF0423BB61FB69FA
:102FF8000433062B02D9FB69033B00E000237B6105
:103008004FF0FF32BB6902FA03F3DA43BB681A4098
:103018007B699A404FF0FF317B6901FA03F3D9438A
:103028007B680B40134318462437BD465DF8047B84
:103038007047000080B582B000AF78607B68013BC4
:10304800B3F1807F01D301230FE00A4A7B68013B7B
:1030580053600F214FF0FF30FFF78EFF054B002222
:103068009A60044B07221A60002318460837BD46A9
:1030780080BD00BF10E000E080B582B000AF78608E
:103088007868FFF729FF00BF0837BD4680BD80B5C7
:1030980086B000AF0346B9607A60FB7300237B619A
:1030A800FFF73EFF78617A68B9687869FFF78EFFA5
:1030B800024697F90F3011461846FFF75DFF00BF2B
:1030C8001837BD4680BD80B582B000AF0346FB719E
:1030D80097F907301846FFF731FF00BF0837BD469C
:1030E80080BD80B582B000AF78607868FFF7A2FF36
:1030F800034618460837BD4680BD000080B489B035
:1031080000AF7860396000237B6100233B610023B6
:10311800BB610023FB616BE10122FB6902FA03F347
:103128007B613B681B687A6913403B613A697B693C
:103138009A4240F05A813B685B6803F00303012B15
:1031480005D03B685B6803F00303022B30D17B6832
:103158009B68BB61FB695B00032202FA03F3DB4354
:10316800BA691340BB613B68DA68FB695B0002FA25
:1031780003F3BA691343BB617B68BA699A607B68D9
:103188005B68BB610122FB6902FA03F3DB43BA699E
:103198001340BB613B685B681B0903F00102FB69D4
:1031A80002FA03F3BA691343BB617B68BA695A60D0
:1031B8003B685B6803F00303032B17D07B68DB686D
:1031C800BB61FB695B00032202FA03F3DB43BA69C4
:1031D8001340BB613B689A68FB695B0002FA03F322
:1031E800BA691343BB617B68BA69DA603B685B689C
:1031F80003F00303022B23D1FB69DA087B6808324A
:1032080053F82230BB61FB6903F007039B000F22D0
:1032180002FA03F3DB43BA691340BB613B681A69DE
:10322800FB6903F007039B0002FA03F3BA6913432F
:10323800BB61FB69DA087B680832B96943F8221078
:103248007B681B68BB61FB695B00032202FA03F31E
:10325800DB43BA691340BB613B685B6803F0030258
:10326800FB695B0002FA03F3BA691343BB617B682D
:10327800BA691A603B685B6803F44033002B00F0BE
:10328800B4800023FB60604B5B6C5F4A43F480436F
:1032980053645D4B5B6C03F48043FB60FB685B4AE3
:1032A800FB699B08023352F82330BB61FB6903F0CA
:1032B80003039B000F2202FA03F3DB43BA691340AE
:1032C800BB617B68524A93422BD07B68514A934238
:1032D80025D07B68504A93421FD07B684F4A93425F
:1032E80019D07B684E4A934213D07B684D4A93426B
:1032F8000DD07B684C4A934207D07B684B4A934277
:1033080001D107230EE008230CE006230AE0052379
:1033180008E0042306E0032304E0022302E001237B
:1033280000E00023FA6902F0030292009340BA69B0
:103338001343BB613549FB699B080233BA6941F8FD
:1033480023203B4B9B68BB613B69DB43BA69134055
:10335800BB613B685B6803F48013002B03D0BA6938
:103368003B691343BB61324ABB699360304BDB68EE
:10337800BB613B69DB43BA691340BB613B685B686F
:1033880003F40013002B03D0BA693B691343BB61F4
:10339800274ABB69D360264B5B68BB613B69DB434B
:1033A800BA691340BB613B685B6803F40033002BC8
:1033B80003D0BA693B691343BB611D4ABB695360BB
:1033C8001B4B1B68BB613B69DB43BA691340BB619C
:1033D8003B685B6803F48033002B03D0BA693B6910
:1033E8001343BB61124ABB691360FB690133FB617C
:1033F800FB690F2B7FF690AE00BF00BF2437BD4698
:103408005DF8047B704700BF003802400038014077
:10341800000002400004024000080240000C024084
:10342800001002400014024000180240001C024034
:10343800003C014080B483B000AF78600B467B80CD
:1034480013467B707B78002B03D07A887B689A615F
:1034580003E07B881A047B689A6100BF0C37BD467D
:103468005DF8047B704780B485B000AF78600B4688
:103478007B807B685B69FB607A88FB6813401A0471
:10348800FB68D9437B880B401A437B689A6100BF6D
:103498001437BD465DF8047B704780B586B002AF2F
:1034A80078607B68002B01D1012301E17B681B68F0
:1034B800BB607B6893F89534DBB2002B06D17B6840
:1034C800002283F89424786806F0ECF87B680322DD
:1034D80083F89524BB68B3F1A04F02D17B68002222
:1034E8009A717B681B68184602F083FE7B6818682F
:1034F8007B681A7C8DF8002004330ECB02F062FD45
:103508000346002B05D07B68022283F8952401230B
:10351800CEE07B681B680021184602F07BFE03465C
:10352800002B05D07B68022283F895240123BFE095
:103538000023FB734AE0FA7B79681346DB001344E7
:103548009B000B44153301221A70FA7B79681346E5
:10355800DB0013449B000B441433FA7B1A70FA7B8C
:10356800FB7B98B279681346DB0013449B000B443D
:103578002E3302461A80FA7B79681346DB0013441F
:103588009B000B44183300221A70FA7B79681346A3
:10359800DB0013449B000B441C3300221A60FA7BA7
:1035A80079681346DB0013449B000B442033002248
:1035B8001A60FA7B79681346DB0013449B000B44BE
:1035C800243300221A60FB7B0133FB737B681B7971
:1035D800FA7B9A42AFD30023FB7344E0FA7B796805
:1035E8001346DB0013449B000B4403F255230022CF
:1035F8001A70FA7B79681346DB0013449B000B446E
:1036080003F51573FA7B1A70FA7B79681346DB00A9
:1036180013449B000B4403F5167300221A70FA7BBF
:1036280079681346DB0013449B000B4403F51773BA
:1036380000221A60FA7B79681346DB0013449B006A
:103648000B4403F5187300221A60FA7B7968134655
:10365800DB0013449B000B4403F5197300221A6026
:10366800FB7B0133FB737B681B79FA7B9A42B5D3EA
:103678007B6818687B681A7C8DF8002004330ECBB1
:1036880002F014FE0346002B05D07B68022283F863
:10369800952401230CE07B6800225A747B68012280
:1036A80083F895247B681B68184603F05EFE0023A8
:1036B80018461037BD4680BD80B584B000AF78602D
:1036C8007B681B68FB607B6893F89434012B01D1FD
:1036D800022322E07B68012283F89424FB68DB68DC
:1036E80003F04003002B09D07B685B7B012B05D1DD
:1036F800FB689B6B43F48032FB689A637B681B68AA
:10370800184602F065FD7B681B68184603F00CFE3E
:103718007B68002283F89424002318461037BD469E
:1037280080BD90B58DB000AF78607B681B683B6248
:103738003B6AFB617B681B68184603F0CAFE0346B8
:10374800002B40F08C847B681B68184603F02EFE23
:103758000346002B00F08284FB6903F500639B6835
:103768001B0AC3F30D027B68C3F8D4247B681B686B
:10377800184603F01BFE034603F00203022B07D191
:103788007B681B685A697B681B6802F002025A61F1
:103798007B681B68184603F009FE034603F0100314
:1037A800102B61D17B681B689A697B681B6822F0C3
:1037B80010029A613B6A1B6ABB61BB6903F00F0286
:1037C8001346DB0013449B0003F514737A68134413
:1037D80004337B61BB695B0C03F00F03022B24D11C
:1037E800BA6947F6F0731340002B35D07B69D96866
:1037F800BB691B099BB2C3F30A039BB21A46386A1A
:1038080003F040FC7B69DA68BB691B09C3F30A0350
:103818001A447B69DA607B695A69BB691B09C3F37F
:103828000A031A447B695A6116E0BB695B0C03F012
:103838000F03062B10D17B6803F29C43082219461C
:10384800386A03F01FFC7B695A69BB691B09C3F31B
:103858000A031A447B695A617B681B689A697B680A
:103868001B6842F010029A617B681B68184603F0D7
:103878009DFD034603F40023B3F5002F40F0A78015
:1038880000237B627B681B68184603F0A2FDB862C0
:1038980099E0BB6A03F00103002B00F08E807B687F
:1038A8001B687A6AD2B21146184603F0C6FD386121
:1038B8003B6903F00103002B0CD07B6A5A01FB69BA
:1038C800134403F530631A4601239360796A7868D4
:1038D80000F08CFE3B6903F00803002B0CD07B6AD8
:1038E8005A01FB69134403F530631A4608239360B1
:1038F800796A786800F062FF3B6903F01003002BD7
:1039080008D07B6A5A01FB69134403F530631A46F1
:10391800102393603B6903F00203002B30D03B6A0D
:103928005B6903F08003802B09D1FB6903F5006311
:103938005B68FA6902F5006243F4806353607A6A4F
:103948001346DB0013449B0003F514737A68134491
:1039580004337B617B69DB78012B08D17B6900220A
:10396800DA707B6ADBB21946786805F0AFFF7B6ACC
:103978005A01FB69134403F530631A460223936026
:103988003B6903F02003002B08D07B6A5A01FB69CE
:10399800134403F530631A46202393603B6903F40C
:1039A8000053002B09D07B6A5A01FB69134403F5C5
:1039B80030631A464FF4005393607B6A01337B628D
:1039C800BB6A5B08BB62BB6A002B7FF462AF7B6893
:1039D8001B68184603F0EAFC034603F48023B3F59A
:1039E800802F40F0DB807B681B68184603F00BFDD6
:1039F800B86200237B62CDE0BB6A03F00103002BB1
:103A080000F0C2807B681B687A6AD2B211461846F9
:103A180003F031FD38613B6903F00103002B57D0F7
:103A28007B6A03F00F03012202FA03F3FB60FB69D0
:103A380003F500635A6BFB68DB43F96901F5006124
:103A480013404B637B6A5A01FB69134403F5106307
:103A58001A46012393607B689B79012B32D17968E0
:103A68007A6A1346DB0013449B000B442033196821
:103A780078687A6A1346DB0013449B0003441C33BE
:103A88001B68194478687A6A1346DB0013449B0064
:103A98000344203319607B6A002B13D179687A6A52
:103AA8001346DB0013449B000B4424331B68002B94
:103AB80008D17B6818687B6803F29C431A46012189
:103AC80003F038FD7B6ADBB21946786805F079FEA9
:103AD8003B6903F00803002B08D07B6A5A01FB6995
:103AE800134403F510631A46082393603B6903F0F7
:103AF8001003002B08D07B6A5A01FB69134403F5B5
:103B080010631A46102393603B6903F04003002BAF
:103B180008D07B6A5A01FB69134403F510631A46FF
:103B2800402393603B6903F00203002B23D0796A9A
:103B3800386A02F01FFD7A6A1346DB0013449B00C3
:103B480010337A68134404337B617B69DB78012B7B
:103B580008D17B690022DA707B6ADBB21946786883
:103B680005F0C6FE7B6A5A01FB69134403F510632E
:103B78001A46022393603B6903F08003002B03D0AD
:103B8800796A786800F0A5FC7B6A01337B62BB6ABE
:103B98005B08BB62BB6A002B7FF42EAF7B681B6897
:103BA800184603F003FC034603F00043B3F1004F4B
:103BB80022D1FB6903F500635B68FA6902F50062CC
:103BC80023F0010353607B6893F8CC34012B08D1B0
:103BD8007B68002283F8CC240021786800F08CFEF2
:103BE80002E0786805F064FE7B681B685A697B68A8
:103BF8001B6802F000425A617B681B68184603F094
:103C0800D5FB034603F40063B3F5006F12D1FB69DB
:103C180003F500639B6803F00103012B02D1786868
:103C280005F020FE7B681B685A697B681B6802F4F4
:103C380000625A617B681B68184603F0B7FB0346AD
:103C480003F48053B3F5805F40F0B780FB6903F558
:103C580000635B68FA6902F5006223F001035360B0
:103C68007B681B681021184602F084FC0023FB6265
:103C780046E0FB6A5A01FB69134403F510631A46D0
:103C88004FF67F339360FB6A5A01FB69134403F5CF
:103C980010631B68FA6A5101FA690A4402F5106256
:103CA80023F400131360FB6A5A01FB69134403F5FC
:103CB80030631A464FF67F339360FB6A5A01FB69FB
:103CC800134403F530631B68FA6A5101FA690A4420
:103CD80002F5306223F400131360FB6A5A01FB6992
:103CE800134403F530631B68FA6A5101FA690A4400
:103CF80002F5306243F000631360FB6A0133FB6234
:103D08007B681B791A46FB6A9342B2D3FB6903F5B9
:103D18000063DB69FA6902F5006243F00113D361BD
:103D28007B68DB7B002B16D0FB6903F50063D3F8B7
:103D38008430FA6902F5006243F00B03C2F884305C
:103D4800FB6903F500635B6CFA6902F5006243F0F6
:103D58000B03536415E0FB6903F500635B69FA69BB
:103D680002F5006243F4005343F02B035361FB69EF
:103D780003F500631B69FA6902F5006243F00B035F
:103D88001361FB6903F500631B68FA6902F50062B9
:103D980023F4FE6313607B6818687B6899797B68F5
:103DA80003F29C431A4603F0C5FB7B681B685A69FB
:103DB8007B681B6802F480525A617B681B6818464E
:103DC80003F0F4FA034603F40053B3F5005F23D17C
:103DD8007B681B68184603F08AFB7B681B681846DB
:103DE80002F041FC03461A467B68DA717B681C685E
:103DF80001F0F2F901467B68DB791A46204602F0A9
:103E080045F9786805F005FD7B681B685A697B6889
:103E18001B6802F400525A617B681B68184603F05D
:103E2800C5FA034603F00803082B0AD1786805F0A1
:103E3800E2FC7B681B685A697B681B6802F0080211
:103E48005A617B681B68184603F0B0FA034603F012
:103E58008003802B23D13B6A9B6923F080023B6A55
:103E68009A6101237B6214E079687A6A1346DB0061
:103E780013449B000B4403F257231B78012B05D1F5
:103E88007B6ADBB21946786800F0F2FA7B6A013384
:103E98007B627B681B791A467B6A9342E4D37B6812
:103EA8001B68184603F082FA034603F48013B3F53F
:103EB800801F3CD101237B622BE07B6A5A01FB699E
:103EC800134403F510631B68BB6179687A6A13466B
:103ED800DB0013449B000B4418331B78012B15D1CE
:103EE800BB69002B12DA79687A6A1346DB0013443F
:103EF8009B000B44173301221A707B6ADBB263F014
:103F08007F03DBB21946786800F0B2FA7B6A0133A6
:103F18007B627B681B791A467B6A9342CDD37B68A8
:103F28001B685A697B681B6802F480125A617B68B7
:103F38001B68184603F03AFA034603F40013B3F576
:103F4800001F56D101237B6245E07B6A5A01FB6959
:103F5800134403F530631B68BB6179687A6A1346BA
:103F6800DB0013449B000B4403F516731B78012BED
:103F78002ED1BB69002B2BDABB6903F480327B6836
:103F8800D3F8D43403F001039A4221D179687A6ACC
:103F98001346DB0013449B000B4403F25723012212
:103FA8001A703B6A9B6943F080023B6A9A613B6ADC
:103FB8005B6903F08003002B0AD1FB6903F50063FA
:103FC8005B68FA6902F5006243F40073536008E025
:103FD8007B6A01337B627B681B791A467B6A934252
:103FE800B3D37B681B685A697B681B6802F40012AC
:103FF8005A617B681B68184603F0D8F9034603F03A
:104008008043B3F1804F0AD1786805F083FC7B6860
:104018001B685A697B681B6802F080425A617B689A
:104028001B68184603F0C2F9034603F00403042B87
:1040380015D17B681B685B68BB61BB6903F004032F
:10404800002B02D0786805F073FC7B681B68596800
:104058007B681B68BA690A435A6000E000BF3437BE
:10406800BD4690BD80B582B000AF78600B46FB704E
:104078007B6893F89434012B01D1022312E07B680A
:10408800012283F894247B68FA785A747B681B6849
:10409800FA781146184603F021F97B68002283F864
:1040A8009424002318460837BD4680BD80B584B0E7
:1040B80000AF7860084611461A460346FB700B4667
:1040C8003B801346BB700023FB7297F90330002B2B
:1040D8000FDAFB7803F00F021346DB0013449B0052
:1040E80010337A6813440433FB60FB6801225A706A
:1040F8000FE0FB7803F00F021346DB0013449B002C
:1041080003F514737A6813440433FB60FB680022D8
:104118005A70FB7803F00F03DAB2FB681A703B8819
:10412800C3F30A02FB689A60FB68BA781A71FB68E5
:104138005B78002B04D0FB681B781A46FB685A830F
:10414800BB78022B02D1FB6800225A717B6893F876
:104158009434012B01D102230EE07B68012283F8FD
:1041680094247B681B68F968184602F0A1FA7B68FA
:10417800002283F89424FB7A18461037BD4680BD88
:1041880080B584B000AF78600B46FB7097F90330B8
:10419800002B0FDAFB7803F00F021346DB00134401
:1041A8009B0010337A6813440433FB60FB680122D8
:1041B8005A700FE0FB7803F00F021346DB0013443C
:1041C8009B0003F514737A6813440433FB60FB689F
:1041D80000225A70FB7803F00F03DAB2FB681A70FA
:1041E8007B6893F89434012B01D102230EE07B689D
:1041F800012283F894247B681B68F968184602F04A
:10420800DFFA7B68002283F89424002318461037CD
:10421800BD4680BD80B586B000AFF8607A603B606F
:104228000B46FB72FB7A03F00F021346DB001344C4
:104238009B0003F51473FA68134404337B617B69AC
:104248007A68DA607B693A681A617B6900225A6188
:104258007B6900225A70FB7A03F00F03DAB27B699C
:104268001A70FB689B79012B02D17A687B69DA6145
:10427800FB681868FB689B791A46796902F07CFB31
:10428800002318461837BD4680BD80B586B000AFFC
:10429800F8607A603B600B46FB72FB7A03F00F0212
:1042A8001346DB0013449B001033FA6813440433AD
:1042B8007B617B697A68DA607B693A681A617B6935
:1042C80000225A617B6901225A70FB7A03F00F03BE
:1042D800DAB27B691A70FB689B79012B02D17A6884
:1042E8007B69DA61FB681868FB689B791A4679690B
:1042F80002F042FB002318461837BD4680BD80B542
:1043080084B000AF78600B46FB70FB7803F00F03B6
:104318007A681279934201D901234FE097F9033063
:10432800002B0FDAFB7803F00F021346DB0013446F
:104338009B0010337A6813440433FB60FB68012246
:104348005A700DE0FA781346DB0013449B0003F51E
:1043580014737A6813440433FB60FB6800225A70B4
:10436800FB6801229A70FB7803F00F03DAB2FB684E
:104378001A707B6893F89434012B01D102231DE055
:104388007B68012283F894247B681B68F9681846C7
:1043980002F0D0FEFB7803F00F03002B09D17B68F5
:1043A80018687B6899797B6803F29C431A4603F086
:1043B800C1F87B68002283F894240023184610373C
:1043C800BD4680BD80B584B000AF78600B46FB70F9
:1043D800FB7803F00F037A681279934201D901231D
:1043E80042E097F90330002B0FDAFB7803F00F0255
:1043F8001346DB0013449B0010337A6813440433DC
:10440800FB60FB6801225A700FE0FB7803F00F0293
:104418001346DB0013449B0003F514737A681344B6
:104428000433FB60FB6800225A70FB6800229A7014
:10443800FB7803F00F03DAB2FB681A707B6893F815
:104448009434012B01D102230EE07B68012283F80A
:1044580094247B681B68F968184602F0D9FE7B68CB
:10446800002283F89424002318461037BD4680BDE7
:1044780080B584B000AF78600B46FB7097F90330C5
:10448800002B0CDAFB7803F00F021346DB00134411
:104498009B0010337A6813440433FB600CE0FB780C
:1044A80003F00F021346DB0013449B0003F514735B
:1044B8007A6813440433FB607B681B68F968184604
:1044C80002F0F8FC0346FB72FB7A18461037BD462B
:1044D80080BD80B58AB002AF786039607B681B68A0
:1044E8007B617B693B613A681346DB0013449B00A0
:1044F80010337A6813440433FB60FB685A69FB681D
:104508001B699A4201D901236BE0FB681A69FB68B1
:104518005B69D31AFB61FB689B68FA699A4202D906
:10452800FB689B68FB61FB6903339B08BB612AE05E
:10453800FB681A69FB685B69D31AFB61FB689B68B7
:10454800FA699A4202D9FB689B68FB61FB690333ED
:104558009B08BB61FB68D9683B68DAB2FB6998B213
:104568007B689B7900930346786902F04DFDFB68F0
:10457800DA68FB691A44FB68DA60FB685A69FB6908
:104588001A44FB685A613B685A013B69134403F5B6
:1045980010639B699BB2BA699A4209D8FB685A6949
:1045A800FB681B699A4203D2FB681B69002BBFD1C9
:1045B800FB681A69FB685B699A4211D83B6803F08B
:1045C8000F03012202FA03F3BB603B6903F50063A2
:1045D8005A6BBB68DB43396901F5006113404B63D3
:1045E800002318462037BD4680BD000080B588B03E
:1045F80000AF786039607B681B68FB61FB69BB6151
:10460800FB693C3304331B687B613B685A01BB6917
:10461800134403F530639B683B617B689B79012BEE
:104628007BD13B6903F00803002B15D07B69614AF5
:10463800934240F2B9803B6903F40043002B00F039
:10464800B3803B685A01BB69134403F530631A46CB
:104658004FF400439360A7E03B6903F02003002B6D
:1046680009D03B685A01BB69134403F530631A4605
:104678002023936098E03B6903F02803002B40F067
:1046880093807B694B4A93420FD93B6903F40043FB
:10469800002B0AD03B685A01BB69134403F5306309
:1046A8001A464FF4004393607EE03A681346DB00F5
:1046B80013449B0003F514737A6813440433FB60B6
:1046C800FB681A6A3B685901BB690B4403F5306300
:1046D8001B69C3F31203D21AFB685A613B68002BAB
:1046E80014D1FB681B69002B09D17B6818687B68AB
:1046F80003F29C431A46012102F01CFF06E0FB6806
:10470800DA68FB685B691A44FB68DA603B68DBB20D
:104718001946786805F03AF846E07B69264A9342DC
:1047280024D13B6903F40043002B0AD03B685A01AB
:10473800BB69134403F530631A464FF40043936092
:1047480032E03B6903F02003002B08D03B685A0194
:10475800BB69134403F530631A46202393603B6812
:10476800DBB21946786805F011F81DE03B68002BAC
:1047780014D179683A681346DB0013449B000B4454
:1047880003F519731B68002B08D17B6818687B68D0
:1047980003F29C431A46002102F0CCFE3B68DBB2D0
:1047A8001946786804F0F2FF002318462037BD4602
:1047B80080BD00BF0A30544F0A31544F80B586B0CF
:1047C80000AF786039607B681B687B617B693B61FF
:1047D8007B693C3304331B68FB603B685A013B69C7
:1047E800134403F530639B68BB60FB68154A93422A
:1047F8000ED9BB6803F40043002B09D03B685A016B
:104808003B69134403F530631A464FF40043936041
:10481800786804F0A9FFFB680A4A93420CD97B68C0
:104828009B79012B08D17B6818687B6803F29C434D
:104838001A46012102F07EFE002318461837BD46AD
:1048480080BD00BF0A30544F80B485B000AF786097
:104858000B46FB7013463B807B681B685B6ABB603A
:10486800FB78002B07D13B8819047B681B68BA6862
:104878000A439A6228E07B681B689B6A1B0CBA682B
:104888001344BB600023FB730DE07B681A68FB7B55
:1048980040339B0013445B681B0CBA681344BB602D
:1048A800FB7B0133FB73FA7BFB78013B9A42ECD329
:1048B8003B8818047B681968FB78013BBA68024397
:1048C80040339B000B445A60002318461437BD46FA
:1048D8005DF8047B704780B483B000AF78600B4606
:1048E8007B807B681B687A885A62002318460C37DD
:1048F800BD465DF8047B704780B483B000AF786034
:104908000B46FB7000BF0C37BD465DF8047B704753
:1049180080B586B000AF78607B68002B01D1012399
:1049280067E27B681B6803F00103002B75D0884B96
:104938009B6803F00C03042B0CD0854B9B6803F099
:104948000C03082B12D1824B5B6803F48003B3F588
:10495800800F0BD17E4B1B6803F40033002B5BD018
:104968007B685B68002B57D1012342E27B685B6858
:10497800B3F5803F06D1764B1B68754A43F4803304
:1049880013601DE07B685B68B3F5A02F0CD1704BFA
:104998001B686F4A43F4802313606D4B1B686C4A95
:1049A80043F4803313600BE0694B1B68684A23F4B7
:1049B80080331360664B1B68654A23F480231360B9
:1049C8007B685B68002B13D0FEF756FA386108E065
:1049D800FEF752FA02463B69D31A642B01D9032326
:1049E80007E25B4B1B6803F40033002BF0D014E0A4
:1049F800FEF742FA386108E0FEF73EFA02463B69E4
:104A0800D31A642B01D90323F3E1514B1B6803F438
:104A18000033002BF0D100E000BF7B681B6803F077
:104A28000203002B63D04A4B9B6803F00C03002B56
:104A38000BD0474B9B6803F00C03082B1CD1444B4D
:104A48005B6803F48003002B16D1414B1B6803F00D
:104A58000203002B05D07B68DB68012B01D0012302
:104A6800C7E13B4B1B6823F0F8027B681B69DB003E
:104A7800374913430B603AE07B68DB68002B20D092
:104A8800344B01221A60FEF7F7F9386108E0FEF7A7
:104A9800F3F902463B69D31A022B01D90323A8E193
:104AA8002B4B1B6803F00203002BF0D0284B1B682C
:104AB80023F0F8027B681B69DB00254913430B6070
:104AC80015E0244B00221A60FEF7D6F9386108E099
:104AD800FEF7D2F902463B69D31A022B01D9032308
:104AE80087E11B4B1B6803F00203002BF0D17B68A6
:104AF8001B6803F00803002B36D07B685B69002B2A
:104B080016D0154B01221A60FEF7B6F9386108E095
:104B1800FEF7B2F902463B69D31A022B01D90323E7
:104B280067E10B4B5B6F03F00203002BF0D01BE037
:104B3800094B00221A60FEF79FF938610EE0FEF774
:104B48009BF902463B69D31A022B07D9032350E18C
:104B58000038024000004742800E4742884B5B6F96
:104B680003F00203002BEAD17B681B6803F00403FF
:104B7800002B00F097800023FB75814B1B6C03F022
:104B88008053002B0FD10023BB607D4B1B6C7C4AEC
:104B980043F0805313647A4B1B6C03F08053BB6063
:104BA800BB680123FB75774B1B6803F48073002BEC
:104BB80018D1744B1B68734A43F480731360FEF773
:104BC8005BF9386108E0FEF757F902463B69D31AEA
:104BD800022B01D903230CE16A4B1B6803F4807391
:104BE800002BF0D07B689B68012B06D1644B1B6FB0
:104BF800634A43F0010313671CE07B689B68052B3D
:104C08000CD15F4B1B6F5E4A43F0040313675C4B88
:104C18001B6F5B4A43F0010313670BE0584B1B6F94
:104C2800574A23F001031367554B1B6F544A23F06F
:104C3800040313677B689B68002B15D0FEF71CF9EB
:104C480038610AE0FEF718F902463B69D31A41F2C7
:104C58008832934201D90323CBE0494B1B6F03F001
:104C68000203002BEED014E0FEF706F938610AE0E3
:104C7800FEF702F902463B69D31A41F288329342A1
:104C880001D90323B5E03E4B1B6F03F00203002B51
:104C9800EED1FB7D012B05D1394B1B6C384A23F033
:104CA800805313647B689B69002B00F0A180344B10
:104CB8009B6803F00C03082B5CD07B689B69022B74
:104CC80041D1314B00221A60FEF7D6F8386108E06E
:104CD800FEF7D2F802463B69D31A022B01D9032307
:104CE80087E0274B1B6803F00073002BF0D17B682B
:104CF800DA697B681B6A1A437B685B6A9B011A4303
:104D08007B689B6A5B08013B1B041A437B68DB6A70
:104D18001B061B4913434B601B4B01221A60FEF70D
:104D2800ABF8386108E0FEF7A7F802463B69D31AEA
:104D3800022B01D903235CE0114B1B6803F00073BD
:104D4800002BF0D054E0104B00221A60FEF794F8C4
:104D5800386108E0FEF790F802463B69D31A022B47
:104D680001D9032345E0064B1B6803F00073002BB1
:104D7800F0D13DE07B689B69012B07D1012338E026
:104D88000038024000700040600047421B4B5B68DF
:104D9800FB607B689B69012B28D0FB6803F48002C9
:104DA8007B68DB699A4221D1FB6803F03F027B688C
:104DB8001B6A9A421AD1FA6847F6C07313407A6898
:104DC800526A9201934211D1FB6803F440327B6826
:104DD8009B6A5B08013B1B049A4207D1FB6803F0FE
:104DE80070627B68DB6A1B069A4201D0012300E0EF
:104DF800002318461837BD4680BD00BF0038024062
:104E080080B584B000AF786039607B68002B01D131
:104E18000123CCE0684B1B6803F007033A689A4209
:104E28000CD9654B3A68D2B21A70634B1B6803F011
:104E380007033A689A4201D00123B8E07B681B68EF
:104E480003F00203002B20D07B681B6803F00403E7
:104E5800002B05D0594B9B68584A43F4E0539360A4
:104E68007B681B6803F00803002B05D0534B9B6835
:104E7800524A43F460439360504B9B6823F0F0021E
:104E88007B689B684D4913438B607B681B6803F004
:104E98000103002B44D07B685B68012B07D1474B8B
:104EA8001B6803F40033002B19D101237FE07B68D2
:104EB8005B68022B03D07B685B68032B07D13F4BF1
:104EC8001B6803F00073002B09D101236FE03B4BF3
:104ED8001B6803F00203002B01D1012367E0374B65
:104EE8009B6823F003027B685B68344913438B603B
:104EF800FDF7C2FFF8600AE0FDF7BEFF0246FB6857
:104F0800D31A41F28832934201D903234FE02B4B45
:104F18009B6803F00C027B685B689B009A42EBD1AC
:104F2800254B1B6803F007033A689A420CD2224BC0
:104F38003A68D2B21A70204B1B6803F007033A682C
:104F48009A4201D0012332E07B681B6803F0040316
:104F5800002B08D0194B9B6823F4E0527B68DB6870
:104F6800164913438B607B681B6803F00803002B0A
:104F780009D0124B9B6823F460427B681B69DB00F5
:104F88000E4913438B6000F021F802460B4B9B68D7
:104F98001B0903F00F030A49CB5C22FA03F3094A01
:104FA8001360094B1B681846FDF722FF00231846BB
:104FB8001037BD4680BD00BF003C024000380240AB
:104FC800F89F000894000020980000202DE9B04FB9
:104FD80094B000AF00237B640023FB6400233B6490
:104FE8000023BB64794B9B6803F00C03082B0DD09E
:104FF800082B00F2E180002B02D0042B03D0DBE069
:10500800734BBB64DBE0734BBB64D8E06F4B5B68EE
:1050180003F03F037B646D4B5B6803F48003002B54
:1050280063D06A4B5B689B090022BB63FA63BB6B66
:10503800C3F308033B6300237B63D7E90C4522468F
:105048002B464FF000004FF00001590141EAD261B0
:10505800500102460B462146511A3961294663EB35
:1050680001037B614FF000024FF00003D7E904AB66
:1050780059468B01514643EA916351468A0151468C
:10508800B2EB0108594663EB01094FF000024FF0FB
:1050980000034FEAC90343EA58734FEAC80290462F
:1050A8009946234618EB0303BB602B4649EB0303E1
:1050B800FB604FF000024FF00003D7E90245294694
:1050C8004B02214643EAD15321464A02104619466B
:1050D8007B6C0022BB62FA62D7E90A23FBF766FC05
:1050E80002460B461346FB6458E0384B5B689B0945
:1050F800002218461146C0F308033B6200237B6276
:10510800D7E9088942464B464FF000004FF00001AE
:10511800590141EAD261500102460B464146B2EBC1
:10512800010A494663EB010B4FF000024FF0000300
:105138004FEA8B1343EA9A634FEA8A12B2EB0A04E6
:1051480063EB0B054FF000024FF00003EB0043EA5E
:105158005473E20014461D464346E3183B604B4631
:1051680045EB03037B604FF000024FF00003D7E9E3
:10517800004529468B02214643EA915321468A027B
:10518800104619467B6C0022BB61FA61D7E90623F9
:10519800FBF70CFC02460B461346FB640B4B5B68A3
:1051A8001B0C03F0030301335B003B64FA6C3B6C9C
:1051B800B2FBF3F3BB6402E0054BBB6400BFBB6CFE
:1051C80018465037BD46BDE8B08F00BF00380240D2
:1051D8000024F40000127A0080B400AF034B1B686F
:1051E8001846BD465DF8047B704700BF9400002058
:1051F80080B582B000AF78607B68002B01D10123B5
:105208007BE07B685B6A002B08D17B685B68B3F541
:10521800827F09D07B680022DA6105E07B68002282
:105228001A617B6800225A617B6800229A627B6857
:1052380093F85130DBB2002B06D17B68002283F84B
:1052480050207868FDF776FC7B68022283F85120AD
:105258007B681B681A687B681B6822F040021A602A
:105268007B685B6803F482727B689B6803F4044381
:105278001A437B68DB6803F400631A437B681B6985
:1052880003F002031A437B685B6903F001031A43C6
:105298007B689B6903F400731A437B68DB6903F03E
:1052A80038031A437B681B6A03F0800342EA030150
:1052B8007B689B6A03F400527B681B680A431A6088
:1052C8007B689B691B0C03F004017B685B6A03F035
:1052D80010027B681B680A435A607B681B68DA699E
:1052E8007B681B6822F40062DA617B6800225A65D9
:1052F8007B68012283F85120002318460837BD46F1
:1053080080BD80B588B000AFF860B9603B601346D7
:10531800FB80FDF7B1FDF861FB887B83FB6893F8A0
:105328005130DBB2012B01D002232AE1BB68002BEC
:1053380002D0FB88002B01D1012322E1FB6893F8FE
:105348005030012B01D102231BE1FB68012283F8B5
:105358005020FB68032283F85120FB6800225A651D
:10536800FB68BA681A63FB68FA889A86FB68FA8849
:10537800DA86FB6800229A63FB6800229A87FB683A
:105388000022DA87FB6800225A64FB6800221A644C
:10539800FB689B68B3F5004F0FD1FB681B681A6860
:1053A800FB681B6822F040021A60FB681B681A68D9
:1053B800FB681B6842F480421A60FB681B681B6824
:1053C80003F04003402B07D0FB681B681A68FB6892
:1053D8001B6842F040021A60FB68DB68B3F5006F97
:1053E80052D1FB685B68002B02D07B8B012B45D127
:1053F800FB681B6B1A88FB681B68DA60FB681B6B11
:105408009A1CFB681A63FB68DB8E9BB2013B9AB25D
:10541800FB68DA8632E0FB681B689B6803F00203CE
:10542800022B12D1FB681B6B1A88FB681B68DA60B9
:10543800FB681B6B9A1CFB681A63FB68DB8E9BB2CC
:10544800013B9AB2FB68DA8618E0FDF715FD0246C3
:10545800FB69D31A3A689A4203D83B68B3F1FF3F15
:1054680002D13B68002B09D1FB68012283F8512047
:10547800FB68002283F85020032382E0FB68DB8E60
:105488009BB2002BC7D153E0FB685B68002B02D0AE
:105498007B8B012B47D1FB681A6BFB681B680C33AD
:1054A80012781A70FB681B6B5A1CFB681A63FB683E
:1054B800DB8E9BB2013B9AB2FB68DA8633E0FB686D
:1054C8001B689B6803F00203022B13D1FB681A6B5D
:1054D800FB681B680C3312781A70FB681B6B5A1C2C
:1054E800FB681A63FB68DB8E9BB2013B9AB2FB68D0
:1054F800DA8618E0FDF7C0FC0246FB69D31A3A6861
:105508009A4203D83B68B3F1FF3F02D13B68002BB6
:1055180009D1FB68012283F85120FB68002283F837
:10552800502003232DE0FB68DB8E9BB2002BC6D1F5
:10553800FA693968F86800F059FA0346002B02D076
:10554800FB6820225A65FB689B68002B0AD1002360
:105558007B61FB681B68DB687B61FB681B689B6879
:105568007B617B69FB68012283F85120FB6800227C
:1055780083F85020FB685B6D002B01D0012300E00D
:10558800002318462037BD4680BD80B58AB000AFDD
:10559800F860B9607A607B8001237B62FDF76CFC60
:1055A8003862FB6893F85130FB77FB685B68BB6136
:1055B8007B88FB82FB7F012B0CD0BB69B3F5827F14
:1055C80006D1FB689B68002B02D1FB7F042B01D01E
:1055D80002237FE1BB68002B05D07B68002B02D03B
:1055E8007B88002B01D1012374E1FB6893F85030CC
:1055F800012B01D102236DE1FB68012283F85020C1
:10560800FB6893F85130DBB2042B03D0FB6805220A
:1056180083F85120FB6800225A65FB687A689A6310
:10562800FB687A88DA87FB687A889A87FB68BA68A1
:105638001A63FB687A88DA86FB687A889A86FB6838
:1056480000221A64FB6800225A64FB681B681B6806
:1056580003F04003402B07D0FB681B681A68FB68FF
:105668001B6842F040021A60FB68DB68B3F5006F04
:105678007ED1FB685B68002B02D0FB8A012B6CD1C2
:10568800FB681B6B1A88FB681B68DA60FB681B6B7E
:105698009A1CFB681A63FB68DB8E9BB2013B9AB2CB
:1056A800FB68DA8659E0FB681B689B6803F0020315
:1056B800022B1BD1FB68DB8E9BB2002B16D07B6ABA
:1056C800012B13D1FB681B6B1A88FB681B68DA6017
:1056D800FB681B6B9A1CFB681A63FB68DB8E9BB22A
:1056E800013B9AB2FB68DA8600237B62FB681B6881
:1056F8009B6803F00103012B19D1FB68DB8F9BB278
:10570800002B14D0FB681B68DA68FB689B6B92B2AD
:105718001A80FB689B6B9A1CFB689A63FB68DB8F9B
:105728009BB2013B9AB2FB68DA8701237B62FDF7E3
:10573800A3FB02463B6AD31A3A6B9A420DD83B6BDD
:10574800B3F1FF3F09D0FB68012283F85120FB68C1
:10575800002283F850200323BCE0FB68DB8E9BB259
:10576800002BA0D1FB68DB8F9BB2002B9BD182E082
:10577800FB685B68002B02D0FB8A012B71D1FB68A8
:105788001A6BFB681B680C3312781A70FB681B6B6A
:105798005A1CFB681A63FB68DB8E9BB2013B9AB20A
:1057A800FB68DA865DE0FB681B689B6803F0020310
:1057B800022B1CD1FB68DB8E9BB2002B17D07B6AB7
:1057C800012B14D1FB681A6BFB681B680C33127829
:1057D8001A70FB681B6B5A1CFB681A63FB68DB8E2C
:1057E8009BB2013B9AB2FB68DA8600237B62FB68B6
:1057F8001B689B6803F00103012B19D1FB68DB8F41
:105808009BB2002B14D0FB681B68DA68FB689B6BA3
:10581800D2B21A70FB689B6B5A1CFB689A63FB68D0
:10582800DB8F9BB2013B9AB2FB68DA8701237B626C
:10583800FDF722FB02463B6AD31A3A6B9A4203D819
:105848003B6BB3F1FF3F02D13B6B002B09D1FB68E7
:10585800012283F85120FB68002283F8502003239B
:1058680038E0FB68DB8E9BB2002B9CD1FB68DB8F9A
:105878009BB2002B97D13A6A396BF86800F0B6F8FA
:105888000346002B08D0FB6820225A65FB680022DB
:1058980083F8502001231DE0FB689B68002B0AD188
:1058A80000233B61FB681B68DB683B61FB681B6886
:1058B8009B683B613B69FB68012283F85120FB68C8
:1058C800002283F85020FB685B6D002B01D0012378
:1058D80000E0002318462837BD4680BD80B588B053
:1058E80000AFF860B9603B601346FB71FDF7C4FA7E
:1058F8000246BB6A9B1A3A681344FB61FDF7BCFA7F
:10590800B861394B1B685B011B0DFA6902FB03F395
:105918007B6154E03B68B3F1FF3F50D0FDF7ACFA30
:105928000246BB69D31AFA699A4202D9FB69002B6D
:105938003DD1FB681B685A68FB681B6822F0E002CF
:105948005A60FB685B68B3F5827F11D1FB689B687E
:10595800B3F5004F04D0FB689B68B3F5806F07D19F
:10596800FB681B681A68FB681B6822F040021A6013
:10597800FB689B6AB3F5005F0FD1FB681B681A6868
:10598800FB681B6822F400521A60FB681B681A68DF
:10599800FB681B6842F400521A60FB68012283F816
:1059A8005120FB68002283F85020032317E07B690D
:1059B800002B01D10023FB617B69013B7B61FB6804
:1059C8001B689A68BB681340BA689A420CBF0123E7
:1059D8000023DBB21A46FB799A429BD10023184672
:1059E8002037BD4680BD00BF9400002080B588B038
:1059F80002AFF860B9607A607B680093BB680122E7
:105A08000221F868FFF76AFF0346002B07D0FB68FE
:105A18005B6D43F02002FB685A65032332E01B4BA1
:105A28001B681B4AA2FB03235B0D4FF47A7202FB2F
:105A380003F37B61FB685B68B3F5827F12D17B68F7
:105A48000093BB6800228021F868FFF747FF0346F0
:105A5800002B16D0FB685B6D43F02002FB685A658B
:105A680003230FE07B69002B0AD07B69013B7B6134
:105A7800FB681B689B6803F08003802BF2D000E072
:105A880000BF002318461837BD4680BD940000208B
:105A9800819F5E1680B582B000AF78607B68002B6E
:105AA80001D1012341E07B6893F83D30DBB2002B44
:105AB80006D17B68002283F83C207868FDF724F93A
:105AC8007B68022283F83D207B681A687B68043370
